{
  "_format": "hh-sol-artifact-1",
  "contractName": "WmbGateway",
  "sourceName": "contracts/WmbGateway.sol",
  "abi": [
    {
      "inputs": [
        {
          "internalType": "bytes32",
          "name": "messageId",
          "type": "bytes32"
        },
        {
          "internalType": "uint256",
          "name": "messageIndex",
          "type": "uint256"
        },
        {
          "internalType": "bytes",
          "name": "errorData",
          "type": "bytes"
        }
      ],
      "name": "MessageBatchFailure",
      "type": "error"
    },
    {
      "inputs": [
        {
          "internalType": "bytes32",
          "name": "messageId",
          "type": "bytes32"
        },
        {
          "internalType": "bytes",
          "name": "errorData",
          "type": "bytes"
        }
      ],
      "name": "MessageFailure",
      "type": "error"
    },
    {
      "inputs": [
        {
          "internalType": "bytes32",
          "name": "messageId",
          "type": "bytes32"
        }
      ],
      "name": "MessageIdAlreadyExecuted",
      "type": "error"
    },
    {
      "inputs": [
        {
          "internalType": "bytes32",
          "name": "smgID",
          "type": "bytes32"
        },
        {
          "internalType": "bytes32",
          "name": "sigHash",
          "type": "bytes32"
        },
        {
          "internalType": "bytes",
          "name": "r",
          "type": "bytes"
        },
        {
          "internalType": "bytes32",
          "name": "s",
          "type": "bytes32"
        }
      ],
      "name": "SignatureVerifyFailed",
      "type": "error"
    },
    {
      "inputs": [
        {
          "internalType": "bytes32",
          "name": "smgID",
          "type": "bytes32"
        },
        {
          "internalType": "uint256",
          "name": "status",
          "type": "uint256"
        },
        {
          "internalType": "uint256",
          "name": "timestamp",
          "type": "uint256"
        },
        {
          "internalType": "uint256",
          "name": "startTime",
          "type": "uint256"
        },
        {
          "internalType": "uint256",
          "name": "endTime",
          "type": "uint256"
        }
      ],
      "name": "StoremanGroupNotReady",
      "type": "error"
    },
    {
      "anonymous": false,
      "inputs": [
        {
          "indexed": false,
          "internalType": "uint8",
          "name": "version",
          "type": "uint8"
        }
      ],
      "name": "Initialized",
      "type": "event"
    },
    {
      "anonymous": false,
      "inputs": [
        {
          "indexed": true,
          "internalType": "bytes32",
          "name": "messageId",
          "type": "bytes32"
        },
        {
          "indexed": true,
          "internalType": "address",
          "name": "from",
          "type": "address"
        },
        {
          "indexed": true,
          "internalType": "uint256",
          "name": "toChainId",
          "type": "uint256"
        },
        {
          "components": [
            {
              "internalType": "address",
              "name": "to",
              "type": "address"
            },
            {
              "internalType": "bytes",
              "name": "data",
              "type": "bytes"
            }
          ],
          "indexed": false,
          "internalType": "struct Message[]",
          "name": "messages",
          "type": "tuple[]"
        }
      ],
      "name": "MessageBatchDispatched",
      "type": "event"
    },
    {
      "anonymous": false,
      "inputs": [
        {
          "indexed": true,
          "internalType": "bytes32",
          "name": "messageId",
          "type": "bytes32"
        },
        {
          "indexed": true,
          "internalType": "address",
          "name": "from",
          "type": "address"
        },
        {
          "indexed": true,
          "internalType": "uint256",
          "name": "toChainId",
          "type": "uint256"
        },
        {
          "indexed": false,
          "internalType": "address",
          "name": "to",
          "type": "address"
        },
        {
          "indexed": false,
          "internalType": "bytes",
          "name": "data",
          "type": "bytes"
        }
      ],
      "name": "MessageDispatched",
      "type": "event"
    },
    {
      "anonymous": false,
      "inputs": [
        {
          "indexed": false,
          "internalType": "bytes32",
          "name": "messageId",
          "type": "bytes32"
        },
        {
          "indexed": false,
          "internalType": "address",
          "name": "sender",
          "type": "address"
        },
        {
          "indexed": false,
          "internalType": "uint256",
          "name": "toChainId",
          "type": "uint256"
        },
        {
          "indexed": false,
          "internalType": "bytes",
          "name": "to",
          "type": "bytes"
        },
        {
          "indexed": false,
          "internalType": "uint256",
          "name": "gasLimit",
          "type": "uint256"
        },
        {
          "indexed": false,
          "internalType": "bytes",
          "name": "data",
          "type": "bytes"
        }
      ],
      "name": "MessageDispatchedNonEvm",
      "type": "event"
    },
    {
      "anonymous": false,
      "inputs": [
        {
          "indexed": false,
          "internalType": "bytes32",
          "name": "messageId",
          "type": "bytes32"
        },
        {
          "indexed": false,
          "internalType": "address",
          "name": "sender",
          "type": "address"
        },
        {
          "indexed": false,
          "internalType": "uint256",
          "name": "toChainId",
          "type": "uint256"
        },
        {
          "indexed": false,
          "internalType": "address",
          "name": "to",
          "type": "address"
        },
        {
          "indexed": false,
          "internalType": "uint256",
          "name": "gasLimit",
          "type": "uint256"
        },
        {
          "indexed": false,
          "internalType": "bytes",
          "name": "data",
          "type": "bytes"
        }
      ],
      "name": "MessageDispatchedV2",
      "type": "event"
    },
    {
      "anonymous": false,
      "inputs": [
        {
          "indexed": true,
          "internalType": "uint256",
          "name": "fromChainId",
          "type": "uint256"
        },
        {
          "indexed": true,
          "internalType": "bytes32",
          "name": "messageId",
          "type": "bytes32"
        }
      ],
      "name": "MessageIdExecuted",
      "type": "event"
    },
    {
      "anonymous": false,
      "inputs": [
        {
          "indexed": true,
          "internalType": "bytes32",
          "name": "role",
          "type": "bytes32"
        },
        {
          "indexed": true,
          "internalType": "bytes32",
          "name": "previousAdminRole",
          "type": "bytes32"
        },
        {
          "indexed": true,
          "internalType": "bytes32",
          "name": "newAdminRole",
          "type": "bytes32"
        }
      ],
      "name": "RoleAdminChanged",
      "type": "event"
    },
    {
      "anonymous": false,
      "inputs": [
        {
          "indexed": true,
          "internalType": "bytes32",
          "name": "role",
          "type": "bytes32"
        },
        {
          "indexed": true,
          "internalType": "address",
          "name": "account",
          "type": "address"
        },
        {
          "indexed": true,
          "internalType": "address",
          "name": "sender",
          "type": "address"
        }
      ],
      "name": "RoleGranted",
      "type": "event"
    },
    {
      "anonymous": false,
      "inputs": [
        {
          "indexed": true,
          "internalType": "bytes32",
          "name": "role",
          "type": "bytes32"
        },
        {
          "indexed": true,
          "internalType": "address",
          "name": "account",
          "type": "address"
        },
        {
          "indexed": true,
          "internalType": "address",
          "name": "sender",
          "type": "address"
        }
      ],
      "name": "RoleRevoked",
      "type": "event"
    },
    {
      "inputs": [],
      "name": "DEFAULT_ADMIN_ROLE",
      "outputs": [
        {
          "internalType": "bytes32",
          "name": "",
          "type": "bytes32"
        }
      ],
      "stateMutability": "view",
      "type": "function"
    },
    {
      "inputs": [
        {
          "internalType": "uint256",
          "name": "",
          "type": "uint256"
        }
      ],
      "name": "baseFees",
      "outputs": [
        {
          "internalType": "uint256",
          "name": "",
          "type": "uint256"
        }
      ],
      "stateMutability": "view",
      "type": "function"
    },
    {
      "inputs": [
        {
          "internalType": "uint256[]",
          "name": "_targetChainIds",
          "type": "uint256[]"
        },
        {
          "internalType": "uint256[]",
          "name": "_baseFees",
          "type": "uint256[]"
        }
      ],
      "name": "batchSetBaseFees",
      "outputs": [],
      "stateMutability": "nonpayable",
      "type": "function"
    },
    {
      "inputs": [],
      "name": "chainId",
      "outputs": [
        {
          "internalType": "uint256",
          "name": "",
          "type": "uint256"
        }
      ],
      "stateMutability": "view",
      "type": "function"
    },
    {
      "inputs": [],
      "name": "defaultGasLimit",
      "outputs": [
        {
          "internalType": "uint256",
          "name": "",
          "type": "uint256"
        }
      ],
      "stateMutability": "view",
      "type": "function"
    },
    {
      "inputs": [
        {
          "internalType": "uint256",
          "name": "toChainId",
          "type": "uint256"
        },
        {
          "internalType": "address",
          "name": "to",
          "type": "address"
        },
        {
          "internalType": "bytes",
          "name": "data",
          "type": "bytes"
        }
      ],
      "name": "dispatchMessage",
      "outputs": [
        {
          "internalType": "bytes32",
          "name": "messageId",
          "type": "bytes32"
        }
      ],
      "stateMutability": "payable",
      "type": "function"
    },
    {
      "inputs": [
        {
          "internalType": "uint256",
          "name": "toChainId",
          "type": "uint256"
        },
        {
          "components": [
            {
              "internalType": "address",
              "name": "to",
              "type": "address"
            },
            {
              "internalType": "bytes",
              "name": "data",
              "type": "bytes"
            }
          ],
          "internalType": "struct Message[]",
          "name": "messages",
          "type": "tuple[]"
        }
      ],
      "name": "dispatchMessageBatch",
      "outputs": [
        {
          "internalType": "bytes32",
          "name": "messageId",
          "type": "bytes32"
        }
      ],
      "stateMutability": "payable",
      "type": "function"
    },
    {
      "inputs": [
        {
          "internalType": "uint256",
          "name": "toChainId",
          "type": "uint256"
        },
        {
          "internalType": "bytes",
          "name": "to",
          "type": "bytes"
        },
        {
          "internalType": "uint256",
          "name": "gasLimit",
          "type": "uint256"
        },
        {
          "internalType": "bytes",
          "name": "data",
          "type": "bytes"
        }
      ],
      "name": "dispatchMessageNonEvm",
      "outputs": [
        {
          "internalType": "bytes32",
          "name": "messageId",
          "type": "bytes32"
        }
      ],
      "stateMutability": "nonpayable",
      "type": "function"
    },
    {
      "inputs": [
        {
          "internalType": "uint256",
          "name": "toChainId",
          "type": "uint256"
        },
        {
          "internalType": "address",
          "name": "to",
          "type": "address"
        },
        {
          "internalType": "uint256",
          "name": "gasLimit",
          "type": "uint256"
        },
        {
          "internalType": "bytes",
          "name": "data",
          "type": "bytes"
        }
      ],
      "name": "dispatchMessageV2",
      "outputs": [
        {
          "internalType": "bytes32",
          "name": "messageId",
          "type": "bytes32"
        }
      ],
      "stateMutability": "nonpayable",
      "type": "function"
    },
    {
      "inputs": [
        {
          "internalType": "uint256",
          "name": "targetChainId",
          "type": "uint256"
        },
        {
          "internalType": "uint256",
          "name": "gasLimit",
          "type": "uint256"
        }
      ],
      "name": "estimateFee",
      "outputs": [
        {
          "internalType": "uint256",
          "name": "fee",
          "type": "uint256"
        }
      ],
      "stateMutability": "view",
      "type": "function"
    },
    {
      "inputs": [
        {
          "internalType": "bytes32",
          "name": "role",
          "type": "bytes32"
        }
      ],
      "name": "getRoleAdmin",
      "outputs": [
        {
          "internalType": "bytes32",
          "name": "",
          "type": "bytes32"
        }
      ],
      "stateMutability": "view",
      "type": "function"
    },
    {
      "inputs": [
        {
          "internalType": "bytes32",
          "name": "role",
          "type": "bytes32"
        },
        {
          "internalType": "address",
          "name": "account",
          "type": "address"
        }
      ],
      "name": "grantRole",
      "outputs": [],
      "stateMutability": "nonpayable",
      "type": "function"
    },
    {
      "inputs": [
        {
          "internalType": "bytes32",
          "name": "role",
          "type": "bytes32"
        },
        {
          "internalType": "address",
          "name": "account",
          "type": "address"
        }
      ],
      "name": "hasRole",
      "outputs": [
        {
          "internalType": "bool",
          "name": "",
          "type": "bool"
        }
      ],
      "stateMutability": "view",
      "type": "function"
    },
    {
      "inputs": [
        {
          "internalType": "address",
          "name": "admin",
          "type": "address"
        },
        {
          "internalType": "address",
          "name": "_cross",
          "type": "address"
        }
      ],
      "name": "initialize",
      "outputs": [],
      "stateMutability": "nonpayable",
      "type": "function"
    },
    {
      "inputs": [],
      "name": "maxGasLimit",
      "outputs": [
        {
          "internalType": "uint256",
          "name": "",
          "type": "uint256"
        }
      ],
      "stateMutability": "view",
      "type": "function"
    },
    {
      "inputs": [],
      "name": "maxMessageLength",
      "outputs": [
        {
          "internalType": "uint256",
          "name": "",
          "type": "uint256"
        }
      ],
      "stateMutability": "view",
      "type": "function"
    },
    {
      "inputs": [
        {
          "internalType": "bytes32",
          "name": "",
          "type": "bytes32"
        }
      ],
      "name": "messageExecuted",
      "outputs": [
        {
          "internalType": "bool",
          "name": "",
          "type": "bool"
        }
      ],
      "stateMutability": "view",
      "type": "function"
    },
    {
      "inputs": [
        {
          "internalType": "bytes32",
          "name": "",
          "type": "bytes32"
        }
      ],
      "name": "messageGasLimit",
      "outputs": [
        {
          "internalType": "uint256",
          "name": "",
          "type": "uint256"
        }
      ],
      "stateMutability": "view",
      "type": "function"
    },
    {
      "inputs": [],
      "name": "minGasLimit",
      "outputs": [
        {
          "internalType": "uint256",
          "name": "",
          "type": "uint256"
        }
      ],
      "stateMutability": "view",
      "type": "function"
    },
    {
      "inputs": [
        {
          "internalType": "uint256",
          "name": "",
          "type": "uint256"
        },
        {
          "internalType": "uint256",
          "name": "",
          "type": "uint256"
        },
        {
          "internalType": "address",
          "name": "",
          "type": "address"
        },
        {
          "internalType": "address",
          "name": "",
          "type": "address"
        }
      ],
      "name": "nonces",
      "outputs": [
        {
          "internalType": "uint256",
          "name": "",
          "type": "uint256"
        }
      ],
      "stateMutability": "view",
      "type": "function"
    },
    {
      "inputs": [
        {
          "internalType": "bytes32",
          "name": "messageId",
          "type": "bytes32"
        },
        {
          "internalType": "uint256",
          "name": "sourceChainId",
          "type": "uint256"
        },
        {
          "internalType": "address",
          "name": "sourceContract",
          "type": "address"
        },
        {
          "components": [
            {
              "internalType": "address",
              "name": "to",
              "type": "address"
            },
            {
              "internalType": "bytes",
              "name": "data",
              "type": "bytes"
            }
          ],
          "internalType": "struct Message[]",
          "name": "messages",
          "type": "tuple[]"
        },
        {
          "internalType": "uint256",
          "name": "gasLimit",
          "type": "uint256"
        },
        {
          "internalType": "bytes32",
          "name": "smgID",
          "type": "bytes32"
        },
        {
          "internalType": "bytes",
          "name": "r",
          "type": "bytes"
        },
        {
          "internalType": "bytes32",
          "name": "s",
          "type": "bytes32"
        }
      ],
      "name": "receiveBatchMessage",
      "outputs": [],
      "stateMutability": "nonpayable",
      "type": "function"
    },
    {
      "inputs": [
        {
          "internalType": "bytes32",
          "name": "messageId",
          "type": "bytes32"
        },
        {
          "internalType": "uint256",
          "name": "sourceChainId",
          "type": "uint256"
        },
        {
          "internalType": "address",
          "name": "sourceContract",
          "type": "address"
        },
        {
          "internalType": "address",
          "name": "targetContract",
          "type": "address"
        },
        {
          "internalType": "bytes",
          "name": "messageData",
          "type": "bytes"
        },
        {
          "internalType": "uint256",
          "name": "gasLimit",
          "type": "uint256"
        },
        {
          "internalType": "bytes32",
          "name": "smgID",
          "type": "bytes32"
        },
        {
          "internalType": "bytes",
          "name": "r",
          "type": "bytes"
        },
        {
          "internalType": "bytes32",
          "name": "s",
          "type": "bytes32"
        }
      ],
      "name": "receiveMessage",
      "outputs": [],
      "stateMutability": "nonpayable",
      "type": "function"
    },
    {
      "inputs": [
        {
          "internalType": "bytes32",
          "name": "messageId",
          "type": "bytes32"
        },
        {
          "internalType": "uint256",
          "name": "sourceChainId",
          "type": "uint256"
        },
        {
          "internalType": "bytes",
          "name": "sourceContract",
          "type": "bytes"
        },
        {
          "internalType": "address",
          "name": "targetContract",
          "type": "address"
        },
        {
          "internalType": "bytes",
          "name": "messageData",
          "type": "bytes"
        },
        {
          "internalType": "uint256",
          "name": "gasLimit",
          "type": "uint256"
        },
        {
          "internalType": "bytes32",
          "name": "smgID",
          "type": "bytes32"
        },
        {
          "internalType": "bytes",
          "name": "r",
          "type": "bytes"
        },
        {
          "internalType": "bytes32",
          "name": "s",
          "type": "bytes32"
        }
      ],
      "name": "receiveMessageNonEvm",
      "outputs": [],
      "stateMutability": "nonpayable",
      "type": "function"
    },
    {
      "inputs": [
        {
          "internalType": "bytes32",
          "name": "role",
          "type": "bytes32"
        },
        {
          "internalType": "address",
          "name": "account",
          "type": "address"
        }
      ],
      "name": "renounceRole",
      "outputs": [],
      "stateMutability": "nonpayable",
      "type": "function"
    },
    {
      "inputs": [
        {
          "internalType": "bytes32",
          "name": "role",
          "type": "bytes32"
        },
        {
          "internalType": "address",
          "name": "account",
          "type": "address"
        }
      ],
      "name": "revokeRole",
      "outputs": [],
      "stateMutability": "nonpayable",
      "type": "function"
    },
    {
      "inputs": [
        {
          "internalType": "uint256",
          "name": "_maxGasLimit",
          "type": "uint256"
        },
        {
          "internalType": "uint256",
          "name": "_minGasLimit",
          "type": "uint256"
        },
        {
          "internalType": "uint256",
          "name": "_defaultGasLimit",
          "type": "uint256"
        }
      ],
      "name": "setGasLimit",
      "outputs": [],
      "stateMutability": "nonpayable",
      "type": "function"
    },
    {
      "inputs": [
        {
          "internalType": "uint256",
          "name": "_maxMessageLength",
          "type": "uint256"
        }
      ],
      "name": "setMaxMessageLength",
      "outputs": [],
      "stateMutability": "nonpayable",
      "type": "function"
    },
    {
      "inputs": [
        {
          "internalType": "address",
          "name": "_signatureVerifier",
          "type": "address"
        }
      ],
      "name": "setSignatureVerifier",
      "outputs": [],
      "stateMutability": "nonpayable",
      "type": "function"
    },
    {
      "inputs": [
        {
          "internalType": "uint256[]",
          "name": "targetChainIds",
          "type": "uint256[]"
        },
        {
          "internalType": "bool[]",
          "name": "supported",
          "type": "bool[]"
        }
      ],
      "name": "setSupportedDstChains",
      "outputs": [],
      "stateMutability": "nonpayable",
      "type": "function"
    },
    {
      "inputs": [],
      "name": "signatureVerifier",
      "outputs": [
        {
          "internalType": "address",
          "name": "",
          "type": "address"
        }
      ],
      "stateMutability": "view",
      "type": "function"
    },
    {
      "inputs": [
        {
          "internalType": "uint256",
          "name": "",
          "type": "uint256"
        }
      ],
      "name": "supportedDstChains",
      "outputs": [
        {
          "internalType": "bool",
          "name": "",
          "type": "bool"
        }
      ],
      "stateMutability": "view",
      "type": "function"
    },
    {
      "inputs": [
        {
          "internalType": "bytes4",
          "name": "interfaceId",
          "type": "bytes4"
        }
      ],
      "name": "supportsInterface",
      "outputs": [
        {
          "internalType": "bool",
          "name": "",
          "type": "bool"
        }
      ],
      "stateMutability": "view",
      "type": "function"
    },
    {
      "inputs": [],
      "name": "wanchainStoremanAdminSC",
      "outputs": [
        {
          "internalType": "address",
          "name": "",
          "type": "address"
        }
      ],
      "stateMutability": "view",
      "type": "function"
    },
    {
      "inputs": [
        {
          "internalType": "address payable",
          "name": "_to",
          "type": "address"
        }
      ],
      "name": "withdrawFee",
      "outputs": [],
      "stateMutability": "nonpayable",
      "type": "function"
    }
  ],
  "bytecode": "0x608060405234801561001057600080fd5b50600160025561313b806100256000396000f3fe6080604052600436106101f85760003560e01c806395368d2e1161010d578063d547741f116100a0578063ea93a5091161006f578063ea93a509146105f1578063ef43ec7514610621578063fd4d084e14610641578063fde919f614610661578063fe39827b1461068157600080fd5b8063d547741f14610549578063e01fdc0f14610569578063e08a6605146105a1578063e7a0af78146105c157600080fd5b8063a1f64b31116100dc578063a1f64b31146104c7578063a20c51a9146104f4578063a217fddf14610514578063b408be971461052957600080fd5b806395368d2e1461045b578063993a34ed146104715780639a8a0592146104915780639c11bc30146104a757600080fd5b806336568abe116101905780635aeb4d771161015f5780635aeb4d771461039b5780635e45da23146103b15780635f1dd82c146103c75780637e3912771461040e57806391d148541461043b57600080fd5b806336568abe1461031b5780633abda0981461033b578063485cc9551461035b5780634918f53c1461037b57600080fd5b80631ac3ddeb116101cc5780631ac3ddeb146102955780631d1d4e29146102b5578063248a9ca3146102cb5780632f2ff15d146102fb57600080fd5b8062e1d8d0146101fd57806301ffc9a71461023057806318d9f08c14610260578063196148f614610273575b600080fd5b34801561020957600080fd5b5061021d61021836600461210c565b610694565b6040519081526020015b60405180910390f35b34801561023c57600080fd5b5061025061024b36600461212e565b61073d565b6040519015158152602001610227565b61021d61026e3660046121a3565b610772565b34801561027f57600080fd5b5061029361028e3660046121ee565b61094e565b005b3480156102a157600080fd5b506102936102b036600461222f565b610983565b3480156102c157600080fd5b5061021d60075481565b3480156102d757600080fd5b5061021d6102e636600461224c565b60009081526020819052604090206001015490565b34801561030757600080fd5b50610293610316366004612275565b6109e3565b34801561032757600080fd5b50610293610336366004612275565b610a0d565b34801561034757600080fd5b506102936103563660046122a5565b610a87565b34801561036757600080fd5b50610293610376366004612310565b610b66565b34801561038757600080fd5b5061029361039636600461237f565b610eac565b3480156103a757600080fd5b5061021d60055481565b3480156103bd57600080fd5b5061021d60045481565b3480156103d357600080fd5b5061021d6103e2366004612434565b600d60209081526000948552604080862082529385528385208152918452828420909152825290205481565b34801561041a57600080fd5b5061021d61042936600461224c565b600b6020526000908152604090205481565b34801561044757600080fd5b50610250610456366004612275565b610f8c565b34801561046757600080fd5b5061021d60065481565b34801561047d57600080fd5b5061021d61048c36600461247e565b610fb5565b34801561049d57600080fd5b5061021d60035481565b3480156104b357600080fd5b506102936104c236600461224c565b6110d8565b3480156104d357600080fd5b5061021d6104e236600461224c565b600c6020526000908152604090205481565b34801561050057600080fd5b5061029361050f3660046122a5565b611104565b34801561052057600080fd5b5061021d600081565b34801561053557600080fd5b506102936105443660046124e7565b6111fd565b34801561055557600080fd5b50610293610564366004612275565b611319565b34801561057557600080fd5b50600954610589906001600160a01b031681565b6040516001600160a01b039091168152602001610227565b3480156105ad57600080fd5b506102936105bc36600461222f565b61133e565b3480156105cd57600080fd5b506102506105dc36600461224c565b600e6020526000908152604090205460ff1681565b3480156105fd57600080fd5b5061025061060c36600461224c565b600a6020526000908152604090205460ff1681565b34801561062d57600080fd5b5061029361063c3660046126a5565b611387565b34801561064d57600080fd5b5061021d61065c36600461271c565b61148c565b34801561066d57600080fd5b50600854610589906001600160a01b031681565b61021d61068f366004612788565b61159c565b6000828152600e602052604081205460ff166106cb5760405162461bcd60e51b81526004016106c2906127d7565b60405180910390fd5b6004548211156106ed5760405162461bcd60e51b81526004016106c290612820565b60055482101561071a576005546000848152600b6020526040902054610713919061287b565b9050610737565b6000838152600b602052604090205461073490839061287b565b90505b92915050565b60006001600160e01b03198216637965db0b60e01b148061073757506301ffc9a760e01b6001600160e01b0319831614610737565b600061077c611726565b6000848152600e602052604090205460ff166107aa5760405162461bcd60e51b81526004016106c2906127d7565b6000848152600b60205260409020546005546107c6919061287b565b34101561080f5760405162461bcd60e51b8152602060048201526017602482015276576d62476174657761793a2046656520746f6f206c6f7760481b60448201526064016106c2565b81600061081b8661177d565b905060005b828110156108e95760006108978888888581811061084057610840612892565b905060200281019061085291906128a8565b61086090602081019061222f565b89898681811061087257610872612892565b905060200281019061088491906128a8565b6108929060208101906128c8565b6117b3565b9050816000036108a9578094506108d6565b60408051602081018790529081018290526060016040516020818303038152906040528051906020012094505b50806108e18161290e565b915050610820565b506000838152600c602052604090819020829055518690339085907f3e3e2584727d15a9c4d210e85682b829bdbe8c083632dbe0d61b59ad0c5b4ff190610933908a908a90612a1c565b60405180910390a450506109476001600255565b9392505050565b610959600033610f8c565b6109755760405162461bcd60e51b81526004016106c290612a30565b600492909255600555600655565b61098e600033610f8c565b6109aa5760405162461bcd60e51b81526004016106c290612a30565b6040516001600160a01b038216904780156108fc02916000818181858888f193505050501580156109df573d6000803e3d6000fd5b5050565b6000828152602081905260409020600101546109fe81611892565b610a08838361189f565b505050565b6001600160a01b0381163314610a7d5760405162461bcd60e51b815260206004820152602f60248201527f416363657373436f6e74726f6c3a2063616e206f6e6c792072656e6f756e636560448201526e103937b632b9903337b91039b2b63360891b60648201526084016106c2565b6109df8282611923565b610a92600033610f8c565b610aae5760405162461bcd60e51b81526004016106c290612a30565b828114610af95760405162461bcd60e51b815260206004820152601960248201527815db5891d85d195dd85e4e88125b9d985b1a59081a5b9c1d5d603a1b60448201526064016106c2565b60005b83811015610b5f57828282818110610b1657610b16612892565b90506020020135600b6000878785818110610b3357610b33612892565b905060200201358152602001908152602001600020819055508080610b579061290e565b915050610afc565b5050505050565b600154610100900460ff1615808015610b8357506001805460ff16105b80610b9c5750303b158015610b9c57506001805460ff16145b610bff5760405162461bcd60e51b815260206004820152602e60248201527f496e697469616c697a61626c653a20636f6e747261637420697320616c72656160448201526d191e481a5b9a5d1a585b1a5e995960921b60648201526084016106c2565b6001805460ff1916811790558015610c21576001805461ff0019166101001790555b6001600160a01b038316610c815760405162461bcd60e51b815260206004820152602160248201527f576d62476174657761793a20496e76616c69642061646d696e206164647265736044820152607360f81b60648201526084016106c2565b600080836001600160a01b03166373e29b0d6040518163ffffffff1660e01b815260040160a060405180830381865afa158015610cc2573d6000803e3d6000fd5b505050506040513d601f19601f82011682018060405250810190610ce69190612a72565b6040805163b179e1e760e01b81529051949750909550600094506001600160a01b0389169363b179e1e79350600480830193506020928290030181865afa158015610d35573d6000803e3d6000fd5b505050506040513d601f19601f82011682018060405250810190610d599190612ae7565b905080600003610d9e5760405162461bcd60e51b815260206004820152601060248201526f636861696e496420697320656d70747960801b60448201526064016106c2565b846001600160a01b03166373e29b0d6040518163ffffffff1660e01b815260040160a060405180830381865afa158015610ddc573d6000803e3d6000fd5b505050506040513d601f19601f82011682018060405250810190610e009190612a72565b50505060038390555050627a1200600455620249f0600555620f4240600655612710600755600880546001600160a01b038085166001600160a01b0319928316179092556009805492861692909116919091179055610e6060008761189f565b5050508015610a08576001805461ff00191681556040519081527f7f26b83ff96e1f2b6a682f133852f6798a09c465da95921460cefb38474024989060200160405180910390a1505050565b60008a8a8a6003548b8b604051602001610ecb96959493929190612b00565b604051602081830303815290604052805190602001209050610f41604051806080016040528083815260200187815260200186868080601f016020809104026020016040519081016040528093929190818152602001838380828437600092019190915250505090825250602001849052611988565b610f7f8b60405180608001604052808d81526020018c6001600160a01b031681526020018b8b90610f729190612b40565b8152602001899052611a97565b5050505050505050505050565b6000918252602082815260408084206001600160a01b0393909316845291905290205460ff1690565b6000610fbf611726565b6000868152600e602052604090205460ff16610fed5760405162461bcd60e51b81526004016106c2906127d7565b60045484111561100f5760405162461bcd60e51b81526004016106c290612820565b6005548410156110615760405162461bcd60e51b815260206004820152601d60248201527f576d62476174657761793a20476173206c696d697420746f6f206c6f7700000060448201526064016106c2565b61106d868685856117b3565b6000818152600c602052604090819020869055519091507fdf60d693bd2b9319588e19840fc60e738990b044dd0cd7cf3216f2b4121ace74906110bd90839033908a908a908a908a908a90612c03565b60405180910390a16110cf6001600255565b95945050505050565b6110e3600033610f8c565b6110ff5760405162461bcd60e51b81526004016106c290612a30565b600755565b61110f600033610f8c565b61112b5760405162461bcd60e51b81526004016106c290612a30565b8281146111765760405162461bcd60e51b815260206004820152601960248201527815db5891d85d195dd85e4e88125b9d985b1a59081a5b9c1d5d603a1b60448201526064016106c2565b60005b83811015610b5f5782828281811061119357611193612892565b90506020020160208101906111a89190612c5f565b600e60008787858181106111be576111be612892565b90506020020135815260200190815260200160002060006101000a81548160ff02191690831515021790555080806111f59061290e565b915050611179565b60008b8b8b6003548c8c8c60405160200161121e9796959493929190612c7c565b604051602081830303815290604052805190602001209050611294604051806080016040528083815260200187815260200186868080601f016020809104026020016040519081016040528093929190818152602001838380828437600092019190915250505090825250602001849052611988565b61130b8c6040518060a001604052808e81526020018d6001600160a01b031681526020018c6001600160a01b031681526020018b8b8080601f016020809104026020016040519081016040528093929190818152602001838380828437600092019190915250505090825250602001899052611c33565b505050505050505050505050565b60008281526020819052604090206001015461133481611892565b610a088383611923565b611349600033610f8c565b6113655760405162461bcd60e51b81526004016106c290612a30565b600880546001600160a01b0319166001600160a01b0392909216919091179055565b60008b8b8b6003548c8c8c6040516020016113a89796959493929190612d0d565b60405160208183030381529060405280519060200120905061141e604051806080016040528083815260200187815260200186868080601f016020809104026020016040519081016040528093929190818152602001838380828437600092019190915250505090825250602001849052611988565b61130b8c6040518060a001604052808e81526020018d81526020018c6001600160a01b031681526020018b8b8080601f016020809104026020016040519081016040528093929190818152602001838380828437600092019190915250505090825250602001899052611d75565b6000611496611726565b6000868152600e602052604090205460ff166114c45760405162461bcd60e51b81526004016106c2906127d7565b6004548411156114e65760405162461bcd60e51b81526004016106c290612820565b6005548410156115385760405162461bcd60e51b815260206004820152601d60248201527f576d62476174657761793a20476173206c696d697420746f6f206c6f7700000060448201526064016106c2565b8451602086012061154c90879085856117b3565b6000818152600c602052604090819020869055519091507f06bfd1ce50ef4ff30662cbfd92fd576e20903ca133d6a85bb565bb08673169da906110bd90839033908a908a908a908a908a90612d63565b60006115a6611726565b6000858152600e602052604090205460ff166115d45760405162461bcd60e51b81526004016106c2906127d7565b6000858152600b60205260409020546005546115f0919061287b565b3410156116395760405162461bcd60e51b8152602060048201526017602482015276576d62476174657761793a2046656520746f6f206c6f7760481b60448201526064016106c2565b6000858152600b6020526040902054600454611655919061287b565b3411156116a45760405162461bcd60e51b815260206004820152601960248201527f576d62476174657761793a2046656520746f6f206c617267650000000000000060448201526064016106c2565b60006116af8661177d565b90506116bd868686866117b3565b6000818152600c602052604090819020839055519092508690339084907fe2f8f20ddbedfce5eb59a8b930077e7f4906a01300b9318db5f90d1c96c7b6d49061170b908a908a908a90612da9565b60405180910390a45061171e6001600255565b949350505050565b60028054036117775760405162461bcd60e51b815260206004820152601f60248201527f5265656e7472616e637947756172643a207265656e7472616e742063616c6c0060448201526064016106c2565b60028055565b6000818152600b6020526040812054810361179a57505060065490565b6000828152600b60205260409020546107379034612dce565b6003546000908152600d60209081526040808320878452825280832033845282528083206001600160a01b03871684529091528120805482919082906117f89061290e565b91829055506007549091508311156118525760405162461bcd60e51b815260206004820152601c60248201527f576d62476174657761793a204d65737361676520746f6f206c6f6e670000000060448201526064016106c2565b6003543387878787866040516020016118719796959493929190612df0565b60405160208183030381529060405280519060200120915050949350505050565b61189c8133611e09565b50565b6118a98282610f8c565b6109df576000828152602081815260408083206001600160a01b03851684529091529020805460ff191660011790556118df3390565b6001600160a01b0316816001600160a01b0316837f2f8788117e7eff1d82e926ec794901d17c78024a50270940304540a733656f0d60405160405180910390a45050565b61192d8282610f8c565b156109df576000828152602081815260408083206001600160a01b0385168085529252808320805460ff1916905551339285917ff6391f5c32d9c69d2a47ea670b442974b53935d1edc7fd64eb21e047a839171b9190a45050565b600060606119998360200151611e62565b60208181015160408084015188820151808501519083015160085460608c01518c518651631161eded60e21b8152600481018c9052602481019290925260448201889052606482018690526084820185905260a4820184905260c48201529451989a509698509396919590946001600160a01b0390911692634587b7b49260e4808301939282900301816000875af1158015611a39573d6000803e3d6000fd5b505050506040513d601f19601f82011682018060405250810190611a5d9190612e3c565b611a8e57602087015187516040808a015160608b01519151635d2d123b60e11b81526106c294939290600401612e59565b50505050505050565b6000828152600a602052604090205460ff1615611aca5760405163153bf81360e31b8152600481018390526024016106c2565b6000828152600a6020526040808220805460ff1916600117905582015151905b81811015611c005782604001518181518110611b0857611b08612892565b6020026020010151600001516001600160a01b0316633a1a5b765a85604001518481518110611b3957611b39612892565b60200260200101516020015187876000015188602001516040518663ffffffff1660e01b8152600401611b6f9493929190612e89565b600060405180830381600088803b158015611b8957600080fd5b5087f193505050508015611b9b575060015b611bee573d808015611bc9576040519150601f19603f3d011682016040523d82523d6000602084013e611bce565b606091505b508482826040516307ee0b0760e31b81526004016106c293929190612ec1565b80611bf88161290e565b915050611aea565b82516040518591907e769f3f82cb2a521c5b72f211aff687dae3cebd0b4631790417d1b17e15689a90600090a350505050565b6000828152600a602052604090205460ff1615611c665760405163153bf81360e31b8152600481018390526024016106c2565b6000828152600a6020908152604091829020805460ff1916600117905582820151608084015160608501518551938601519451631d0d2dbb60e11b81526001600160a01b0390931694633a1a5b76949293611cc79389929091600401612e89565b600060405180830381600088803b158015611ce157600080fd5b5087f193505050508015611cf3575060015b611d44573d808015611d21576040519150601f19603f3d011682016040523d82523d6000602084013e611d26565b606091505b508281604051632f9c844f60e21b81526004016106c2929190612ee0565b80516040518391907e769f3f82cb2a521c5b72f211aff687dae3cebd0b4631790417d1b17e15689a90600090a35050565b6000828152600a602052604090205460ff1615611da85760405163153bf81360e31b8152600481018390526024016106c2565b6000828152600a6020908152604091829020805460ff1916600117905582820151608084015160608501518551938601519451636093271760e11b81526001600160a01b039093169463c1264e2e949293611cc79389929091600401612ef9565b611e138282610f8c565b6109df57611e2081611f5f565b611e2b836020611f71565b604051602001611e3c929190612f35565b60408051601f198184030181529082905262461bcd60e51b82526106c291600401612faa565b6009546040516344cefb6960e01b8152600481018390526000916060918391829182916001600160a01b0316906344cefb6990602401600060405180830381865afa158015611eb5573d6000803e3d6000fd5b505050506040513d6000823e601f3d908101601f19168201604052611edd9190810190613013565b949e50919c50969a50985090965060059550611efa945050505050565b60ff168360ff16148015611f0e5750814210155b8015611f1a5750804211155b611f57576040516320b0fccf60e01b81526004810187905260ff84166024820152426044820152606481018390526084810182905260a4016106c2565b505050915091565b60606107376001600160a01b03831660145b60606000611f8083600261287b565b611f8b9060026130db565b6001600160401b03811115611fa257611fa26125ba565b6040519080825280601f01601f191660200182016040528015611fcc576020820181803683370190505b509050600360fc1b81600081518110611fe757611fe7612892565b60200101906001600160f81b031916908160001a905350600f60fb1b8160018151811061201657612016612892565b60200101906001600160f81b031916908160001a905350600061203a84600261287b565b6120459060016130db565b90505b60018111156120bd576f181899199a1a9b1b9c1cb0b131b232b360811b85600f166010811061207957612079612892565b1a60f81b82828151811061208f5761208f612892565b60200101906001600160f81b031916908160001a90535060049490941c936120b6816130ee565b9050612048565b5083156107345760405162461bcd60e51b815260206004820181905260248201527f537472696e67733a20686578206c656e67746820696e73756666696369656e7460448201526064016106c2565b6000806040838503121561211f57600080fd5b50508035926020909101359150565b60006020828403121561214057600080fd5b81356001600160e01b03198116811461073457600080fd5b60008083601f84011261216a57600080fd5b5081356001600160401b0381111561218157600080fd5b6020830191508360208260051b850101111561219c57600080fd5b9250929050565b6000806000604084860312156121b857600080fd5b8335925060208401356001600160401b038111156121d557600080fd5b6121e186828701612158565b9497909650939450505050565b60008060006060848603121561220357600080fd5b505081359360208301359350604090920135919050565b6001600160a01b038116811461189c57600080fd5b60006020828403121561224157600080fd5b81356107348161221a565b60006020828403121561225e57600080fd5b5035919050565b80356122708161221a565b919050565b6000806040838503121561228857600080fd5b82359150602083013561229a8161221a565b809150509250929050565b600080600080604085870312156122bb57600080fd5b84356001600160401b03808211156122d257600080fd5b6122de88838901612158565b909650945060208701359150808211156122f757600080fd5b5061230487828801612158565b95989497509550505050565b6000806040838503121561232357600080fd5b823561232e8161221a565b9150602083013561229a8161221a565b60008083601f84011261235057600080fd5b5081356001600160401b0381111561236757600080fd5b60208301915083602082850101111561219c57600080fd5b6000806000806000806000806000806101008b8d03121561239f57600080fd5b8a35995060208b0135985060408b01356123b88161221a565b975060608b01356001600160401b03808211156123d457600080fd5b6123e08e838f01612158565b909950975060808d0135965060a08d0135955060c08d013591508082111561240757600080fd5b506124148d828e0161233e565b9150809450508092505060e08b013590509295989b9194979a5092959850565b6000806000806080858703121561244a57600080fd5b843593506020850135925060408501356124638161221a565b915060608501356124738161221a565b939692955090935050565b60008060008060006080868803121561249657600080fd5b8535945060208601356124a88161221a565b93506040860135925060608601356001600160401b038111156124ca57600080fd5b6124d68882890161233e565b969995985093965092949392505050565b60008060008060008060008060008060006101208c8e03121561250957600080fd5b8b359a5060208c0135995061252160408d013561221a565b60408c0135985061253560608d013561221a565b60608c013597506001600160401b038060808e0135111561255557600080fd5b6125658e60808f01358f0161233e565b909850965060a08d0135955060c08d0135945060e08d013581101561258957600080fd5b5061259a8d60e08e01358e0161233e565b81945080935050506101008c013590509295989b509295989b9093969950565b634e487b7160e01b600052604160045260246000fd5b604080519081016001600160401b03811182821017156125f2576125f26125ba565b60405290565b604051601f8201601f191681016001600160401b0381118282101715612620576126206125ba565b604052919050565b60006001600160401b03821115612641576126416125ba565b50601f01601f191660200190565b600082601f83011261266057600080fd5b813561267361266e82612628565b6125f8565b81815284602083860101111561268857600080fd5b816020850160208301376000918101602001919091529392505050565b60008060008060008060008060008060006101208c8e0312156126c757600080fd5b8b359a5060208c013599506001600160401b038060408e013511156126eb57600080fd5b6126fb8e60408f01358f0161264f565b995061270960608e01612265565b98508060808e0135111561255557600080fd5b60008060008060006080868803121561273457600080fd5b8535945060208601356001600160401b038082111561275257600080fd5b61275e89838a0161264f565b955060408801359450606088013591508082111561277b57600080fd5b506124d68882890161233e565b6000806000806060858703121561279e57600080fd5b8435935060208501356127b08161221a565b925060408501356001600160401b038111156127cb57600080fd5b6123048782880161233e565b60208082526029908201527f576d62476174657761793a20556e737570706f727465642064657374696e617460408201526834b7b71031b430b4b760b91b606082015260800190565b60208082526025908201527f576d62476174657761793a20476173206c696d69742065786365656473206d6160408201526478696d756d60d81b606082015260800190565b634e487b7160e01b600052601160045260246000fd5b808202811582820484141761073757610737612865565b634e487b7160e01b600052603260045260246000fd5b60008235603e198336030181126128be57600080fd5b9190910192915050565b6000808335601e198436030181126128df57600080fd5b8301803591506001600160401b038211156128f957600080fd5b60200191503681900382131561219c57600080fd5b60006001820161292057612920612865565b5060010190565b81835281816020850137506000828201602090810191909152601f909101601f19169091010190565b81835260006020808501808196508560051b810191508460005b87811015612a0f5782840389528135603e1988360301811261298b57600080fd5b87016040813561299a8161221a565b6001600160a01b031686528187013536839003601e190181126129bc57600080fd5b9091018681019190356001600160401b038111156129d957600080fd5b8036038313156129e857600080fd5b81888801526129fa8288018285612927565b9b88019b96505050918501915060010161296a565b5091979650505050505050565b60208152600061171e602083018486612950565b60208082526022908201527f576d62476174657761793a2043616c6c6572206973206e6f7420616e2061646d60408201526134b760f11b606082015260800190565b600080600080600060a08688031215612a8a57600080fd5b8551612a958161221a565b6020870151909550612aa68161221a565b6040870151909450612ab78161221a565b6060870151909350612ac88161221a565b6080870151909250612ad98161221a565b809150509295509295909350565b600060208284031215612af957600080fd5b5051919050565b86815285602082015260018060a01b038516604082015283606082015260a060808201526000612b3460a083018486612950565b98975050505050505050565b60006001600160401b0380841115612b5a57612b5a6125ba565b8360051b6020612b6b8183016125f8565b868152918501918181019036841115612b8357600080fd5b865b84811015612bf757803586811115612b9d5760008081fd5b88016040368290031215612bb15760008081fd5b612bb96125d0565b8135612bc48161221a565b81528186013588811115612bd85760008081fd5b612be43682850161264f565b8288015250845250918301918301612b85565b50979650505050505050565b8781526001600160a01b03878116602083015260408201879052851660608201526080810184905260c060a08201819052600090612c449083018486612927565b9998505050505050505050565b801515811461189c57600080fd5b600060208284031215612c7157600080fd5b813561073481612c51565b878152602081018790526001600160a01b038681166040830152606082018690528416608082015260c060a08201819052600090612c449083018486612927565b60005b83811015612cd8578181015183820152602001612cc0565b50506000910152565b60008151808452612cf9816020860160208601612cbd565b601f01601f19169290920160200192915050565b87815286602082015260c060408201526000612d2c60c0830188612ce1565b606083018790526001600160a01b038616608084015282810360a0840152612d55818587612927565b9a9950505050505050505050565b87815260018060a01b038716602082015285604082015260c060608201526000612d9060c0830187612ce1565b85608084015282810360a0840152612d55818587612927565b6001600160a01b03841681526040602082018190526000906110cf9083018486612927565b600082612deb57634e487b7160e01b600052601260045260246000fd5b500490565b87815260006bffffffffffffffffffffffff19808960601b166020840152876034840152808760601b166054840152508385606884013750606892019182015260880195945050505050565b600060208284031215612e4e57600080fd5b815161073481612c51565b848152836020820152608060408201526000612e786080830185612ce1565b905082606083015295945050505050565b608081526000612e9c6080830187612ce1565b60208301959095525060408101929092526001600160a01b0316606090910152919050565b8381528260208201526060604082015260006110cf6060830184612ce1565b82815260406020820152600061171e6040830184612ce1565b608081526000612f0c6080830187612ce1565b8560208401528460408401528281036060840152612f2a8185612ce1565b979650505050505050565b7f416363657373436f6e74726f6c3a206163636f756e7420000000000000000000815260008351612f6d816017850160208801612cbd565b7001034b99036b4b9b9b4b733903937b6329607d1b6017918401918201528351612f9e816028840160208801612cbd565b01602801949350505050565b6020815260006107346020830184612ce1565b805160ff8116811461227057600080fd5b600082601f830112612fdf57600080fd5b8151612fed61266e82612628565b81815284602083860101111561300257600080fd5b61171e826020830160208701612cbd565b60008060008060008060008060008060006101608c8e03121561303557600080fd5b8b519a5061304560208d01612fbd565b995060408c0151985060608c0151975060808c0151965060a08c0151955060c08c0151945060e08c01516001600160401b0381111561308357600080fd5b61308f8e828f01612fce565b9450506101008c01516001600160401b038111156130ac57600080fd5b6130b88e828f01612fce565b9350506101208c015191506101408c015190509295989b509295989b9093969950565b8082018082111561073757610737612865565b6000816130fd576130fd612865565b50600019019056fea2646970667358221220ed34357f1cb8a59553c10b0a17ffc3c6c412ef46b6fe9dfd60be8617aff1de6664736f6c63430008120033",
  "linkReferences": {},
  "deployedLinkReferences": {}
}