{
  "_format": "hh-sol-artifact-1",
  "contractName": "ERC20TokenHome4CardanoV2",
  "sourceName": "contracts/examples/TokenBridgeV2/ERC20TokenHome4CardanoV2.sol",
  "abi": [
    {
      "inputs": [
        {
          "internalType": "address",
          "name": "_wmbGateway",
          "type": "address"
        },
        {
          "internalType": "address",
          "name": "_tokenAddress",
          "type": "address"
        }
      ],
      "stateMutability": "nonpayable",
      "type": "constructor"
    },
    {
      "anonymous": false,
      "inputs": [
        {
          "indexed": false,
          "internalType": "bytes",
          "name": "tokenRemote",
          "type": "bytes"
        }
      ],
      "name": "ConfigTokenRemote",
      "type": "event"
    },
    {
      "anonymous": false,
      "inputs": [
        {
          "indexed": false,
          "internalType": "uint256",
          "name": "gasLimit",
          "type": "uint256"
        }
      ],
      "name": "OutboundGasLimitSet",
      "type": "event"
    },
    {
      "anonymous": false,
      "inputs": [
        {
          "indexed": true,
          "internalType": "address",
          "name": "previousOwner",
          "type": "address"
        },
        {
          "indexed": true,
          "internalType": "address",
          "name": "newOwner",
          "type": "address"
        }
      ],
      "name": "OwnershipTransferred",
      "type": "event"
    },
    {
      "anonymous": false,
      "inputs": [
        {
          "indexed": true,
          "internalType": "uint256",
          "name": "fromChainId",
          "type": "uint256"
        },
        {
          "indexed": true,
          "internalType": "bytes",
          "name": "from",
          "type": "bytes"
        },
        {
          "indexed": true,
          "internalType": "address",
          "name": "to",
          "type": "address"
        },
        {
          "indexed": false,
          "internalType": "uint256",
          "name": "amount",
          "type": "uint256"
        }
      ],
      "name": "ReceiveTokenFromRemote",
      "type": "event"
    },
    {
      "anonymous": false,
      "inputs": [
        {
          "indexed": true,
          "internalType": "uint256",
          "name": "toChainId",
          "type": "uint256"
        },
        {
          "indexed": true,
          "internalType": "address",
          "name": "from",
          "type": "address"
        },
        {
          "indexed": false,
          "internalType": "uint256",
          "name": "amount",
          "type": "uint256"
        }
      ],
      "name": "SendTokenToRemote",
      "type": "event"
    },
    {
      "anonymous": false,
      "inputs": [
        {
          "indexed": false,
          "internalType": "uint256",
          "name": "fromChainId",
          "type": "uint256"
        },
        {
          "indexed": false,
          "internalType": "bytes",
          "name": "from",
          "type": "bytes"
        },
        {
          "indexed": false,
          "internalType": "bool",
          "name": "trusted",
          "type": "bool"
        }
      ],
      "name": "SetTrustedRemote",
      "type": "event"
    },
    {
      "inputs": [
        {
          "internalType": "uint256",
          "name": "_remoteChainId",
          "type": "uint256"
        },
        {
          "internalType": "bytes",
          "name": "_tokenRemote",
          "type": "bytes"
        }
      ],
      "name": "configInboundTokenRemote",
      "outputs": [],
      "stateMutability": "nonpayable",
      "type": "function"
    },
    {
      "inputs": [
        {
          "internalType": "uint256",
          "name": "_remoteChainId",
          "type": "uint256"
        },
        {
          "internalType": "bytes",
          "name": "_tokenRemote",
          "type": "bytes"
        }
      ],
      "name": "configOutBoundTokenRemote",
      "outputs": [],
      "stateMutability": "nonpayable",
      "type": "function"
    },
    {
      "inputs": [],
      "name": "inboundTokenRemote",
      "outputs": [
        {
          "internalType": "bytes",
          "name": "",
          "type": "bytes"
        }
      ],
      "stateMutability": "view",
      "type": "function"
    },
    {
      "inputs": [],
      "name": "outboundGasLimit",
      "outputs": [
        {
          "internalType": "uint256",
          "name": "",
          "type": "uint256"
        }
      ],
      "stateMutability": "view",
      "type": "function"
    },
    {
      "inputs": [],
      "name": "outboundTokenRemote",
      "outputs": [
        {
          "internalType": "bytes",
          "name": "",
          "type": "bytes"
        }
      ],
      "stateMutability": "view",
      "type": "function"
    },
    {
      "inputs": [],
      "name": "owner",
      "outputs": [
        {
          "internalType": "address",
          "name": "",
          "type": "address"
        }
      ],
      "stateMutability": "view",
      "type": "function"
    },
    {
      "inputs": [
        {
          "internalType": "bytes",
          "name": "cbor",
          "type": "bytes"
        }
      ],
      "name": "parseToMsg",
      "outputs": [
        {
          "components": [
            {
              "components": [
                {
                  "internalType": "bytes",
                  "name": "paymentKey",
                  "type": "bytes"
                },
                {
                  "internalType": "bool",
                  "name": "isPaymentScript",
                  "type": "bool"
                },
                {
                  "internalType": "bool",
                  "name": "hasStakeKey",
                  "type": "bool"
                },
                {
                  "internalType": "bytes",
                  "name": "stakeKey",
                  "type": "bytes"
                },
                {
                  "internalType": "bool",
                  "name": "isStakeScript",
                  "type": "bool"
                }
              ],
              "internalType": "struct ERC20TokenHome4CardanoV2.AdaAddress",
              "name": "receiverAda",
              "type": "tuple"
            },
            {
              "internalType": "bytes",
              "name": "receiverEvm",
              "type": "bytes"
            },
            {
              "internalType": "bool",
              "name": "isEvmChain",
              "type": "bool"
            },
            {
              "internalType": "uint256",
              "name": "amount",
              "type": "uint256"
            }
          ],
          "internalType": "struct ERC20TokenHome4CardanoV2.CCMessage",
          "name": "msgInfo",
          "type": "tuple"
        }
      ],
      "stateMutability": "pure",
      "type": "function"
    },
    {
      "inputs": [],
      "name": "remoteChainId",
      "outputs": [
        {
          "internalType": "uint256",
          "name": "",
          "type": "uint256"
        }
      ],
      "stateMutability": "view",
      "type": "function"
    },
    {
      "inputs": [],
      "name": "renounceOwnership",
      "outputs": [],
      "stateMutability": "nonpayable",
      "type": "function"
    },
    {
      "inputs": [
        {
          "internalType": "bytes",
          "name": "plutusData",
          "type": "bytes"
        }
      ],
      "name": "send",
      "outputs": [],
      "stateMutability": "nonpayable",
      "type": "function"
    },
    {
      "inputs": [
        {
          "internalType": "uint256",
          "name": "_gasLimit",
          "type": "uint256"
        }
      ],
      "name": "setOutboundGasLimit",
      "outputs": [],
      "stateMutability": "nonpayable",
      "type": "function"
    },
    {
      "inputs": [],
      "name": "tokenAddress",
      "outputs": [
        {
          "internalType": "address",
          "name": "",
          "type": "address"
        }
      ],
      "stateMutability": "view",
      "type": "function"
    },
    {
      "inputs": [
        {
          "internalType": "address",
          "name": "newOwner",
          "type": "address"
        }
      ],
      "name": "transferOwnership",
      "outputs": [],
      "stateMutability": "nonpayable",
      "type": "function"
    },
    {
      "inputs": [
        {
          "internalType": "uint256",
          "name": "",
          "type": "uint256"
        },
        {
          "internalType": "bytes",
          "name": "",
          "type": "bytes"
        }
      ],
      "name": "trustedRemotes",
      "outputs": [
        {
          "internalType": "bool",
          "name": "",
          "type": "bool"
        }
      ],
      "stateMutability": "view",
      "type": "function"
    },
    {
      "inputs": [],
      "name": "wmbGateway",
      "outputs": [
        {
          "internalType": "address",
          "name": "",
          "type": "address"
        }
      ],
      "stateMutability": "view",
      "type": "function"
    },
    {
      "inputs": [
        {
          "internalType": "bytes",
          "name": "data",
          "type": "bytes"
        },
        {
          "internalType": "bytes32",
          "name": "messageId",
          "type": "bytes32"
        },
        {
          "internalType": "uint256",
          "name": "fromChainId",
          "type": "uint256"
        },
        {
          "internalType": "bytes",
          "name": "from",
          "type": "bytes"
        }
      ],
      "name": "wmbReceiveNonEvm",
      "outputs": [],
      "stateMutability": "nonpayable",
      "type": "function"
    }
  ],
  "bytecode": "0x6080604052620493e06007553480156200001857600080fd5b5060405162002c1738038062002c178339810160408190526200003b91620000ea565b8162000047336200007d565b600180546001600160a01b039283166001600160a01b031991821617909155600380549390921692169190911790555062000122565b600080546001600160a01b038381166001600160a01b0319831681178455604051919092169283917f8be0079c531659141344cd1fd0a4f28419497f9722a3daafe3b4186f6b6457e09190a35050565b80516001600160a01b0381168114620000e557600080fd5b919050565b60008060408385031215620000fe57600080fd5b6200010983620000cd565b91506200011960208401620000cd565b90509250929050565b612ae580620001326000396000f3fe608060405234801561001057600080fd5b50600436106101005760003560e01c8063715018a611610097578063c1264e2e11610066578063c1264e2e1461023f578063c6b274ec14610252578063e951819614610265578063f2fde38b1461026e57600080fd5b8063715018a6146102005780638056e83c146102085780638da5cb5b1461021b5780639d76ea581461022c57600080fd5b80632bb1ae7c116100d35780632bb1ae7c146101a55780632dbf78cf146101b85780632ed1c0ee146101cd5780633088a5f9146101d557600080fd5b80631adcf115146101055780632395554914610121578063245488b71461013657806324f09be614610185575b600080fd5b61010e60075481565b6040519081526020015b60405180910390f35b61013461012f366004612430565b610281565b005b6101756101443660046124eb565b6002602090815260009283526040909220815180830184018051928152908401929093019190912091525460ff1681565b6040519015158152602001610118565b610198610193366004612531565b6102c4565b60405161011891906125b5565b6101346101b3366004612531565b610caf565b6101c0610fa2565b6040516101189190612668565b6101c0611030565b6001546101e8906001600160a01b031681565b6040516001600160a01b039091168152602001610118565b61013461103d565b6101346102163660046124eb565b611051565b6000546001600160a01b03166101e8565b6003546101e8906001600160a01b031681565b61013461024d36600461267b565b61113f565b6101346102603660046124eb565b611241565b61010e60065481565b61013461027c366004612722565b61129e565b610289611317565b60078190556040518181527f29661ca8081d4267b999a4e837bc59fb33e33f4f7e5a74d8bd6853b28241206b9060200160405180910390a150565b6040805161012081018252606060808201818152600060a0840181905260c0840181905260e0840183905261010084018190529083526020830182905292820183905281018290529061031683611371565b90508060600151516001146103725760405162461bcd60e51b815260206004820152601960248201527f63622e617272617956616c75652e6c656e677468203d3d20310000000000000060448201526064015b60405180910390fd5b6000816060015160008151811061038b5761038b61274b565b60200260200101519050600460078111156103a8576103a8612761565b815160078111156103bb576103bb612761565b146104235760405162461bcd60e51b815260206004820152603260248201527f6669656c64732e6d616a6f7254797065203d3d20524643383934394465636f6460448201527165722e4d616a6f72547970652e417272617960701b6064820152608401610369565b8060600151516002146104845760405162461bcd60e51b815260206004820152602360248201527f6572726f72206669656c64732e617272617956616c75652e6c656e677468203d6044820152621e901960e91b6064820152608401610369565b6000816060015160008151811061049d5761049d61274b565b602002602001015190508060800151607914806104be57508060800151607a145b61050a5760405162461bcd60e51b815260206004820152601760248201527f746167206e65697468657220313231206e6f72203132320000000000000000006044820152606401610369565b8060600151516001146105695760405162461bcd60e51b815260206004820152602160248201527f6d7367416464726573732e617272617956616c75652e6c656e677468203d3d206044820152603160f81b6064820152608401610369565b608081015160791460408501526060810151805160009190829061058f5761058f61274b565b602002602001015190508060600151516001146105fe5760405162461bcd60e51b815260206004820152602760248201527f6d7367416464726573734669656c64732e617272617956616c75652e6c656e676044820152667468203d3d203160c81b6064820152608401610369565b600081606001516000815181106106175761061761274b565b602002602001015190508560400151156107065760028151600781111561064057610640612761565b146106aa5760405162461bcd60e51b815260206004820152603460248201527f72656365697665722e6d616a6f7254797065203d3d20524643383934394465636044820152736f6465722e4d616a6f72547970652e427974657360601b6064820152608401610369565b601481602001515110156106f75760405162461bcd60e51b81526020600482015260146024820152730e4cac6cad2eccae45cc8c2e8c25cd8cadccee8d60631b6044820152606401610369565b6020808201519087015261085c565b60068151600781111561071b5761071b612761565b146107835760405162461bcd60e51b815260206004820152603260248201527f72656365697665722e6d616a6f7254797065203d3d20524643383934394465636044820152716f6465722e4d616a6f72547970652e54616760701b6064820152608401610369565b8060600151516001146107d85760405162461bcd60e51b815260206004820152601f60248201527f72656365697665722e617272617956616c75652e6c656e677468203d3d2031006044820152606401610369565b600081606001516000815181106107f1576107f161274b565b6020026020010151905080606001515160021461085a5760405162461bcd60e51b815260206004820152602160248201527f616461416464726573732e617272617956616c75652e6c656e677468203d3d206044820152601960f91b6064820152608401610369565b505b600084606001516001815181106108755761087561274b565b602002602001015160000151600781111561089257610892612761565b036108c85783606001516001815181106108ae576108ae61274b565b602002602001015160400151866060018181525050610ca5565b600684606001516001815181106108e1576108e161274b565b60200260200101516000015160078111156108fe576108fe612761565b03610ca557836060015160018151811061091a5761091a61274b565b6020026020010151608001516002146109815760405162461bcd60e51b815260206004820152602360248201527f6669656c64732e617272617956616c75655b315d2e7461674e756d626572203d6044820152621e901960e91b6064820152608401610369565b83606001516001815181106109985761099861274b565b60200260200101516060015151600114610a085760405162461bcd60e51b815260206004820152602b60248201527f6669656c64732e617272617956616c75655b315d2e617272617956616c75652e60448201526a6c656e677468203d3d203160a81b6064820152608401610369565b60028460600151600181518110610a2157610a2161274b565b602002602001015160600151600081518110610a3f57610a3f61274b565b6020026020010151600001516007811115610a5c57610a5c612761565b14610ae65760405162461bcd60e51b815260206004820152604e60248201527f6669656c64732e617272617956616c75655b315d2e617272617956616c75655b60448201527f305d2e6d616a6f7254797065203d3d20524643383934394465636f6465722e4d60648201526d616a6f72547970652e427974657360901b608482015260a401610369565b60018460600151600181518110610aff57610aff61274b565b602002602001015160600151600081518110610b1d57610b1d61274b565b602002602001015160200151511015610b8f5760405162461bcd60e51b815260206004820152602e60248201527f6669656c64732e617272617956616c75655b315d2e617272617956616c75655b60448201526d060ba5cc8c2e8c25cd8cadccee8d60931b6064820152608401610369565b60008460600151600181518110610ba857610ba861274b565b602002602001015160600151600081518110610bc657610bc661274b565b6020026020010151602001515190506020811115610c195760405162461bcd60e51b815260206004820152601060248201526f616d6f756e7420746f6f206c6172676560801b6044820152606401610369565b60005b81811015610ca2578560600151600181518110610c3b57610c3b61274b565b602002602001015160600151600081518110610c5957610c5961274b565b6020026020010151602001518181518110610c7657610c7661274b565b016020015160608901805160081b60f89290921c91909117905280610c9a8161278d565b915050610c1c565b50505b5050505050919050565b60058054610cbc906127a6565b9050600003610d035760405162461bcd60e51b81526020600482015260136024820152721d1bdad95b94995b5bdd19481b9bdd081cd95d606a1b6044820152606401610369565b6000610d0e826102c4565b604081015190915015610d6f5760405162461bcd60e51b8152602060048201526024808201527f546865205461726765742053686f756c642062652043617264616e6f20436861604482015263034b710960e51b6064820152608401610369565b606081015180610dc15760405162461bcd60e51b815260206004820152601d60248201527f416d6f756e74206d7573742062652067726561746572207468616e20300000006044820152606401610369565b6003546040516370a0823160e01b81523060048201526000916001600160a01b0316906370a0823190602401602060405180830381865afa158015610e0a573d6000803e3d6000fd5b505050506040513d601f19601f82011682018060405250810190610e2e91906127e0565b600354909150610e49906001600160a01b031633308561139d565b6003546040516370a0823160e01b81523060048201526000916001600160a01b0316906370a0823190602401602060405180830381865afa158015610e92573d6000803e3d6000fd5b505050506040513d601f19601f82011682018060405250810190610eb691906127e0565b90506000610ec483836127f9565b9050610f6060065460058054610ed9906127a6565b80601f0160208091040260200160405190810160405280929190818152602001828054610f05906127a6565b8015610f525780601f10610f2757610100808354040283529160200191610f52565b820191906000526020600020905b815481529060010190602001808311610f3557829003601f168201915b50505050506007548961140e565b506006546040518281523391907f74c9a17e92c3111fbb591167236463f0bb9c9e1ad176ee0604f5e27a2b25dee69060200160405180910390a3505050505050565b60048054610faf906127a6565b80601f0160208091040260200160405190810160405280929190818152602001828054610fdb906127a6565b80156110285780601f10610ffd57610100808354040283529160200191611028565b820191906000526020600020905b81548152906001019060200180831161100b57829003601f168201915b505050505081565b60058054610faf906127a6565b611045611317565b61104f6000611493565b565b611059611317565b6004611065828261285a565b5060068290556004805461110391849161107e906127a6565b80601f01602080910402602001604051908101604052809291908181526020018280546110aa906127a6565b80156110f75780601f106110cc576101008083540402835291602001916110f7565b820191906000526020600020905b8154815290600101906020018083116110da57829003601f168201915b505050505060016114e3565b7f97e0f44985abc8800d4148065ffa0513f2fbbfb662ceaba128071ca29034d37060046040516111339190612919565b60405180910390a15050565b6001546001600160a01b031633146111b15760405162461bcd60e51b815260206004820152602f60248201527f576d624170703a204f6e6c7920574d4220676174657761792063616e2063616c60448201526e36103a3434b990333ab731ba34b7b760891b6064820152608401610369565b6000828152600260205260409081902090516111ce9083906129a4565b9081526040519081900360200190205460ff1661122d5760405162461bcd60e51b815260206004820152601d60248201527f576d624170703a2052656d6f7465206973206e6f7420747275737465640000006044820152606401610369565b61123a8585858585611564565b5050505050565b611249611317565b6005611255828261285a565b5060068290556005805461126e91849161107e906127a6565b7f97e0f44985abc8800d4148065ffa0513f2fbbfb662ceaba128071ca29034d37060056040516111339190612919565b6112a6611317565b6001600160a01b03811661130b5760405162461bcd60e51b815260206004820152602660248201527f4f776e61626c653a206e6577206f776e657220697320746865207a65726f206160448201526564647265737360d01b6064820152608401610369565b61131481611493565b50565b6000546001600160a01b0316331461104f5760405162461bcd60e51b815260206004820181905260248201527f4f776e61626c653a2063616c6c6572206973206e6f7420746865206f776e65726044820152606401610369565b611379612400565b6040805180820190915282815260006020820152611396816116a4565b9392505050565b6040516001600160a01b03808516602483015283166044820152606481018290526114089085906323b872dd60e01b906084015b60408051601f198184030181529190526020810180516001600160e01b03166001600160e01b031990931692909217909152611853565b50505050565b600154604051637ea6842760e11b81526000916001600160a01b03169063fd4d084e906114459088908890889088906004016129c0565b6020604051808303816000875af1158015611464573d6000803e3d6000fd5b505050506040513d601f19601f8201168201806040525081019061148891906127e0565b90505b949350505050565b600080546001600160a01b038381166001600160a01b0319831681178455604051919092169283917f8be0079c531659141344cd1fd0a4f28419497f9722a3daafe3b4186f6b6457e09190a35050565b80600260008581526020019081526020016000208360405161150591906129a4565b908152604051908190036020018120805492151560ff19909316929092179091557f38524fadd14ddab834bd25bb68ab7b81540e7f020acba13d8392c07934e934d290611557908590859085906129f1565b60405180910390a1505050565b60006115a586868080601f0160208091040260200160405190810160405280939291908181526020018383808284376000920191909152506102c492505050565b905080604001511515600115151461160b5760405162461bcd60e51b8152602060048201526024808201527f546865205461726765742053686f756c642062652045564d20436861696e54796044820152630383290960e51b6064820152608401610369565b6060810151602082015160009061162190612a1c565b60035460609190911c9150611640906001600160a01b0316828461192d565b806001600160a01b03168460405161165891906129a4565b6040518091039020867f0413562ea8a2242e43e5a3ac57769f8edda06a389d8fb33ae3668e0843af5a5f8560405161169291815260200190565b60405180910390a45050505050505050565b6116ac612400565b8151516020830151106116f55760405162461bcd60e51b8152602060048201526011602482015270496e73756666696369656e74206461746160781b6044820152606401610369565b600082600001518360200151815181106117115761171161274b565b01602090810151908401805160f89290921c925061172e8261278d565b90525060006007600583901c81169081111561174c5761174c612761565b9050601f8216600082600781111561176657611766612761565b14806117835750600182600781111561178157611781612761565b145b1561179c5761179385838361195d565b95945050505050565b60028260078111156117b0576117b0612761565b14806117cd575060038260078111156117cb576117cb612761565b145b156117dd576117938583836119ef565b60048260078111156117f1576117f1612761565b148061180e5750600582600781111561180c5761180c612761565b145b1561181e57611793858383611bad565b600682600781111561183257611832612761565b03611841576117938582611d65565b6117938582611db7565b505050919050565b60006118a8826040518060400160405280602081526020017f5361666545524332303a206c6f772d6c6576656c2063616c6c206661696c6564815250856001600160a01b0316611dd29092919063ffffffff16565b90508051600014806118c95750808060200190518101906118c99190612a54565b6119285760405162461bcd60e51b815260206004820152602a60248201527f5361666545524332303a204552433230206f7065726174696f6e20646964206e6044820152691bdd081cdd58d8d9595960b21b6064820152608401610369565b505050565b6040516001600160a01b03831660248201526044810182905261192890849063a9059cbb60e01b906064016113d1565b611965612400565b60006119718584611de1565b90506001600160401b038116611985612400565b8086600781111561199857611998612761565b908160078111156119ab576119ab612761565b90525060018660078111156119c2576119c2612761565b036119dd576119d3826000196127f9565b60408201526119e5565b604081018290525b9695505050505050565b6119f7612400565b6000611a038584611de1565b9050846000015151816001600160401b03168660200151611a249190612a76565b1115611a675760405162461bcd60e51b815260206004820152601260248201527144617461206f7574206f6620626f756e647360701b6044820152606401610369565b611a6f612400565b80856007811115611a8257611a82612761565b90816007811115611a9557611a95612761565b815250506000826001600160401b03166001600160401b03811115611abc57611abc612449565b6040519080825280601f01601f191660200182016040528015611ae6576020820181803683370190505b50905060005b836001600160401b0316816001600160401b03161015611b805787516020890151611b21906001600160401b03841690612a76565b81518110611b3157611b3161274b565b602001015160f81c60f81b82826001600160401b031681518110611b5757611b5761274b565b60200101906001600160f81b031916908160001a90535080611b7881612a89565b915050611aec565b50826001600160401b031687602001818151611b9c9190612a76565b905250602082015295945050505050565b611bb5612400565b6000611bc18584611de1565b9050611bcb612400565b80856007811115611bde57611bde612761565b90816007811115611bf157611bf1612761565b9052506004856007811115611c0857611c08612761565b036117935767fffffffffffffffe196001600160401b03831601611c98575b8551516020870151108015611c5b57508551602087015181518110611c4e57611c4e61274b565b60209101015160f81c60ff145b15611c785760208601805190611c708261278d565b905250611793565b611c8e8160600151611c89886116a4565b6121a5565b6060820152611c27565b816001600160401b03166001600160401b03811115611cb957611cb9612449565b604051908082528060200260200182016040528015611cf257816020015b611cdf612400565b815260200190600190039081611cd75790505b50606082015260005b826001600160401b0316816001600160401b03161015611d5b57611d1e876116a4565b8260600151826001600160401b031681518110611d3d57611d3d61274b565b60200260200101819052508080611d5390612a89565b915050611cfb565b5095945050505050565b611d6d612400565b6000611d798484611de1565b9050611d83612400565b600681526001600160401b03821660808201526060810151611da890611c89876116a4565b60608201529150505b92915050565b611dbf612400565b611dc7612400565b600781529392505050565b606061148b8484600085612287565b600060188260ff161015611df9575060ff8116611db1565b8160ff16601803611e3757825160208401805190611e168261278d565b905281518110611e2857611e2861274b565b016020015160f81c9050611db1565b8160ff16601903611ecb5782516020840151611e54906001612a76565b81518110611e6457611e6461274b565b602001015160f81c60f81b60f81c60ff1660088460000151856020015181518110611e9157611e9161274b565b602001015160f81c60f81b60f81c60ff166001600160401b0316901b179050600283602001818151611ec39190612a76565b905250611db1565b8160ff16601a03611fbf5782516020840151611ee8906003612a76565b81518110611ef857611ef861274b565b0160209081015184519185015160f89190911c91600891611f1a906002612a76565b81518110611f2a57611f2a61274b565b0160209081015186519187015160f89190911c90921b9160109190611f50906001612a76565b81518110611f6057611f6061274b565b01602090810151875191880151825160f89290921c90931b92601892918110611f8b57611f8b61274b565b602001015160f81c60f81b60f81c60ff166001600160401b0316901b1717179050600483602001818151611ec39190612a76565b8160ff16601b0361218c5782516020840151611fdc906007612a76565b81518110611fec57611fec61274b565b0160209081015184519185015160f89190911c9160089161200e906006612a76565b8151811061201e5761201e61274b565b0160209081015186519187015160f89190911c90921b9160109190612044906005612a76565b815181106120545761205461274b565b0160209081015187519188015160f89190911c90921b916018919061207a906004612a76565b8151811061208a5761208a61274b565b0160209081015188518983015160f89290921c90931b92906120ad906003612a76565b815181106120bd576120bd61274b565b016020908101518951918a015160f89190911c90921b91602891906120e3906002612a76565b815181106120f3576120f361274b565b016020908101518a51918b015160f89190911c90921b9160309190612119906001612a76565b815181106121295761212961274b565b016020908101518b51918c0151825160f89290921c90931b926038929181106121545761215461274b565b602001015160f81c60f81b60f81c60ff166001600160401b0316901b171717171717179050600883602001818151611ec39190612a76565b8160ff16601f03611db157506001600160401b03611db1565b60606000835160016121b79190612a76565b6001600160401b038111156121ce576121ce612449565b60405190808252806020026020018201604052801561220757816020015b6121f4612400565b8152602001906001900390816121ec5790505b50905060005b8451811015612260578481815181106122285761222861274b565b60200260200101518282815181106122425761224261274b565b602002602001018190525080806122589061278d565b91505061220d565b5082818551815181106122755761227561274b565b60209081029190910101529392505050565b6060824710156122e85760405162461bcd60e51b815260206004820152602660248201527f416464726573733a20696e73756666696369656e742062616c616e636520666f6044820152651c8818d85b1b60d21b6064820152608401610369565b600080866001600160a01b0316858760405161230491906129a4565b60006040518083038185875af1925050503d8060008114612341576040519150601f19603f3d011682016040523d82523d6000602084013e612346565b606091505b509150915061235787838387612362565b979650505050505050565b606083156123d15782516000036123ca576001600160a01b0385163b6123ca5760405162461bcd60e51b815260206004820152601d60248201527f416464726573733a2063616c6c20746f206e6f6e2d636f6e74726163740000006044820152606401610369565b508161148b565b61148b83838151156123e65781518083602001fd5b8060405162461bcd60e51b81526004016103699190612668565b6040805160a081019091528060008152602001606081526020016000815260200160608152602001600081525090565b60006020828403121561244257600080fd5b5035919050565b634e487b7160e01b600052604160045260246000fd5b600082601f83011261247057600080fd5b81356001600160401b038082111561248a5761248a612449565b604051601f8301601f19908116603f011681019082821181831017156124b2576124b2612449565b816040528381528660208588010111156124cb57600080fd5b836020870160208301376000602085830101528094505050505092915050565b600080604083850312156124fe57600080fd5b8235915060208301356001600160401b0381111561251b57600080fd5b6125278582860161245f565b9150509250929050565b60006020828403121561254357600080fd5b81356001600160401b0381111561255957600080fd5b61148b8482850161245f565b60005b83811015612580578181015183820152602001612568565b50506000910152565b600081518084526125a1816020860160208601612565565b601f01601f19169290920160200192915050565b602081526000825160806020840152805160a0808501526125da610140850182612589565b90506020820151151560c08501526040820151151560e08501526060820151609f19858303016101008601526126108282612589565b60809390930151151561012086015250506020840151838203601f190160408501529061263d8183612589565b9150506040840151612653606085018215159052565b50606084015160808401528091505092915050565b6020815260006113966020830184612589565b60008060008060006080868803121561269357600080fd5b85356001600160401b03808211156126aa57600080fd5b818801915088601f8301126126be57600080fd5b8135818111156126cd57600080fd5b8960208285010111156126df57600080fd5b602092830197509550908701359350604087013592506060870135908082111561270857600080fd5b506127158882890161245f565b9150509295509295909350565b60006020828403121561273457600080fd5b81356001600160a01b038116811461139657600080fd5b634e487b7160e01b600052603260045260246000fd5b634e487b7160e01b600052602160045260246000fd5b634e487b7160e01b600052601160045260246000fd5b60006001820161279f5761279f612777565b5060010190565b600181811c908216806127ba57607f821691505b6020821081036127da57634e487b7160e01b600052602260045260246000fd5b50919050565b6000602082840312156127f257600080fd5b5051919050565b81810381811115611db157611db1612777565b601f82111561192857600081815260208120601f850160051c810160208610156128335750805b601f850160051c820191505b818110156128525782815560010161283f565b505050505050565b81516001600160401b0381111561287357612873612449565b6128878161288184546127a6565b8461280c565b602080601f8311600181146128bc57600084156128a45750858301515b600019600386901b1c1916600185901b178555612852565b600085815260208120601f198616915b828110156128eb578886015182559484019460019091019084016128cc565b50858210156129095787850151600019600388901b60f8161c191681555b5050505050600190811b01905550565b600060208083526000845461292d816127a6565b8084870152604060018084166000811461294e576001811461296857612996565b60ff1985168984015283151560051b890183019550612996565b896000528660002060005b8581101561298e5781548b8201860152908301908801612973565b8a0184019650505b509398975050505050505050565b600082516129b6818460208701612565565b9190910192915050565b8481526080602082015260006129d96080830186612589565b84604084015282810360608401526123578185612589565b838152606060208201526000612a0a6060830185612589565b90508215156040830152949350505050565b805160208201516bffffffffffffffffffffffff19808216929190601483101561184b5760149290920360031b82901b161692915050565b600060208284031215612a6657600080fd5b8151801515811461139657600080fd5b80820180821115611db157611db1612777565b60006001600160401b03808316818103612aa557612aa5612777565b600101939250505056fea26469706673582212201fcb05ccfbfbd461f4120d752757d8ef26ea97ff3d20dbe3121c494cae2ec30064736f6c63430008140033",
  "linkReferences": {},
  "deployedLinkReferences": {}
}