{
  "_format": "hh-sol-artifact-1",
  "contractName": "DemoMsgCodec",
  "sourceName": "contracts/solidity-cbor/DemoMsgCodec.sol",
  "abi": [
    {
      "inputs": [
        {
          "internalType": "string",
          "name": "a",
          "type": "string"
        },
        {
          "internalType": "string",
          "name": "b",
          "type": "string"
        }
      ],
      "name": "concatenate",
      "outputs": [
        {
          "internalType": "string",
          "name": "",
          "type": "string"
        }
      ],
      "stateMutability": "pure",
      "type": "function"
    },
    {
      "inputs": [
        {
          "internalType": "bytes",
          "name": "cbor",
          "type": "bytes"
        }
      ],
      "name": "parseToMsg",
      "outputs": [
        {
          "components": [
            {
              "components": [
                {
                  "internalType": "bytes",
                  "name": "paymentKey",
                  "type": "bytes"
                },
                {
                  "internalType": "bool",
                  "name": "isPaymentScipt",
                  "type": "bool"
                },
                {
                  "internalType": "bool",
                  "name": "hasStakeKey",
                  "type": "bool"
                },
                {
                  "internalType": "bytes",
                  "name": "stackeKey",
                  "type": "bytes"
                },
                {
                  "internalType": "bool",
                  "name": "isStakeScript",
                  "type": "bool"
                }
              ],
              "internalType": "struct DemoMsgCodec.AdaAddress",
              "name": "receiverAda",
              "type": "tuple"
            },
            {
              "internalType": "bytes",
              "name": "receiverEvm",
              "type": "bytes"
            },
            {
              "internalType": "bool",
              "name": "isEvmChain",
              "type": "bool"
            },
            {
              "internalType": "uint256",
              "name": "amount",
              "type": "uint256"
            }
          ],
          "internalType": "struct DemoMsgCodec.DemoMsg",
          "name": "msgInfo",
          "type": "tuple"
        }
      ],
      "stateMutability": "pure",
      "type": "function"
    },
    {
      "inputs": [
        {
          "internalType": "bytes",
          "name": "cbor",
          "type": "bytes"
        }
      ],
      "name": "test2",
      "outputs": [
        {
          "components": [
            {
              "components": [
                {
                  "internalType": "bytes",
                  "name": "paymentKey",
                  "type": "bytes"
                },
                {
                  "internalType": "bool",
                  "name": "isPaymentScipt",
                  "type": "bool"
                },
                {
                  "internalType": "bool",
                  "name": "hasStakeKey",
                  "type": "bool"
                },
                {
                  "internalType": "bytes",
                  "name": "stackeKey",
                  "type": "bytes"
                },
                {
                  "internalType": "bool",
                  "name": "isStakeScript",
                  "type": "bool"
                }
              ],
              "internalType": "struct DemoMsgCodec.AdaAddress",
              "name": "receiverAda",
              "type": "tuple"
            },
            {
              "internalType": "bytes",
              "name": "receiverEvm",
              "type": "bytes"
            },
            {
              "internalType": "bool",
              "name": "isEvmChain",
              "type": "bool"
            },
            {
              "internalType": "uint256",
              "name": "amount",
              "type": "uint256"
            }
          ],
          "internalType": "struct DemoMsgCodec.DemoMsg",
          "name": "msgInfo",
          "type": "tuple"
        }
      ],
      "stateMutability": "pure",
      "type": "function"
    }
  ],
  "bytecode": "0x608060405234801561001057600080fd5b50611735806100206000396000f3fe608060405234801561001057600080fd5b50600436106100415760003560e01c806324f09be614610046578063266001d31461006f578063c43c267b1461008f575b600080fd5b610059610054366004611479565b6100a2565b604051610066919061150f565b60405180910390f35b61008261007d3660046115e2565b6106e9565b6040516100669190611645565b61005961009d366004611479565b610821565b6100aa611372565b60006100b583610886565b90508060600151516001146101115760405162461bcd60e51b815260206004820152601960248201527f63622e617272617956616c75652e6c656e677468203d3d20310000000000000060448201526064015b60405180910390fd5b6000816060015160008151811061012a5761012a611658565b60200260200101519050600460078111156101475761014761166e565b8151600781111561015a5761015a61166e565b146101c25760405162461bcd60e51b815260206004820152603260248201527f6669656c64732e6d616a6f7254797065203d3d20524643383934394465636f6460448201527165722e4d616a6f72547970652e417272617960701b6064820152608401610108565b8060600151516002146102235760405162461bcd60e51b815260206004820152602360248201527f6572726f72206669656c64732e617272617956616c75652e6c656e677468203d6044820152621e901960e91b6064820152608401610108565b6000816060015160008151811061023c5761023c611658565b6020026020010151905080608001516079148061025d57508060800151607a145b6102a95760405162461bcd60e51b815260206004820152601760248201527f746167206e65697468657220313231206e6f72203132320000000000000000006044820152606401610108565b8060600151516001146103085760405162461bcd60e51b815260206004820152602160248201527f6d7367416464726573732e617272617956616c75652e6c656e677468203d3d206044820152603160f81b6064820152608401610108565b608081015160791460408501526060810151805160009190829061032e5761032e611658565b6020026020010151905080606001515160011461039d5760405162461bcd60e51b815260206004820152602760248201527f6d7367416464726573734669656c64732e617272617956616c75652e6c656e676044820152667468203d3d203160c81b6064820152608401610108565b600081606001516000815181106103b6576103b6611658565b602002602001015190508560400151156104a5576002815160078111156103df576103df61166e565b146104495760405162461bcd60e51b815260206004820152603460248201527f72656365697665722e6d616a6f7254797065203d3d20524643383934394465636044820152736f6465722e4d616a6f72547970652e427974657360601b6064820152608401610108565b601481602001515110156104965760405162461bcd60e51b81526020600482015260146024820152730e4cac6cad2eccae45cc8c2e8c25cd8cadccee8d60631b6044820152606401610108565b602080820151908701526105fb565b6006815160078111156104ba576104ba61166e565b146105225760405162461bcd60e51b815260206004820152603260248201527f72656365697665722e6d616a6f7254797065203d3d20524643383934394465636044820152716f6465722e4d616a6f72547970652e54616760701b6064820152608401610108565b8060600151516001146105775760405162461bcd60e51b815260206004820152601f60248201527f72656365697665722e617272617956616c75652e6c656e677468203d3d2031006044820152606401610108565b6000816060015160008151811061059057610590611658565b602002602001015190508060600151516002146105f95760405162461bcd60e51b815260206004820152602160248201527f616461416464726573732e617272617956616c75652e6c656e677468203d3d206044820152601960f91b6064820152608401610108565b505b6000846060015160018151811061061457610614611658565b60200260200101516000015160078111156106315761063161166e565b146106b35760405162461bcd60e51b815260206004820152604660248201527f6669656c64732e617272617956616c75655b315d2e6d616a6f7254797065203d60448201527f3d20524643383934394465636f6465722e4d616a6f72547970652e556e7369676064820152651b9959125b9d60d21b608482015260a401610108565b83606001516001815181106106ca576106ca611658565b6020026020010151604001518660600181815250505050505050919050565b815181516060919060006106fd828461169a565b6001600160401b03811115610714576107146113ee565b6040519080825280601f01601f19166020018201604052801561073e576020820181803683370190505b50905060005b838110156107a45786818151811061075e5761075e611658565b602001015160f81c60f81b82828151811061077b5761077b611658565b60200101906001600160f81b031916908160001a9053508061079c816116ad565b915050610744565b5060005b82811015610815578581815181106107c2576107c2611658565b01602001516001600160f81b031916826107dc838761169a565b815181106107ec576107ec611658565b60200101906001600160f81b031916908160001a9053508061080d816116ad565b9150506107a8565b50925050505b92915050565b610829611372565b600061083483610886565b9050806060015160008151811061084d5761084d611658565b60200260200101516060015160018151811061086b5761086b611658565b60200260200101516040015182606001818152505050919050565b61088e6113be565b60408051808201909152828152600060208201526108ab816108b2565b9392505050565b6108ba6113be565b8151516020830151106109035760405162461bcd60e51b8152602060048201526011602482015270496e73756666696369656e74206461746160781b6044820152606401610108565b6000826000015183602001518151811061091f5761091f611658565b01602090810151908401805160f89290921c925061093c826116ad565b90525060006007600583901c81169081111561095a5761095a61166e565b9050601f821660008260078111156109745761097461166e565b14806109915750600182600781111561098f5761098f61166e565b145b156109aa576109a1858383610a59565b95945050505050565b60028260078111156109be576109be61166e565b14806109db575060038260078111156109d9576109d961166e565b145b156109eb576109a1858383610aeb565b60048260078111156109ff576109ff61166e565b1480610a1c57506005826007811115610a1a57610a1a61166e565b145b15610a2c576109a1858383610ca9565b6006826007811115610a4057610a4061166e565b03610a4f576109a18582610e61565b6109a18582610eb1565b610a616113be565b6000610a6d8584610ecc565b90506001600160401b038116610a816113be565b80866007811115610a9457610a9461166e565b90816007811115610aa757610aa761166e565b9052506001866007811115610abe57610abe61166e565b03610ad957610acf826000196116c6565b6040820152610ae1565b604081018290525b9695505050505050565b610af36113be565b6000610aff8584610ecc565b9050846000015151816001600160401b03168660200151610b20919061169a565b1115610b635760405162461bcd60e51b815260206004820152601260248201527144617461206f7574206f6620626f756e647360701b6044820152606401610108565b610b6b6113be565b80856007811115610b7e57610b7e61166e565b90816007811115610b9157610b9161166e565b815250506000826001600160401b03166001600160401b03811115610bb857610bb86113ee565b6040519080825280601f01601f191660200182016040528015610be2576020820181803683370190505b50905060005b836001600160401b0316816001600160401b03161015610c7c5787516020890151610c1d906001600160401b0384169061169a565b81518110610c2d57610c2d611658565b602001015160f81c60f81b82826001600160401b031681518110610c5357610c53611658565b60200101906001600160f81b031916908160001a90535080610c74816116d9565b915050610be8565b50826001600160401b031687602001818151610c98919061169a565b905250602082015295945050505050565b610cb16113be565b6000610cbd8584610ecc565b9050610cc76113be565b80856007811115610cda57610cda61166e565b90816007811115610ced57610ced61166e565b9052506004856007811115610d0457610d0461166e565b036109a15767fffffffffffffffe196001600160401b03831601610d94575b8551516020870151108015610d5757508551602087015181518110610d4a57610d4a611658565b60209101015160f81c60ff145b15610d745760208601805190610d6c826116ad565b9052506109a1565b610d8a8160600151610d85886108b2565b611290565b6060820152610d23565b816001600160401b03166001600160401b03811115610db557610db56113ee565b604051908082528060200260200182016040528015610dee57816020015b610ddb6113be565b815260200190600190039081610dd35790505b50606082015260005b826001600160401b0316816001600160401b03161015610e5757610e1a876108b2565b8260600151826001600160401b031681518110610e3957610e39611658565b60200260200101819052508080610e4f906116d9565b915050610df7565b5095945050505050565b610e696113be565b6000610e758484610ecc565b9050610e7f6113be565b600681526001600160401b03821660808201526060810151610ea490610d85876108b2565b6060820152949350505050565b610eb96113be565b610ec16113be565b600781529392505050565b600060188260ff161015610ee4575060ff811661081b565b8160ff16601803610f2257825160208401805190610f01826116ad565b905281518110610f1357610f13611658565b016020015160f81c905061081b565b8160ff16601903610fb65782516020840151610f3f90600161169a565b81518110610f4f57610f4f611658565b602001015160f81c60f81b60f81c60ff1660088460000151856020015181518110610f7c57610f7c611658565b602001015160f81c60f81b60f81c60ff166001600160401b0316901b179050600283602001818151610fae919061169a565b90525061081b565b8160ff16601a036110aa5782516020840151610fd390600361169a565b81518110610fe357610fe3611658565b0160209081015184519185015160f89190911c9160089161100590600261169a565b8151811061101557611015611658565b0160209081015186519187015160f89190911c90921b916010919061103b90600161169a565b8151811061104b5761104b611658565b01602090810151875191880151825160f89290921c90931b9260189291811061107657611076611658565b602001015160f81c60f81b60f81c60ff166001600160401b0316901b1717179050600483602001818151610fae919061169a565b8160ff16601b0361127757825160208401516110c790600761169a565b815181106110d7576110d7611658565b0160209081015184519185015160f89190911c916008916110f990600661169a565b8151811061110957611109611658565b0160209081015186519187015160f89190911c90921b916010919061112f90600561169a565b8151811061113f5761113f611658565b0160209081015187519188015160f89190911c90921b916018919061116590600461169a565b8151811061117557611175611658565b0160209081015188518983015160f89290921c90931b929061119890600361169a565b815181106111a8576111a8611658565b016020908101518951918a015160f89190911c90921b91602891906111ce90600261169a565b815181106111de576111de611658565b016020908101518a51918b015160f89190911c90921b916030919061120490600161169a565b8151811061121457611214611658565b016020908101518b51918c0151825160f89290921c90931b9260389291811061123f5761123f611658565b602001015160f81c60f81b60f81c60ff166001600160401b0316901b171717171717179050600883602001818151610fae919061169a565b8160ff16601f0361081b57506001600160401b0361081b565b60606000835160016112a2919061169a565b6001600160401b038111156112b9576112b96113ee565b6040519080825280602002602001820160405280156112f257816020015b6112df6113be565b8152602001906001900390816112d75790505b50905060005b845181101561134b5784818151811061131357611313611658565b602002602001015182828151811061132d5761132d611658565b60200260200101819052508080611343906116ad565b9150506112f8565b50828185518151811061136057611360611658565b60209081029190910101529392505050565b6040805161012081018252606060808201818152600060a0840181905260c0840181905260e0840183905261010084018190529083526020830182905292820183905281019190915290565b6040805160a081019091528060008152602001606081526020016000815260200160608152602001600081525090565b634e487b7160e01b600052604160045260246000fd5b60006001600160401b038084111561141e5761141e6113ee565b604051601f8501601f19908116603f01168101908282118183101715611446576114466113ee565b8160405280935085815286868601111561145f57600080fd5b858560208301376000602087830101525050509392505050565b60006020828403121561148b57600080fd5b81356001600160401b038111156114a157600080fd5b8201601f810184136114b257600080fd5b6114c184823560208401611404565b949350505050565b6000815180845260005b818110156114ef576020818501810151868301820152016114d3565b506000602082860101526020601f19601f83011685010191505092915050565b602081526000825160806020840152805160a0808501526115346101408501826114c9565b90506020820151151560c08501526040820151151560e08501526060820151609f198583030161010086015261156a82826114c9565b60809390930151151561012086015250506020840151838203601f190160408501529061159781836114c9565b91505060408401516115ad606085018215159052565b50606084015160808401528091505092915050565b600082601f8301126115d357600080fd5b6108ab83833560208501611404565b600080604083850312156115f557600080fd5b82356001600160401b038082111561160c57600080fd5b611618868387016115c2565b9350602085013591508082111561162e57600080fd5b5061163b858286016115c2565b9150509250929050565b6020815260006108ab60208301846114c9565b634e487b7160e01b600052603260045260246000fd5b634e487b7160e01b600052602160045260246000fd5b634e487b7160e01b600052601160045260246000fd5b8082018082111561081b5761081b611684565b6000600182016116bf576116bf611684565b5060010190565b8181038181111561081b5761081b611684565b60006001600160401b038083168181036116f5576116f5611684565b600101939250505056fea2646970667358221220aec73b6e0b96260e3fa871369b1b3e9e26b973427e7da31baa7dd834e34eae0e64736f6c63430008140033",
  "linkReferences": {},
  "deployedLinkReferences": {}
}