{
  "_format": "hh-sol-artifact-1",
  "contractName": "CardanoCBORCodecTest",
  "sourceName": "contracts/test/CardanoCBORCodecTest.sol",
  "abi": [
    {
      "inputs": [
        {
          "internalType": "bytes",
          "name": "data",
          "type": "bytes"
        },
        {
          "internalType": "uint256",
          "name": "idx",
          "type": "uint256"
        }
      ],
      "name": "decodeArrayElemInt",
      "outputs": [
        {
          "internalType": "uint256",
          "name": "",
          "type": "uint256"
        }
      ],
      "stateMutability": "pure",
      "type": "function"
    },
    {
      "inputs": [
        {
          "internalType": "bytes",
          "name": "data",
          "type": "bytes"
        },
        {
          "internalType": "uint256",
          "name": "idx",
          "type": "uint256"
        }
      ],
      "name": "decodeArrayElemMajorType",
      "outputs": [
        {
          "internalType": "uint8",
          "name": "",
          "type": "uint8"
        }
      ],
      "stateMutability": "pure",
      "type": "function"
    },
    {
      "inputs": [
        {
          "internalType": "bytes",
          "name": "data",
          "type": "bytes"
        }
      ],
      "name": "decodeArrayLength",
      "outputs": [
        {
          "internalType": "uint256",
          "name": "",
          "type": "uint256"
        }
      ],
      "stateMutability": "pure",
      "type": "function"
    },
    {
      "inputs": [
        {
          "internalType": "bytes",
          "name": "data",
          "type": "bytes"
        }
      ],
      "name": "decodeData",
      "outputs": [
        {
          "internalType": "bytes",
          "name": "",
          "type": "bytes"
        }
      ],
      "stateMutability": "pure",
      "type": "function"
    },
    {
      "inputs": [
        {
          "internalType": "bytes",
          "name": "data",
          "type": "bytes"
        }
      ],
      "name": "decodeIntValue",
      "outputs": [
        {
          "internalType": "uint256",
          "name": "",
          "type": "uint256"
        }
      ],
      "stateMutability": "pure",
      "type": "function"
    },
    {
      "inputs": [
        {
          "internalType": "bytes",
          "name": "data",
          "type": "bytes"
        }
      ],
      "name": "decodeMajorType",
      "outputs": [
        {
          "internalType": "uint8",
          "name": "",
          "type": "uint8"
        }
      ],
      "stateMutability": "pure",
      "type": "function"
    },
    {
      "inputs": [
        {
          "internalType": "bytes",
          "name": "data",
          "type": "bytes"
        }
      ],
      "name": "decodeTagNumber",
      "outputs": [
        {
          "internalType": "uint256",
          "name": "",
          "type": "uint256"
        }
      ],
      "stateMutability": "pure",
      "type": "function"
    },
    {
      "inputs": [
        {
          "internalType": "bytes",
          "name": "data",
          "type": "bytes"
        }
      ],
      "name": "decodeTaggedItemArrayLength",
      "outputs": [
        {
          "internalType": "uint256",
          "name": "",
          "type": "uint256"
        }
      ],
      "stateMutability": "pure",
      "type": "function"
    },
    {
      "inputs": [
        {
          "internalType": "bytes",
          "name": "data",
          "type": "bytes"
        }
      ],
      "name": "decodeTaggedItemMajorType",
      "outputs": [
        {
          "internalType": "uint8",
          "name": "",
          "type": "uint8"
        }
      ],
      "stateMutability": "pure",
      "type": "function"
    },
    {
      "inputs": [
        {
          "internalType": "bool",
          "name": "value",
          "type": "bool"
        }
      ],
      "name": "encodeBool",
      "outputs": [
        {
          "internalType": "bytes",
          "name": "",
          "type": "bytes"
        }
      ],
      "stateMutability": "pure",
      "type": "function"
    },
    {
      "inputs": [
        {
          "internalType": "bytes",
          "name": "data",
          "type": "bytes"
        }
      ],
      "name": "encodeBytes",
      "outputs": [
        {
          "internalType": "bytes",
          "name": "",
          "type": "bytes"
        }
      ],
      "stateMutability": "pure",
      "type": "function"
    },
    {
      "inputs": [
        {
          "internalType": "uint256",
          "name": "n",
          "type": "uint256"
        }
      ],
      "name": "encodeDecodeUint",
      "outputs": [
        {
          "internalType": "uint256",
          "name": "",
          "type": "uint256"
        }
      ],
      "stateMutability": "pure",
      "type": "function"
    },
    {
      "inputs": [
        {
          "internalType": "int256",
          "name": "value",
          "type": "int256"
        }
      ],
      "name": "encodeInt",
      "outputs": [
        {
          "internalType": "bytes",
          "name": "",
          "type": "bytes"
        }
      ],
      "stateMutability": "pure",
      "type": "function"
    },
    {
      "inputs": [],
      "name": "encodeNull",
      "outputs": [
        {
          "internalType": "bytes",
          "name": "",
          "type": "bytes"
        }
      ],
      "stateMutability": "pure",
      "type": "function"
    },
    {
      "inputs": [
        {
          "internalType": "string",
          "name": "str",
          "type": "string"
        }
      ],
      "name": "encodeString",
      "outputs": [
        {
          "internalType": "bytes",
          "name": "",
          "type": "bytes"
        }
      ],
      "stateMutability": "pure",
      "type": "function"
    },
    {
      "inputs": [
        {
          "internalType": "uint256",
          "name": "value",
          "type": "uint256"
        }
      ],
      "name": "encodeUint",
      "outputs": [
        {
          "internalType": "bytes",
          "name": "",
          "type": "bytes"
        }
      ],
      "stateMutability": "pure",
      "type": "function"
    },
    {
      "inputs": [
        {
          "internalType": "bytes",
          "name": "data",
          "type": "bytes"
        }
      ],
      "name": "roundtrip",
      "outputs": [
        {
          "internalType": "bytes",
          "name": "",
          "type": "bytes"
        }
      ],
      "stateMutability": "pure",
      "type": "function"
    }
  ],
  "bytecode": "0x608060405234801561001057600080fd5b50612688806100206000396000f3fe608060405234801561001057600080fd5b506004361061010b5760003560e01c80638b7e68cc116100a2578063caf322e611610071578063caf322e61461021f578063d30c0a6414610232578063e334f32e14610245578063e3ac07f514610258578063feb1cc891461026b57600080fd5b80638b7e68cc146101d3578063ae598803146101e6578063afa545d6146101f9578063c73224db1461020c57600080fd5b806356a12871116100de57806356a12871146101845780636a168cbd1461018c57806375b8de151461019f5780637cdf4a87146101b257600080fd5b806305d225631461011057806316163c891461013957806320b32d5e1461014c578063447a06f514610171575b600080fd5b61012361011e36600461237e565b61027e565b60405161013091906123b2565b60405180910390f35b610123610147366004612400565b61029d565b61015f61015a36600461237e565b6102ae565b60405160ff9091168152602001610130565b61012361017f36600461237e565b6102d0565b6101236102e8565b61015f61019a366004612422565b6102f7565b6101236101ad366004612466565b610340565b6101c56101c036600461237e565b61034b565b604051908152602001610130565b6101c56101e136600461237e565b610363565b6101c56101f436600461237e565b61037a565b6101c5610207366004612422565b610391565b61015f61021a36600461237e565b6103ca565b6101c561022d36600461237e565b61040c565b610123610240366004612466565b610446565b61012361025336600461247f565b610451565b61012361026636600461237e565b61045c565b6101c5610279366004612466565b610467565b6060600061028b8361048c565b9050610296816104b1565b9392505050565b60606102a882610519565b92915050565b6000806102ba8361048c565b80519091506007811115610296576102966124c7565b606060006102dd8361048c565b602001519392505050565b60606102f2610547565b905090565b6000806103038461048c565b90508060600151838151811061031b5761031b6124dd565b6020026020010151600001516007811115610338576103386124c7565b949350505050565b60606102a88261056b565b6000806103578361048c565b60600151519392505050565b60008061036f8361048c565b608001519392505050565b6000806103868361048c565b604001519392505050565b60008061039d8461048c565b9050806060015183815181106103b5576103b56124dd565b60200260200101516040015191505092915050565b6000806103d68361048c565b905080606001516000815181106103ef576103ef6124dd565b6020026020010151600001516007811115610296576102966124c7565b6000806104188361048c565b90508060600151600081518110610431576104316124dd565b60200260200101516060015151915050919050565b60606102a8826105b4565b60606102a8826105d2565b60606102a882610606565b600080610473836105b4565b905060006104808261048c565b60400151949350505050565b6104946122a3565b604080518082019091528281526000602082015261029681610618565b60606000604051806020016040528060006001600160401b038111156104d9576104d96122d3565b6040519080825280601f01601f191660200182016040528015610503576020820181803683370190505b509052905061051281846107c4565b5192915050565b60606105236122a3565b6007815282610533576000610536565b60015b60ff166040820152610296816104b1565b60606105516122a3565b6007815260006040820152610565816104b1565b91505090565b60606105756122a3565b6000831261058d5760008152604081018390526105ab565b600180825261059b84612509565b6105a59190612525565b60408201525b610296816104b1565b60606105be6122a3565b6000815260408101839052610296816104b1565b60606105dc6122a3565b8060035b908160078111156105f3576105f36124c7565b90525060208101839052610296816104b1565b60606106106122a3565b8060026105e0565b6106206122a3565b81515160208301511061066e5760405162461bcd60e51b8152602060048201526011602482015270496e73756666696369656e74206461746160781b60448201526064015b60405180910390fd5b6000826000015183602001518151811061068a5761068a6124dd565b01602090810151908401805160f89290921c92506106a782612538565b90525060006007600583901c8116908111156106c5576106c56124c7565b9050601f821660008260078111156106df576106df6124c7565b14806106fc575060018260078111156106fa576106fa6124c7565b145b156107155761070c858383610ee4565b95945050505050565b6002826007811115610729576107296124c7565b148061074657506003826007811115610744576107446124c7565b145b156107565761070c858383610f89565b600482600781111561076a5761076a6124c7565b148061078757506005826007811115610785576107856124c7565b145b156107975761070c858383611147565b60068260078111156107ab576107ab6124c7565b036107ba5761070c85826114c8565b61070c8582611561565b6000815160078111156107d9576107d96124c7565b036107f2576107ee826000836040015161187f565b5050565b600181516007811115610807576108076124c7565b0361081c576107ee826001836040015161187f565b600281516007811115610831576108316124c7565b0361093f576000600560025b60ff16901b9050600082602001515190506018816001600160401b031610156108715761086c84828417611b04565b61092b565b60ff816001600160401b0316116108995761088f8483601817611b04565b61086c8482611b04565b61ffff816001600160401b0316116108d0576108b88483601917611b04565b61086c846108cb8361ffff166002611bf9565b611cc5565b63ffffffff816001600160401b031611610906576108f18483601a17611b04565b61086c846108cb8363ffffffff166004611bf9565b6109138483601b17611b04565b61092b846108cb836001600160401b03166008611bf9565b610939848460200151611cc5565b50505050565b600381516007811115610954576109546124c7565b036109645760006005600361083d565b600481516007811115610979576109796124c7565b03610aaf5760608101515160809060186001600160401b03821610156109aa576109a584828417611b04565b610a5f565b60ff816001600160401b0316116109d2576109c88483601817611b04565b6109a58482611b04565b61ffff816001600160401b031611610a04576109f18483601917611b04565b6109a5846108cb8361ffff166002611bf9565b63ffffffff816001600160401b031611610a3a57610a258483601a17611b04565b6109a5846108cb8363ffffffff166004611bf9565b610a478483601b17611b04565b610a5f846108cb836001600160401b03166008611bf9565b60005b836060015151811015610aa857610a968585606001518381518110610a8957610a896124dd565b60200260200101516107c4565b80610aa081612538565b915050610a62565b5050505050565b600581516007811115610ac457610ac46124c7565b03610c1d5760608101515160a090600090610ae190600290612551565b90506018816001600160401b03161015610b0657610b0184828417611b04565b610bbb565b60ff816001600160401b031611610b2e57610b248483601817611b04565b610b018482611b04565b61ffff816001600160401b031611610b6057610b4d8483601917611b04565b610b01846108cb8361ffff166002611bf9565b63ffffffff816001600160401b031611610b9657610b818483601a17611b04565b610b01846108cb8363ffffffff166004611bf9565b610ba38483601b17611b04565b610bbb846108cb836001600160401b03166008611bf9565b60005b836060015151811015610aa857610be58585606001518381518110610a8957610a896124dd565b610c0b858560600151836001610bfb9190612573565b81518110610a8957610a896124dd565b610c16600282612573565b9050610bbe565b600681516007811115610c3257610c326124c7565b03610d6657608081015160c0906018811015610c5957610c5484828417611b04565b610d40565b60ff8111610c7857610c6e8483601817611b04565b610c548482611b04565b61ffff8111610ca157610c8e8483601917611b04565b610c54846108cb8361ffff166002611bf9565b63ffffffff8111610cce57610cb98483601a17611b04565b610c54846108cb8363ffffffff166004611bf9565b6001600160401b038111610d0157610ce98483601b17611b04565b610c54846108cb836001600160401b03166008611bf9565b60405162461bcd60e51b8152602060048201526014602482015273546167206e756d62657220746f6f206c6172676560601b6044820152606401610665565b6060830151511561093957610939848460600151600081518110610a8957610a896124dd565b600781516007811115610d7b57610d7b6124c7565b036107ee5760208101515160e090600003610e44578160400151600003610dae57610da98360148317611b04565b505050565b8160400151600103610dc757610da98360158317611b04565b8160400151600003610de057610da98360168317611b04565b6020826040015110610e345760405162461bcd60e51b815260206004820152601960248201527f53696d706c652076616c7565206f7574206f662072616e6765000000000000006044820152606401610665565b610da98383604001518317611b04565b816020015151600203610e6357610e5e8360198317611b04565b610ed6565b816020015151600403610e7d57610e5e83601a8317611b04565b816020015151600803610e9757610e5e83601b8317611b04565b60405162461bcd60e51b8152602060048201526014602482015273092dcecc2d8d2c840ccd8dec2e840d8cadccee8d60631b6044820152606401610665565b610da9838360200151611cc5565b610eec6122a3565b6000610ef88584611dfd565b90506001600160401b038116610f0c6122a3565b80866007811115610f1f57610f1f6124c7565b90816007811115610f3257610f326124c7565b9052506001866007811115610f4957610f496124c7565b03610f775781600003610f625760006040820152610f7f565b610f6d600183612525565b6040820152610f7f565b604081018290525b9695505050505050565b610f916122a3565b6000610f9d8584611dfd565b9050846000015151816001600160401b03168660200151610fbe9190612573565b11156110015760405162461bcd60e51b815260206004820152601260248201527144617461206f7574206f6620626f756e647360701b6044820152606401610665565b6110096122a3565b8085600781111561101c5761101c6124c7565b9081600781111561102f5761102f6124c7565b815250506000826001600160401b03166001600160401b03811115611056576110566122d3565b6040519080825280601f01601f191660200182016040528015611080576020820181803683370190505b50905060005b836001600160401b0316816001600160401b0316101561111a57875160208901516110bb906001600160401b03841690612573565b815181106110cb576110cb6124dd565b602001015160f81c60f81b82826001600160401b0316815181106110f1576110f16124dd565b60200101906001600160f81b031916908160001a9053508061111281612586565b915050611086565b50826001600160401b0316876020018181516111369190612573565b905250602082015295945050505050565b61114f6122a3565b600061115b8584611dfd565b90506111656122a3565b80856007811115611178576111786124c7565b9081600781111561118b5761118b6124c7565b90525060048560078111156111a2576111a26124c7565b036112fb5767fffffffffffffffe196001600160401b03831601611232575b8551516020870151101561122d5785516020870151815181106111e6576111e66124dd565b016020015160f81c60ff0361120d576020860180519061120582612538565b90525061070c565b611223816060015161121e88610618565b6121c1565b60608201526111c1565b61070c565b816001600160401b03166001600160401b03811115611253576112536122d3565b60405190808252806020026020018201604052801561128c57816020015b6112796122a3565b8152602001906001900390816112715790505b50606082015260005b826001600160401b0316816001600160401b031610156112f5576112b887610618565b8260600151826001600160401b0316815181106112d7576112d76124dd565b602002602001018190525080806112ed90612586565b915050611295565b5061070c565b67fffffffffffffffe196001600160401b0383160161139f575b8551516020870151101561070c57855160208701518151811061133a5761133a6124dd565b016020015160f81c60ff03611359576020860180519061120582612538565b600061136487610618565b9050600061137188610618565b90506113818360600151836121c1565b6060840181905261139290826121c1565b6060840152506113159050565b6113aa8260026125ac565b6001600160401b03166001600160401b038111156113ca576113ca6122d3565b60405190808252806020026020018201604052801561140357816020015b6113f06122a3565b8152602001906001900390816113e85790505b50606082015260005b826001600160401b0316816001600160401b031610156114be5761142f87610618565b606083015161143f8360026125ac565b6001600160401b031681518110611458576114586124dd565b602002602001018190525061146c87610618565b606083015161147c8360026125ac565b6114879060016125d7565b6001600160401b0316815181106114a0576114a06124dd565b602002602001018190525080806114b690612586565b91505061140c565b5095945050505050565b6114d06122a3565b60006114dc8484611dfd565b90506114e66122a3565b600681526001600160401b0382166080820152604080516001808252818301909252600091602082015b6115186122a3565b81526020019060019003908161151057905050905061153686610618565b81600081518110611549576115496124dd565b60209081029190910101526060820152949350505050565b6115696122a3565b6115716122a3565b6007815260ff83166013190161158d5760006040820152610296565b60141960ff8416016115a55760016040820152610296565b60151960ff8416016115bd5760006040820152610296565b60161960ff8416016115d55760006040820152610296565b60171960ff84160161161b578351602085018051600092916115f682612538565b905281518110611608576116086124dd565b016020015160f81c604083015250610296565b60181960ff84160161170657604080516002808252818301909252600091602082018180368337505086516020880180519394509092915061165c82612538565b90528151811061166e5761166e6124dd565b602001015160f81c60f81b8160008151811061168c5761168c6124dd565b60200101906001600160f81b031916908160001a9053508451602086018051906116b582612538565b9052815181106116c7576116c76124dd565b602001015160f81c60f81b816001815181106116e5576116e56124dd565b60200101906001600160f81b031916908160001a9053506020820152610296565b60191960ff8416016117b45760408051600480825281830190925260009160208201818036833701905050905060005b60048110156117a95785516020870180519061175182612538565b905281518110611763576117636124dd565b602001015160f81c60f81b828281518110611780576117806124dd565b60200101906001600160f81b031916908160001a905350806117a181612538565b915050611736565b506020820152610296565b601a1960ff8416016118575760408051600880825281830190925260009160208201818036833701905050905060005b60088110156117a9578551602087018051906117ff82612538565b905281518110611811576118116124dd565b602001015160f81c60f81b82828151811061182e5761182e6124dd565b60200101906001600160f81b031916908160001a9053508061184f81612538565b9150506117e4565b601e1960ff84160161186f5760006040820152610296565b60ff831660408201529392505050565b60006005836007811115611895576118956124c7565b60ff16901b905060018360078111156118b0576118b06124c7565b036119e1576001600160401b038211156119185760405162461bcd60e51b8152602060048201526024808201527f56616c756520746f6f206c6172676520666f72206e6567617469766520696e7460448201526332b3b2b960e11b6064820152608401610665565b6000611925836001612573565b905060188110156119415761193c85828417611b04565b6119db565b60ff8111611960576119568583601817611b04565b61193c8582611b04565b61ffff8111611989576119768583601917611b04565b61193c856108cb8361ffff166002611bf9565b63ffffffff81116119b6576119a18583601a17611b04565b61193c856108cb8363ffffffff166004611bf9565b6119c38583601b17611b04565b6119db856108cb836001600160401b03166008611bf9565b50610939565b60188210156119fb576119f684838317611b04565b610939565b60ff8211611a1a57611a108482601817611b04565b6119f68483611b04565b61ffff8211611a4357611a308482601917611b04565b6119f6846108cb8461ffff166002611bf9565b63ffffffff8211611a7057611a5b8482601a17611b04565b6119f6846108cb8463ffffffff166004611bf9565b6001600160401b038211611aa357611a8b8482601b17611b04565b6119f6846108cb846001600160401b03166008611bf9565b60405162461bcd60e51b815260206004820152603060248201527f56616c756520746f6f206c6172676520666f722075696e7436342c207573652060448201526f546167203220666f72206269676e756d60801b6064820152608401610665565b815151600090611b15906001612573565b6001600160401b03811115611b2c57611b2c6122d3565b6040519080825280601f01601f191660200182016040528015611b56576020820181803683370190505b50905060005b835151811015611bc0578351805182908110611b7a57611b7a6124dd565b602001015160f81c60f81b828281518110611b9757611b976124dd565b60200101906001600160f81b031916908160001a90535080611bb881612538565b915050611b5c565b508160f81b8184600001515181518110611bdc57611bdc6124dd565b60200101906001600160f81b031916908160001a90535090915250565b606060008260ff166001600160401b03811115611c1857611c186122d3565b6040519080825280601f01601f191660200182016040528015611c42576020820181803683370190505b50905060005b8360ff168160ff161015611cbd57611c618160086125fe565b60ff1685901c60f81b8282611c7760018861261a565b611c81919061261a565b60ff1681518110611c9457611c946124dd565b60200101906001600160f81b031916908160001a90535080611cb581612633565b915050611c48565b509392505050565b8051825151600091611cd691612573565b6001600160401b03811115611ced57611ced6122d3565b6040519080825280601f01601f191660200182016040528015611d17576020820181803683370190505b50905060005b835151811015611d81578351805182908110611d3b57611d3b6124dd565b602001015160f81c60f81b828281518110611d5857611d586124dd565b60200101906001600160f81b031916908160001a90535080611d7981612538565b915050611d1d565b5060005b8251811015611df657828181518110611da057611da06124dd565b602001015160f81c60f81b8282866000015151611dbd9190612573565b81518110611dcd57611dcd6124dd565b60200101906001600160f81b031916908160001a90535080611dee81612538565b915050611d85565b5090915250565b600060188260ff161015611e15575060ff81166102a8565b8160ff16601803611e5357825160208401805190611e3282612538565b905281518110611e4457611e446124dd565b016020015160f81c90506102a8565b8160ff16601903611ee75782516020840151611e70906001612573565b81518110611e8057611e806124dd565b602001015160f81c60f81b60f81c60ff1660088460000151856020015181518110611ead57611ead6124dd565b602001015160f81c60f81b60f81c60ff166001600160401b0316901b179050600283602001818151611edf9190612573565b9052506102a8565b8160ff16601a03611fdb5782516020840151611f04906003612573565b81518110611f1457611f146124dd565b0160209081015184519185015160f89190911c91600891611f36906002612573565b81518110611f4657611f466124dd565b0160209081015186519187015160f89190911c90921b9160109190611f6c906001612573565b81518110611f7c57611f7c6124dd565b01602090810151875191880151825160f89290921c90931b92601892918110611fa757611fa76124dd565b602001015160f81c60f81b60f81c60ff166001600160401b0316901b1717179050600483602001818151611edf9190612573565b8160ff16601b036121a85782516020840151611ff8906007612573565b81518110612008576120086124dd565b0160209081015184519185015160f89190911c9160089161202a906006612573565b8151811061203a5761203a6124dd565b0160209081015186519187015160f89190911c90921b9160109190612060906005612573565b81518110612070576120706124dd565b0160209081015187519188015160f89190911c90921b9160189190612096906004612573565b815181106120a6576120a66124dd565b0160209081015188518983015160f89290921c90931b92906120c9906003612573565b815181106120d9576120d96124dd565b016020908101518951918a015160f89190911c90921b91602891906120ff906002612573565b8151811061210f5761210f6124dd565b016020908101518a51918b015160f89190911c90921b9160309190612135906001612573565b81518110612145576121456124dd565b016020908101518b51918c0151825160f89290921c90931b92603892918110612170576121706124dd565b602001015160f81c60f81b60f81c60ff166001600160401b0316901b171717171717179050600883602001818151611edf9190612573565b8160ff16601f036102a857506001600160401b036102a8565b60606000835160016121d39190612573565b6001600160401b038111156121ea576121ea6122d3565b60405190808252806020026020018201604052801561222357816020015b6122106122a3565b8152602001906001900390816122085790505b50905060005b845181101561227c57848181518110612244576122446124dd565b602002602001015182828151811061225e5761225e6124dd565b6020026020010181905250808061227490612538565b915050612229565b508281855181518110612291576122916124dd565b60209081029190910101529392505050565b6040805160a081019091528060008152602001606081526020016000815260200160608152602001600081525090565b634e487b7160e01b600052604160045260246000fd5b60006001600160401b0380841115612303576123036122d3565b604051601f8501601f19908116603f0116810190828211818310171561232b5761232b6122d3565b8160405280935085815286868601111561234457600080fd5b858560208301376000602087830101525050509392505050565b600082601f83011261236f57600080fd5b610296838335602085016122e9565b60006020828403121561239057600080fd5b81356001600160401b038111156123a657600080fd5b6103388482850161235e565b600060208083528351808285015260005b818110156123df578581018301518582016040015282016123c3565b506000604082860101526040601f19601f8301168501019250505092915050565b60006020828403121561241257600080fd5b8135801515811461029657600080fd5b6000806040838503121561243557600080fd5b82356001600160401b0381111561244b57600080fd5b6124578582860161235e565b95602094909401359450505050565b60006020828403121561247857600080fd5b5035919050565b60006020828403121561249157600080fd5b81356001600160401b038111156124a757600080fd5b8201601f810184136124b857600080fd5b610338848235602084016122e9565b634e487b7160e01b600052602160045260246000fd5b634e487b7160e01b600052603260045260246000fd5b634e487b7160e01b600052601160045260246000fd5b6000600160ff1b820161251e5761251e6124f3565b5060000390565b818103818111156102a8576102a86124f3565b60006001820161254a5761254a6124f3565b5060010190565b60008261256e57634e487b7160e01b600052601260045260246000fd5b500490565b808201808211156102a8576102a86124f3565b60006001600160401b038083168181036125a2576125a26124f3565b6001019392505050565b6001600160401b038181168382160280821691908281146125cf576125cf6124f3565b505092915050565b6001600160401b038181168382160190808211156125f7576125f76124f3565b5092915050565b60ff81811683821602908116908181146125f7576125f76124f3565b60ff82811682821603908111156102a8576102a86124f3565b600060ff821660ff8103612649576126496124f3565b6001019291505056fea26469706673582212209cfee8991ba5a5ccfad95896241ae24af9e6520a969c66b980f74e243c06732b64736f6c63430008140033",
  "linkReferences": {},
  "deployedLinkReferences": {}
}