{
  "_format": "hh-sol-artifact-1",
  "contractName": "DemoTest",
  "sourceName": "contracts/cardano-utils/PlutusData.sol",
  "abi": [
    {
      "inputs": [
        {
          "internalType": "string",
          "name": "addrBetch32",
          "type": "string"
        },
        {
          "internalType": "bool",
          "name": "isTestnet",
          "type": "bool"
        }
      ],
      "name": "addressTest",
      "outputs": [
        {
          "internalType": "bool",
          "name": "",
          "type": "bool"
        }
      ],
      "stateMutability": "pure",
      "type": "function"
    },
    {
      "inputs": [
        {
          "internalType": "string",
          "name": "addrBetch32",
          "type": "string"
        },
        {
          "internalType": "uint64",
          "name": "amount",
          "type": "uint64"
        }
      ],
      "name": "msgTest",
      "outputs": [
        {
          "internalType": "bytes",
          "name": "cbor",
          "type": "bytes"
        },
        {
          "components": [
            {
              "internalType": "address",
              "name": "receiverEvm",
              "type": "address"
            },
            {
              "internalType": "string",
              "name": "receiverAda",
              "type": "string"
            },
            {
              "internalType": "bool",
              "name": "isEvmChain",
              "type": "bool"
            },
            {
              "internalType": "uint64",
              "name": "amount",
              "type": "uint64"
            }
          ],
          "internalType": "struct DemoMsgCodec.DemoMsg",
          "name": "msgInfo",
          "type": "tuple"
        },
        {
          "internalType": "bool",
          "name": "ok",
          "type": "bool"
        }
      ],
      "stateMutability": "pure",
      "type": "function"
    },
    {
      "inputs": [
        {
          "internalType": "bytes",
          "name": "cbor",
          "type": "bytes"
        },
        {
          "internalType": "bool",
          "name": "isTestnet",
          "type": "bool"
        }
      ],
      "name": "msgTest",
      "outputs": [
        {
          "components": [
            {
              "internalType": "address",
              "name": "receiverEvm",
              "type": "address"
            },
            {
              "internalType": "string",
              "name": "receiverAda",
              "type": "string"
            },
            {
              "internalType": "bool",
              "name": "isEvmChain",
              "type": "bool"
            },
            {
              "internalType": "uint64",
              "name": "amount",
              "type": "uint64"
            }
          ],
          "internalType": "struct DemoMsgCodec.DemoMsg",
          "name": "msgInfo",
          "type": "tuple"
        }
      ],
      "stateMutability": "pure",
      "type": "function"
    }
  ],
  "bytecode": "0x608060405234801561001057600080fd5b50615073806100206000396000f3fe608060405234801561001057600080fd5b50600436106100415760003560e01c806308194d9314610046578063a480711314610071578063cb880bf614610094575b600080fd5b610059610054366004614bda565b6100b4565b60405161006893929190614cd5565b60405180910390f35b61008461007f366004614d22565b61017d565b6040519015158152602001610068565b6100a76100a2366004614d6f565b610205565b6040516100689190614db8565b6040805160808101825260008082526060602083018190529282018190528183015260006100e2858561023b565b925060006100ef866102bf565b90506100ff848260000151610558565b9250846001600160401b031683606001516001600160401b031614801561017357506020808401516040516101349201614dcb565b604051602081830303815290604052805190602001208660405160200161015b9190614dcb565b60405160208183030381529060405280519060200120145b9150509250925092565b60008061018984610863565b9050600061019682610881565b8415158152905060006101a8826109ed565b9050806040516020016101bb9190614dcb565b60405160208183030381529060405280519060200120866040516020016101e29190614dcb565b604051602081830303815290604052805190602001201493505050505b92915050565b604080516080810182526000808252606060208301819052928201819052918101919091526102348383610558565b9392505050565b6060600061024b60006002610d0e565b9050600061025a600180610d0e565b9050600061026786610863565b905061027582826000610d8f565b61027d614ab9565b600081819052506001600160401b038616604082015261029f84846000610d8f565b6102ab84826001610d8f565b6102b484610e31565b979650505050505050565b6102c7614ae9565b8160001960005b825181101561031c578281815181106102e9576102e9614dfd565b01602001516001600160f81b031916603160f81b0361030a5780915061031c565b8061031481614e29565b9150506102ce565b5060008112156103685760405162461bcd60e51b8152602060048201526012602482015271139bc81cd95c185c985d1bdc88199bdd5b9960721b60448201526064015b60405180910390fd5b6000816001600160401b0381111561038257610382614b2f565b6040519080825280601f01601f1916602001820160405280156103ac576020820181803683370190505b50905060005b82811015610412578381815181106103cc576103cc614dfd565b602001015160f81c60f81b8282815181106103e9576103e9614dfd565b60200101906001600160f81b031916908160001a9053508061040a81614e29565b9150506103b2565b50600060018385516104249190614e42565b61042e9190614e42565b90506000816001600160401b0381111561044a5761044a614b2f565b6040519080825280601f01601f191660200182016040528015610474576020820181803683370190505b50905060005b828110156104ef57858161048f876001614e55565b6104999190614e55565b815181106104a9576104a9614dfd565b602001015160f81c60f81b8282815181106104c6576104c6614dfd565b60200101906001600160f81b031916908160001a905350806104e781614e29565b91505061047a565b506000806104fd8584610e99565b91509150816105415760405162461bcd60e51b815260206004820152601060248201526f496e76616c696420636865636b73756d60801b604482015260640161035f565b61054b8186611138565b9998505050505050505050565b60408051608081018252600080825260606020830181905292820181905291810182905290610586846118bf565b905060068151600781111561059d5761059d614de7565b146105db5760405162461bcd60e51b815260206004820152600e60248201526d626164206d73672063626f72203160901b604482015260640161035f565b6105e4816118e4565b6002146106245760405162461bcd60e51b815260206004820152600e60248201526d3130b21036b9b39031b137b9101960911b604482015260640161035f565b6000610631826000611a2c565b90506000610640836001611a2c565b905061064b826118e4565b60011461068b5760405162461bcd60e51b815260206004820152600e60248201526d626164206d73672063626f72203360901b604482015260640161035f565b8160800151607914806106a257508160800151607a145b6106df5760405162461bcd60e51b815260206004820152600e60248201526d189859081b5cd9c818d89bdc880d60921b604482015260640161035f565b60006106ec836000611a2c565b9050826080015160790361076c576001604086015260028151600781111561071657610716614de7565b146107545760405162461bcd60e51b815260206004820152600e60248201526d626164206d73672063626f72203560901b604482015260640161035f565b806020015161076290614e68565b60601c85526107f4565b8260800151607a036107f4576000604086015260068151600781111561079457610794614de7565b146107d25760405162461bcd60e51b815260206004820152600e60248201526d3130b21036b9b39031b137b9101b60911b604482015260640161035f565b60006107dd82610881565b871515815290506107ed816109ed565b6020870152505b60008251600781111561080957610809614de7565b146108475760405162461bcd60e51b815260206004820152600e60248201526d626164206d73672063626f72203760901b604482015260640161035f565b50604001516001600160401b0316606084015250909392505050565b61086b614ab9565b6000610876836102bf565b905061023481611b17565b610889614ae9565b60068251600781111561089e5761089e614de7565b146108eb5760405162461bcd60e51b815260206004820152601c60248201527f6e6f7420416461206164647265737320706c7574757344617461203100000000604482015260640161035f565b816080015160791461093f5760405162461bcd60e51b815260206004820152601c60248201527f6e6f7420416461206164647265737320706c7574757344617461203200000000604482015260640161035f565b600061094a836118e4565b90508060021461099c5760405162461bcd60e51b815260206004820152601c60248201527f6e6f7420416461206164647265737320706c7574757344617461203300000000604482015260640161035f565b60006109a9846000611a2c565b905060006109b8856001611a2c565b90506109c382611bce565b1515604086015260808501526109d881611de0565b1515606086015260a085015250919392505050565b606080606060006109fd85611f11565b602086015190915060ff16610b0157846080015151601c148015610a2657508460a0015151601c145b610a7e5760405162461bcd60e51b8152602060048201526024808201527f496e76616c69642068617368206c656e67746820666f722062617365206164646044820152637265737360e01b606482015260840161035f565b8085608001518660a00151604051602001610a9b93929190614ea0565b60405160208183030381529060405291508460000151610ad7576040518060400160405280600481526020016330b2323960e11b815250610afa565b604051806040016040528060098152602001681859191c97dd195cdd60ba1b8152505b9250610cfb565b600660ff16856020015160ff1603610b9157846080015151601c14610b7b5760405162461bcd60e51b815260206004820152602a60248201527f496e76616c69642068617368206c656e67746820666f7220656e7465727072696044820152697365206164647265737360b01b606482015260840161035f565b6080850151604051610a9b918391602001614ee5565b600e60ff16856020015160ff1603610c84578460a0015151601c14610c075760405162461bcd60e51b815260206004820152602660248201527f496e76616c69642068617368206c656e67746820666f7220726577617264206160448201526564647265737360d01b606482015260840161035f565b60a0850151604051610c1d918391602001614ee5565b60405160208183030381529060405291508460000151610c5a57604051806040016040528060058152602001647374616b6560d81b815250610afa565b6040518060400160405280600a8152602001691cdd185ad957dd195cdd60b21b8152509250610cfb565b600460ff16856020015160ff1603610cb3578085608001518660c00151604051602001610a9b93929190614ea0565b60405162461bcd60e51b815260206004820152601860248201527f556e737570706f72746564206164647265737320747970650000000000000000604482015260640161035f565b610d058383611f62565b95945050505050565b610d16614ab9565b60068152610d25836079614e55565b608082015260408051600180825281830190925290816020015b610d47614ab9565b815260200190600190039081610d3f5750506060820152610d67826122c6565b8160600151600081518110610d7e57610d7e614dfd565b602002602001018190525092915050565b600683516007811115610da457610da4614de7565b14610dc15760405162461bcd60e51b815260040161035f90614f14565b826060015151600114610e035760405162461bcd60e51b815260206004820152600a6024820152693130b21031b7b739ba3960b11b604482015260640161035f565b610e2c8360600151600081518110610e1d57610e1d614dfd565b6020026020010151838361232e565b505050565b60606000604051806020016040528060006001600160401b03811115610e5957610e59614b2f565b6040519080825280601f01601f191660200182016040528015610e83576020820181803683370190505b5090529050610e9281846123f8565b5192915050565b60006060600083516001600160401b03811115610eb857610eb8614b2f565b604051908082528060200260200182016040528015610ee1578160200160208202803683370190505b506040805180820190915260208082527f71707a7279397838676632747664773073336a6e35346b686365366d7561376c9082015290915060005b855181101561103a576000805b60208160ff161015610fd957838160ff1681518110610f4a57610f4a614dfd565b602001015160f81c60f81b6001600160f81b031916888481518110610f7157610f71614dfd565b01602001516001600160f81b03191603610fc7578060f81b6001600160f81b031916858481518110610fa557610fa5614dfd565b6001600160d81b03199092166020928302919091019091015260019150610fd9565b80610fd181614f38565b915050610f29565b50806110275760405162461bcd60e51b815260206004820152601e60248201527f496e76616c69642063686172616374657220696e206461746120706172740000604482015260640161035f565b508061103281614e29565b915050610f1c565b506110458683612b13565b9350836110675760408051600080825260208201909252935093505050611131565b6000600683516110779190614e42565b6001600160401b0381111561108e5761108e614b2f565b6040519080825280602002602001820160405280156110b7578160200160208202803683370190505b50905060005b815181101561111d578381815181106110d8576110d8614dfd565b60200260200101518282815181106110f2576110f2614dfd565b6001600160d81b0319909216602092830291909101909101528061111581614e29565b9150506110bd565b5061112781612d46565b9350600194505050505b9250929050565b611140614ae9565b601d835110156111865760405162461bcd60e51b81526020600482015260116024820152701059191c995cdcc81d1bdbc81cda1bdc9d607a1b604482015260640161035f565b61118e614ae9565b60408051808201909152600481526330b2323960e11b60209182015283519084012083907fe5e14487b78f85faa6e1808e89246cf57dd34831548ff2e6097380d98db2504a148061122057506040805180820190915260058152647374616b6560d81b6020918201528151908201207fc3a04795accb4b73d12f13b05a1e0e240cefeb9a89d008676730867a819d2f79145b1561122e576000825261130c565b6040805180820190915260098152681859191c97dd195cdd60ba1b6020918201528151908201207fd1392e889fc01eed092920a32893774162e7daa9869e839a6759b607f9b948ed14806112c8575060408051808201909152600a8152691cdd185ad957dd195cdd60b21b6020918201528151908201207f6a5316640008ed91ef36add9e74b078217dbe91a7c62ee2c0bf8e85bb4d0525b145b156112d6576001825261130c565b60405162461bcd60e51b815260206004820152600b60248201526a0556e6b6e6f776e204852560ac1b604482015260640161035f565b60008560008151811061132157611321614dfd565b0160200151835160f89190911c9150600f8216908015611342575060ff8116155b8061135a5750835115801561135a575060ff81166001145b61139c5760405162461bcd60e51b815260206004820152601360248201527209ccae8eedee4d640928840dad2e6dac2e8c6d606b1b604482015260640161035f565b600482901c600e8116602086018190526001918216909114604086015261154a57865160391461140e5760405162461bcd60e51b815260206004820152601b60248201527f496e76616c696420426173652061646472657373206c656e6774680000000000604482015260640161035f565b6001600383901c811614606085015260408051601c80825281830190925290602082018180368337505050608085015260005b601c8110156114b05787611456826001614e55565b8151811061146657611466614dfd565b602001015160f81c60f81b8560800151828151811061148757611487614dfd565b60200101906001600160f81b031916908160001a905350806114a881614e29565b915050611441565b5060408051601c8082528183019092529060208201818036833750505060a085015260005b601c81101561154457876114ea82601d614e55565b815181106114fa576114fa614dfd565b602001015160f81c60f81b8560a00151828151811061151b5761151b614dfd565b60200101906001600160f81b031916908160001a9053508061153c81614e29565b9150506114d5565b506118b4565b600660ff16846020015160ff160361164a578651601d146115b75760405162461bcd60e51b815260206004820152602160248201527f496e76616c696420456e74657270726973652061646472657373206c656e67746044820152600d60fb1b606482015260840161035f565b60408051601c80825281830190925290602082018180368337505050608085015260005b601c81101561154457876115f0826001614e55565b8151811061160057611600614dfd565b602001015160f81c60f81b8560800151828151811061162157611621614dfd565b60200101906001600160f81b031916908160001a9053508061164281614e29565b9150506115db565b600e60ff16846020015160ff1603611740578651601d146116ad5760405162461bcd60e51b815260206004820152601d60248201527f496e76616c6964205265776172642061646472657373206c656e677468000000604482015260640161035f565b60408051601c8082528183019092529060208201818036833750505060a085015260005b601c81101561154457876116e6826001614e55565b815181106116f6576116f6614dfd565b602001015160f81c60f81b8560a00151828151811061171757611717614dfd565b60200101906001600160f81b031916908160001a9053508061173881614e29565b9150506116d1565b600460ff16846020015160ff1603610cb3576000601d88516117629190614e42565b60408051601c808252818301909252919250602082018180368337505050608086015260005b601c8110156117f7578861179d826001614e55565b815181106117ad576117ad614dfd565b602001015160f81c60f81b866080015182815181106117ce576117ce614dfd565b60200101906001600160f81b031916908160001a905350806117ef81614e29565b915050611788565b50806001600160401b0381111561181057611810614b2f565b6040519080825280601f01601f19166020018201604052801561183a576020820181803683370190505b5060c086015260005b818110156118b1578861185782601d614e55565b8151811061186757611867614dfd565b602001015160f81c60f81b8660c00151828151811061188857611888614dfd565b60200101906001600160f81b031916908160001a905350806118a981614e29565b915050611843565b50505b509195945050505050565b6118c7614ab9565b604080518082019091528281526000602082015261023481612e82565b60006006825160078111156118fb576118fb614de7565b146119185760405162461bcd60e51b815260040161035f90614f14565b8160600151516001146119775760405162461bcd60e51b815260206004820152602160248201527f706c75747573446174612e617272617956616c75652e6c656e677468203d3d206044820152603160f81b606482015260840161035f565b6000826060015160008151811061199057611990614dfd565b60200260200101519050600460078111156119ad576119ad614de7565b815160078111156119c0576119c0614de7565b14611a215760405162461bcd60e51b815260206004820152602b60248201527f66696c6564732e6d616a6f7254797065203d3d20524643383934392e4d616a6f60448201526a72547970652e417272617960a81b606482015260840161035f565b606001515192915050565b611a34614ab9565b600683516007811115611a4957611a49614de7565b14611a665760405162461bcd60e51b815260040161035f90614f14565b60008360600151600081518110611a7f57611a7f614dfd565b602002602001015160600151519050808310611ad25760405162461bcd60e51b81526020600482015260126024820152711a5b99195e081bdd5d081bd988189bdd5b9960721b604482015260640161035f565b8360600151600081518110611ae957611ae9614dfd565b6020026020010151606001518381518110611b0657611b06614dfd565b602002602001015191505092915050565b611b1f614ab9565b6000611b2d60006002610d0e565b602084015190915060ff161580611b4b5750602083015160ff166006145b15611b8f57611b6d81611b6685608001518660400151613028565b6000610d8f565b611b8a81611b838560a00151866060015161307d565b6001610d8f565b6101ff565b60405162461bcd60e51b8152602060048201526014602482015273626164206164612061646472657373207479706560601b604482015260640161035f565b60606000600683516007811115611be757611be7614de7565b14611c345760405162461bcd60e51b815260206004820152601f60248201527f6e6f74204164612063726564656e7469616c20706c7574757344617461203100604482015260640161035f565b826080015160791480611c4b57508260800151607a145b611c975760405162461bcd60e51b815260206004820152601f60248201527f6e6f74204164612063726564656e7469616c20706c7574757344617461203200604482015260640161035f565b6000611ca2846118e4565b905080600114611cf45760405162461bcd60e51b815260206004820152601f60248201527f6e6f74204164612063726564656e7469616c20706c7574757344617461203300604482015260640161035f565b6000611d01856000611a2c565b9050600281516007811115611d1857611d18614de7565b14611d655760405162461bcd60e51b815260206004820152601f60248201527f6e6f74204164612063726564656e7469616c20706c7574757344617461203400604482015260640161035f565b806020015151601c14611dba5760405162461bcd60e51b815260206004820152601f60248201527f6e6f74204164612063726564656e7469616c20706c7574757344617461203500604482015260640161035f565b8460800151607a14611dcd576000611dd0565b60015b9250806020015193505050915091565b60606000600683516007811115611df957611df9614de7565b14611e585760405162461bcd60e51b815260206004820152602960248201527f6e6f7420416461207374616b654d6179626563726564656e7469616c20706c7560448201526874757344617461203160b81b606482015260840161035f565b8260800151607903611ef8576000611e6f846118e4565b905080600114611ed35760405162461bcd60e51b815260206004820152602960248201527f6e6f7420416461207374616b654d6179626563726564656e7469616c20706c756044820152683a3ab9a230ba30901960b91b606482015260840161035f565b6000611ee0856000611a2c565b9050611eeb816130dc565b9094509250611f0c915050565b505060408051600080825260208201909252905b915091565b6000808260000151611f24576001611f27565b60005b6020840151610ff0600482901b16909117915060ff16611f4f57826060015115611f4f576020175b8260400151156101ff5760101792915050565b60606000611f6f836131db565b90506000611f7d8583613366565b9050600082516006611f8f9190614e55565b6001600160401b03811115611fa657611fa6614b2f565b604051908082528060200260200182016040528015611fcf578160200160208202803683370190505b50905060005b835181101561203557838181518110611ff057611ff0614dfd565b602002602001015182828151811061200a5761200a614dfd565b6001600160d81b0319909216602092830291909101909101528061202d81614e29565b915050611fd5565b5060005b60068110156120a55782818151811061205457612054614dfd565b60200260200101518282865161206a9190614e55565b8151811061207a5761207a614dfd565b6001600160d81b0319909216602092830291909101909101528061209d81614e29565b915050612039565b506040805180820190915260208082527f71707a7279397838676632747664773073336a6e35346b686365366d7561376c9082015281518751600091906120ed906001614e55565b6120f79190614e55565b6001600160401b0381111561210e5761210e614b2f565b6040519080825280601f01601f191660200182016040528015612138576020820181803683370190505b50905060005b885181101561219f5788818151811061215957612159614dfd565b602001015160f81c60f81b82828151811061217657612176614dfd565b60200101906001600160f81b031916908160001a9053508061219781614e29565b91505061213e565b50603160f81b818951815181106121b8576121b8614dfd565b60200101906001600160f81b031916908160001a90535060005b83518110156122ba5760008482815181106121ef576121ef614dfd565b602002602001015160f81c905060208160ff16106122455760405162461bcd60e51b8152602060048201526013602482015272496e76616c696420352d6269742076616c756560681b604482015260640161035f565b838160ff168151811061225a5761225a614dfd565b602001015160f81c60f81b83838c5160016122759190614e55565b61227f9190614e55565b8151811061228f5761228f614dfd565b60200101906001600160f81b031916908160001a9053505080806122b290614e29565b9150506121d2565b50979650505050505050565b6122ce614ab9565b60048152816001600160401b038111156122ea576122ea614b2f565b60405190808252806020026020018201604052801561232357816020015b612310614ab9565b8152602001906001900390816123085790505b506060820152919050565b60048351600781111561234357612343614de7565b146123885760405162461bcd60e51b81526020600482015260156024820152746e6f742061206172726179706c757475736461746160581b604482015260640161035f565b80836060015151116123d15760405162461bcd60e51b81526020600482015260126024820152711a5b99195e081bdd5d081bd988189bdd5b9960721b604482015260640161035f565b81836060015182815181106123e8576123e8614dfd565b6020026020010181905250505050565b60008151600781111561240d5761240d614de7565b036124265761242282600083604001516136d4565b5050565b60018151600781111561243b5761243b614de7565b036124505761242282600183604001516136d4565b60028151600781111561246557612465614de7565b03612573576000600560025b60ff16901b9050600082602001515190506018816001600160401b031610156124a5576124a084828417613959565b61255f565b60ff816001600160401b0316116124cd576124c38483601817613959565b6124a08482613959565b61ffff816001600160401b031611612504576124ec8483601917613959565b6124a0846124ff8361ffff166002613a4e565b613b1a565b63ffffffff816001600160401b03161161253a576125258483601a17613959565b6124a0846124ff8363ffffffff166004613a4e565b6125478483601b17613959565b61255f846124ff836001600160401b03166008613a4e565b61256d848460200151613b1a565b50505050565b60038151600781111561258857612588614de7565b0361259857600060056003612471565b6004815160078111156125ad576125ad614de7565b036126e35760608101515160809060186001600160401b03821610156125de576125d984828417613959565b612693565b60ff816001600160401b031611612606576125fc8483601817613959565b6125d98482613959565b61ffff816001600160401b031611612638576126258483601917613959565b6125d9846124ff8361ffff166002613a4e565b63ffffffff816001600160401b03161161266e576126598483601a17613959565b6125d9846124ff8363ffffffff166004613a4e565b61267b8483601b17613959565b612693846124ff836001600160401b03166008613a4e565b60005b8360600151518110156126dc576126ca85856060015183815181106126bd576126bd614dfd565b60200260200101516123f8565b806126d481614e29565b915050612696565b5050505050565b6005815160078111156126f8576126f8614de7565b036128515760608101515160a09060009061271590600290614f57565b90506018816001600160401b0316101561273a5761273584828417613959565b6127ef565b60ff816001600160401b031611612762576127588483601817613959565b6127358482613959565b61ffff816001600160401b031611612794576127818483601917613959565b612735846124ff8361ffff166002613a4e565b63ffffffff816001600160401b0316116127ca576127b58483601a17613959565b612735846124ff8363ffffffff166004613a4e565b6127d78483601b17613959565b6127ef846124ff836001600160401b03166008613a4e565b60005b8360600151518110156126dc5761281985856060015183815181106126bd576126bd614dfd565b61283f85856060015183600161282f9190614e55565b815181106126bd576126bd614dfd565b61284a600282614e55565b90506127f2565b60068151600781111561286657612866614de7565b0361299a57608081015160c090601881101561288d5761288884828417613959565b612974565b60ff81116128ac576128a28483601817613959565b6128888482613959565b61ffff81116128d5576128c28483601917613959565b612888846124ff8361ffff166002613a4e565b63ffffffff8111612902576128ed8483601a17613959565b612888846124ff8363ffffffff166004613a4e565b6001600160401b0381116129355761291d8483601b17613959565b612888846124ff836001600160401b03166008613a4e565b60405162461bcd60e51b8152602060048201526014602482015273546167206e756d62657220746f6f206c6172676560601b604482015260640161035f565b6060830151511561256d5761256d8484606001516000815181106126bd576126bd614dfd565b6007815160078111156129af576129af614de7565b036124225760208101515160e090600003612a735781604001516000036129dd57610e2c8360148317613959565b81604001516001036129f657610e2c8360158317613959565b8160400151600003612a0f57610e2c8360168317613959565b6020826040015110612a635760405162461bcd60e51b815260206004820152601960248201527f53696d706c652076616c7565206f7574206f662072616e676500000000000000604482015260640161035f565b610e2c8383604001518317613959565b816020015151600203612a9257612a8d8360198317613959565b612b05565b816020015151600403612aac57612a8d83601a8317613959565b816020015151600803612ac657612a8d83601b8317613959565b60405162461bcd60e51b8152602060048201526014602482015273092dcecc2d8d2c840ccd8dec2e840d8cadccee8d60631b604482015260640161035f565b610e2c838360200151613b1a565b6000600682511015612b675760405162461bcd60e51b815260206004820152601b60248201527f4461746120746f6f2073686f727420666f7220636865636b73756d0000000000604482015260640161035f565b600060068351612b779190614e42565b6001600160401b03811115612b8e57612b8e614b2f565b604051908082528060200260200182016040528015612bb7578160200160208202803683370190505b5060408051600680825260e08201909252919250600091906020820160c08036833701905050905060005b8251811015612c4257848181518110612bfd57612bfd614dfd565b6020026020010151838281518110612c1757612c17614dfd565b6001600160d81b03199092166020928302919091019091015280612c3a81614e29565b915050612be2565b5060005b6006811015612cb25784818451612c5d9190614e55565b81518110612c6d57612c6d614dfd565b6020026020010151828281518110612c8757612c87614dfd565b6001600160d81b03199092166020928302919091019091015280612caa81614e29565b915050612c46565b506000612cbf8684613366565b905060005b6006811015612d3957818181518110612cdf57612cdf614dfd565b60200260200101516001600160d81b031916838281518110612d0357612d03614dfd565b60200260200101516001600160d81b03191614612d275760009450505050506101ff565b80612d3181614e29565b915050612cc4565b5060019695505050505050565b606060008060006001600886516005612d5f9190614f79565b612d6a906007614e55565b612d749190614f57565b612d7e9190614e42565b6001600160401b03811115612d9557612d95614b2f565b6040519080825280601f01601f191660200182016040528015612dbf576020820181803683370190505b5090506000805b8651811015612e7757868181518110612de157612de1614dfd565b602002602001015160f81c60ff16600586901b179450600584612e049190614e55565b93505b60088410612e6557612e1a600885614e42565b93506001600160f81b031985851c60f81b168383612e3781614e29565b945081518110612e4957612e49614dfd565b60200101906001600160f81b031916908160001a905350612e07565b80612e6f81614e29565b915050612dc6565b509095945050505050565b612e8a614ab9565b815151602083015110612ed35760405162461bcd60e51b8152602060048201526011602482015270496e73756666696369656e74206461746160781b604482015260640161035f565b60008260000151836020015181518110612eef57612eef614dfd565b01602090810151908401805160f89290921c9250612f0c82614e29565b90525060006007600583901c811690811115612f2a57612f2a614de7565b9050601f82166000826007811115612f4457612f44614de7565b1480612f6157506001826007811115612f5f57612f5f614de7565b145b15612f7157610d05858383613c52565b6002826007811115612f8557612f85614de7565b1480612fa257506003826007811115612fa057612fa0614de7565b145b15612fb257610d05858383613cf7565b6004826007811115612fc657612fc6614de7565b1480612fe357506005826007811115612fe157612fe1614de7565b145b15612ff357610d05858383613eb5565b600682600781111561300757613007614de7565b0361301657610d058582614236565b610d0585826142cf565b505050919050565b613030614ab9565b60008261303e576000613041565b60015b60ff1690506000613053826001610d0e565b905061305d614ab9565b600281526020810186905261307482826000610d8f565b50949350505050565b613085614ab9565b6000835160001461309757600061309a565b60015b60ff1690506000816001146130b05760016130b3565b60005b60ff16905060006130c48383610d0e565b905082600003610d0557610d0581611b6688886145ed565b606060006006835160078111156130f5576130f5614de7565b1461314e5760405162461bcd60e51b8152602060048201526024808201527f6e6f7420416461207374616b6563726564656e7469616c20706c7574757344616044820152637461203160e01b606482015260840161035f565b6000613159846118e4565b9050806001146131b75760405162461bcd60e51b8152602060048201526024808201527f6e6f7420416461207374616b6563726564656e7469616c20706c7574757344616044820152637461203360e01b606482015260840161035f565b60006131c4856000611a2c565b90506131cf81611bce565b90969095509350505050565b60606000601f905060006005845160086131f59190614f79565b613200906004614e55565b61320a9190614f57565b6001600160401b0381111561322157613221614b2f565b60405190808252806020026020018201604052801561324a578160200160208202803683370190505b5090506000806000805b87518110156133005787818151811061326f5761326f614dfd565b60209101015160f81c600893841b17926132899083614e55565b91505b600582106132ee5761329f600583614e42565b91506001600160f81b031983831c871660f81b1685856132be81614e29565b9650815181106132d0576132d0614dfd565b6001600160d81b03199092166020928302919091019091015261328c565b806132f881614e29565b915050613254565b5080156118b45784613313826005614e42565b83901b1660f81b6001600160f81b03191684848061333090614e29565b95508151811061334257613342614dfd565b6001600160d81b031990921660209283029190910190910152509195945050505050565b60606000835160026133789190614f79565b83516133849190614e55565b61338f906007614e55565b6001600160401b038111156133a6576133a6614b2f565b6040519080825280602002602001820160405280156133cf578160200160208202803683370190505b5090506000805b85518110156134375760058682815181106133f3576133f3614dfd565b016020015160f81c901c838361340881614e29565b94508151811061341a5761341a614dfd565b60209081029190910101528061342f81614e29565b9150506133d6565b506000828261344581614e29565b93508151811061345757613457614dfd565b60200260200101818152505060005b85518110156134c75785818151811061348157613481614dfd565b60209101015160f81c601f16838361349881614e29565b9450815181106134aa576134aa614dfd565b6020908102919091010152806134bf81614e29565b915050613466565b5060005b845181101561352f578481815181106134e6576134e6614dfd565b602002602001015160f81c60ff1683838061350090614e29565b94508151811061351257613512614dfd565b60209081029190910101528061352781614e29565b9150506134cb565b5060005b6006811015613578576000838361354981614e29565b94508151811061355b5761355b614dfd565b60209081029190910101528061357081614e29565b915050613533565b50600160005b835181101561362c576000601983901c90508482815181106135a2576135a2614dfd565b60200260200101516005846301ffffff16901b189250806001166000146135cd57633b6a57b2831892505b60028116156135e0576326508e6d831892505b60048116156135f357631ea119fa831892505b600881161561360657633d4233dd831892505b601081161561361957632a1462b3831892505b508061362481614e29565b91505061357e565b5060408051600680825260e08201909252600192909218916000916020820160c08036833701905050905060005b60068110156136c95761366e816005614e42565b613679906005614f79565b83901c601f1660f81b6001600160f81b03191682828151811061369e5761369e614dfd565b6001600160d81b031990921660209283029190910190910152806136c181614e29565b91505061365a565b509695505050505050565b600060058360078111156136ea576136ea614de7565b60ff16901b9050600183600781111561370557613705614de7565b03613836576001600160401b0382111561376d5760405162461bcd60e51b8152602060048201526024808201527f56616c756520746f6f206c6172676520666f72206e6567617469766520696e7460448201526332b3b2b960e11b606482015260840161035f565b600061377a836001614e55565b905060188110156137965761379185828417613959565b613830565b60ff81116137b5576137ab8583601817613959565b6137918582613959565b61ffff81116137de576137cb8583601917613959565b613791856124ff8361ffff166002613a4e565b63ffffffff811161380b576137f68583601a17613959565b613791856124ff8363ffffffff166004613a4e565b6138188583601b17613959565b613830856124ff836001600160401b03166008613a4e565b5061256d565b60188210156138505761384b84838317613959565b61256d565b60ff821161386f576138658482601817613959565b61384b8483613959565b61ffff8211613898576138858482601917613959565b61384b846124ff8461ffff166002613a4e565b63ffffffff82116138c5576138b08482601a17613959565b61384b846124ff8463ffffffff166004613a4e565b6001600160401b0382116138f8576138e08482601b17613959565b61384b846124ff846001600160401b03166008613a4e565b60405162461bcd60e51b815260206004820152603060248201527f56616c756520746f6f206c6172676520666f722075696e7436342c207573652060448201526f546167203220666f72206269676e756d60801b606482015260840161035f565b81515160009061396a906001614e55565b6001600160401b0381111561398157613981614b2f565b6040519080825280601f01601f1916602001820160405280156139ab576020820181803683370190505b50905060005b835151811015613a155783518051829081106139cf576139cf614dfd565b602001015160f81c60f81b8282815181106139ec576139ec614dfd565b60200101906001600160f81b031916908160001a90535080613a0d81614e29565b9150506139b1565b508160f81b8184600001515181518110613a3157613a31614dfd565b60200101906001600160f81b031916908160001a90535090915250565b606060008260ff166001600160401b03811115613a6d57613a6d614b2f565b6040519080825280601f01601f191660200182016040528015613a97576020820181803683370190505b50905060005b8360ff168160ff161015613b1257613ab6816008614f90565b60ff1685901c60f81b8282613acc600188614fb3565b613ad69190614fb3565b60ff1681518110613ae957613ae9614dfd565b60200101906001600160f81b031916908160001a90535080613b0a81614f38565b915050613a9d565b509392505050565b8051825151600091613b2b91614e55565b6001600160401b03811115613b4257613b42614b2f565b6040519080825280601f01601f191660200182016040528015613b6c576020820181803683370190505b50905060005b835151811015613bd6578351805182908110613b9057613b90614dfd565b602001015160f81c60f81b828281518110613bad57613bad614dfd565b60200101906001600160f81b031916908160001a90535080613bce81614e29565b915050613b72565b5060005b8251811015613c4b57828181518110613bf557613bf5614dfd565b602001015160f81c60f81b8282866000015151613c129190614e55565b81518110613c2257613c22614dfd565b60200101906001600160f81b031916908160001a90535080613c4381614e29565b915050613bda565b5090915250565b613c5a614ab9565b6000613c668584614613565b90506001600160401b038116613c7a614ab9565b80866007811115613c8d57613c8d614de7565b90816007811115613ca057613ca0614de7565b9052506001866007811115613cb757613cb7614de7565b03613ce55781600003613cd05760006040820152613ced565b613cdb600183614e42565b6040820152613ced565b604081018290525b9695505050505050565b613cff614ab9565b6000613d0b8584614613565b9050846000015151816001600160401b03168660200151613d2c9190614e55565b1115613d6f5760405162461bcd60e51b815260206004820152601260248201527144617461206f7574206f6620626f756e647360701b604482015260640161035f565b613d77614ab9565b80856007811115613d8a57613d8a614de7565b90816007811115613d9d57613d9d614de7565b815250506000826001600160401b03166001600160401b03811115613dc457613dc4614b2f565b6040519080825280601f01601f191660200182016040528015613dee576020820181803683370190505b50905060005b836001600160401b0316816001600160401b03161015613e885787516020890151613e29906001600160401b03841690614e55565b81518110613e3957613e39614dfd565b602001015160f81c60f81b82826001600160401b031681518110613e5f57613e5f614dfd565b60200101906001600160f81b031916908160001a90535080613e8081614fcc565b915050613df4565b50826001600160401b031687602001818151613ea49190614e55565b905250602082015295945050505050565b613ebd614ab9565b6000613ec98584614613565b9050613ed3614ab9565b80856007811115613ee657613ee6614de7565b90816007811115613ef957613ef9614de7565b9052506004856007811115613f1057613f10614de7565b036140695767fffffffffffffffe196001600160401b03831601613fa0575b85515160208701511015613f9b578551602087015181518110613f5457613f54614dfd565b016020015160f81c60ff03613f7b5760208601805190613f7382614e29565b905250610d05565b613f918160600151613f8c88612e82565b6149d7565b6060820152613f2f565b610d05565b816001600160401b03166001600160401b03811115613fc157613fc1614b2f565b604051908082528060200260200182016040528015613ffa57816020015b613fe7614ab9565b815260200190600190039081613fdf5790505b50606082015260005b826001600160401b0316816001600160401b031610156140635761402687612e82565b8260600151826001600160401b03168151811061404557614045614dfd565b6020026020010181905250808061405b90614fcc565b915050614003565b50610d05565b67fffffffffffffffe196001600160401b0383160161410d575b85515160208701511015610d055785516020870151815181106140a8576140a8614dfd565b016020015160f81c60ff036140c75760208601805190613f7382614e29565b60006140d287612e82565b905060006140df88612e82565b90506140ef8360600151836149d7565b6060840181905261410090826149d7565b6060840152506140839050565b614118826002614ff2565b6001600160401b03166001600160401b0381111561413857614138614b2f565b60405190808252806020026020018201604052801561417157816020015b61415e614ab9565b8152602001906001900390816141565790505b50606082015260005b826001600160401b0316816001600160401b0316101561422c5761419d87612e82565b60608301516141ad836002614ff2565b6001600160401b0316815181106141c6576141c6614dfd565b60200260200101819052506141da87612e82565b60608301516141ea836002614ff2565b6141f590600161501d565b6001600160401b03168151811061420e5761420e614dfd565b6020026020010181905250808061422490614fcc565b91505061417a565b5095945050505050565b61423e614ab9565b600061424a8484614613565b9050614254614ab9565b600681526001600160401b0382166080820152604080516001808252818301909252600091602082015b614286614ab9565b81526020019060019003908161427e5790505090506142a486612e82565b816000815181106142b7576142b7614dfd565b60209081029190910101526060820152949350505050565b6142d7614ab9565b6142df614ab9565b6007815260ff8316601319016142fb5760006040820152610234565b60141960ff8416016143135760016040820152610234565b60151960ff84160161432b5760006040820152610234565b60161960ff8416016143435760006040820152610234565b60171960ff8416016143895783516020850180516000929161436482614e29565b90528151811061437657614376614dfd565b016020015160f81c604083015250610234565b60181960ff8416016144745760408051600280825281830190925260009160208201818036833750508651602088018051939450909291506143ca82614e29565b9052815181106143dc576143dc614dfd565b602001015160f81c60f81b816000815181106143fa576143fa614dfd565b60200101906001600160f81b031916908160001a90535084516020860180519061442382614e29565b90528151811061443557614435614dfd565b602001015160f81c60f81b8160018151811061445357614453614dfd565b60200101906001600160f81b031916908160001a9053506020820152610234565b60191960ff8416016145225760408051600480825281830190925260009160208201818036833701905050905060005b6004811015614517578551602087018051906144bf82614e29565b9052815181106144d1576144d1614dfd565b602001015160f81c60f81b8282815181106144ee576144ee614dfd565b60200101906001600160f81b031916908160001a9053508061450f81614e29565b9150506144a4565b506020820152610234565b601a1960ff8416016145c55760408051600880825281830190925260009160208201818036833701905050905060005b60088110156145175785516020870180519061456d82614e29565b90528151811061457f5761457f614dfd565b602001015160f81c60f81b82828151811061459c5761459c614dfd565b60200101906001600160f81b031916908160001a905350806145bd81614e29565b915050614552565b601e1960ff8416016145dd5760006040820152610234565b60ff831660408201529392505050565b6145f5614ab9565b600061460360006001610d0e565b905061023481611b668686613028565b600060188260ff16101561462b575060ff81166101ff565b8160ff166018036146695782516020840180519061464882614e29565b90528151811061465a5761465a614dfd565b016020015160f81c90506101ff565b8160ff166019036146fd5782516020840151614686906001614e55565b8151811061469657614696614dfd565b602001015160f81c60f81b60f81c60ff16600884600001518560200151815181106146c3576146c3614dfd565b602001015160f81c60f81b60f81c60ff166001600160401b0316901b1790506002836020018181516146f59190614e55565b9052506101ff565b8160ff16601a036147f1578251602084015161471a906003614e55565b8151811061472a5761472a614dfd565b0160209081015184519185015160f89190911c9160089161474c906002614e55565b8151811061475c5761475c614dfd565b0160209081015186519187015160f89190911c90921b9160109190614782906001614e55565b8151811061479257614792614dfd565b01602090810151875191880151825160f89290921c90931b926018929181106147bd576147bd614dfd565b602001015160f81c60f81b60f81c60ff166001600160401b0316901b17171790506004836020018181516146f59190614e55565b8160ff16601b036149be578251602084015161480e906007614e55565b8151811061481e5761481e614dfd565b0160209081015184519185015160f89190911c91600891614840906006614e55565b8151811061485057614850614dfd565b0160209081015186519187015160f89190911c90921b9160109190614876906005614e55565b8151811061488657614886614dfd565b0160209081015187519188015160f89190911c90921b91601891906148ac906004614e55565b815181106148bc576148bc614dfd565b0160209081015188518983015160f89290921c90931b92906148df906003614e55565b815181106148ef576148ef614dfd565b016020908101518951918a015160f89190911c90921b9160289190614915906002614e55565b8151811061492557614925614dfd565b016020908101518a51918b015160f89190911c90921b916030919061494b906001614e55565b8151811061495b5761495b614dfd565b016020908101518b51918c0151825160f89290921c90931b9260389291811061498657614986614dfd565b602001015160f81c60f81b60f81c60ff166001600160401b0316901b1717171717171790506008836020018181516146f59190614e55565b8160ff16601f036101ff57506001600160401b036101ff565b60606000835160016149e99190614e55565b6001600160401b03811115614a0057614a00614b2f565b604051908082528060200260200182016040528015614a3957816020015b614a26614ab9565b815260200190600190039081614a1e5790505b50905060005b8451811015614a9257848181518110614a5a57614a5a614dfd565b6020026020010151828281518110614a7457614a74614dfd565b60200260200101819052508080614a8a90614e29565b915050614a3f565b508281855181518110614aa757614aa7614dfd565b60209081029190910101529392505050565b6040805160a081019091528060008152602001606081526020016000815260200160608152602001600081525090565b6040518060e00160405280600015158152602001600060ff1681526020016000151581526020016000151581526020016060815260200160608152602001606081525090565b634e487b7160e01b600052604160045260246000fd5b60006001600160401b0380841115614b5f57614b5f614b2f565b604051601f8501601f19908116603f01168101908282118183101715614b8757614b87614b2f565b81604052809350858152868686011115614ba057600080fd5b858560208301376000602087830101525050509392505050565b600082601f830112614bcb57600080fd5b61023483833560208501614b45565b60008060408385031215614bed57600080fd5b82356001600160401b0380821115614c0457600080fd5b614c1086838701614bba565b9350602085013591508082168214614c2757600080fd5b50809150509250929050565b60005b83811015614c4e578181015183820152602001614c36565b50506000910152565b60008151808452614c6f816020860160208601614c33565b601f01601f19169290920160200192915050565b60018060a01b0381511682526000602082015160806020850152614caa6080850182614c57565b90506040830151151560408501526001600160401b0360608401511660608501528091505092915050565b606081526000614ce86060830186614c57565b8281036020840152614cfa8186614c83565b9150508215156040830152949350505050565b80358015158114614d1d57600080fd5b919050565b60008060408385031215614d3557600080fd5b82356001600160401b03811115614d4b57600080fd5b614d5785828601614bba565b925050614d6660208401614d0d565b90509250929050565b60008060408385031215614d8257600080fd5b82356001600160401b03811115614d9857600080fd5b8301601f81018513614da957600080fd5b614d5785823560208401614b45565b6020815260006102346020830184614c83565b60008251614ddd818460208701614c33565b9190910192915050565b634e487b7160e01b600052602160045260246000fd5b634e487b7160e01b600052603260045260246000fd5b634e487b7160e01b600052601160045260246000fd5b600060018201614e3b57614e3b614e13565b5060010190565b818103818111156101ff576101ff614e13565b808201808211156101ff576101ff614e13565b805160208201516bffffffffffffffffffffffff1980821692919060148310156130205760149290920360031b82901b161692915050565b60ff60f81b8460f81b16815260008351614ec1816001850160208801614c33565b835190830190614ed8816001840160208801614c33565b0160010195945050505050565b60ff60f81b8360f81b16815260008251614f06816001850160208701614c33565b919091016001019392505050565b6020808252600a90820152693737ba1031b7b739ba3960b11b604082015260600190565b600060ff821660ff8103614f4e57614f4e614e13565b60010192915050565b600082614f7457634e487b7160e01b600052601260045260246000fd5b500490565b80820281158282048414176101ff576101ff614e13565b60ff8181168382160290811690818114614fac57614fac614e13565b5092915050565b60ff82811682821603908111156101ff576101ff614e13565b60006001600160401b03808316818103614fe857614fe8614e13565b6001019392505050565b6001600160401b0381811683821602808216919082811461501557615015614e13565b505092915050565b6001600160401b03818116838216019080821115614fac57614fac614e1356fea264697066735822122049c1e9c3f1c9a2bb2d4d0df03c31c3bb2554c8b0125d7e62420e0b97afaf290764736f6c63430008140033",
  "linkReferences": {},
  "deployedLinkReferences": {}
}