{
  "_format": "hh-sol-artifact-1",
  "contractName": "CBORCodecTest",
  "sourceName": "contracts/test/CBORCodecTest.sol",
  "abi": [
    {
      "inputs": [
        {
          "internalType": "bytes",
          "name": "data",
          "type": "bytes"
        },
        {
          "internalType": "uint256",
          "name": "idx",
          "type": "uint256"
        }
      ],
      "name": "decodeArrayElemInt",
      "outputs": [
        {
          "internalType": "uint256",
          "name": "",
          "type": "uint256"
        }
      ],
      "stateMutability": "pure",
      "type": "function"
    },
    {
      "inputs": [
        {
          "internalType": "bytes",
          "name": "data",
          "type": "bytes"
        },
        {
          "internalType": "uint256",
          "name": "idx",
          "type": "uint256"
        }
      ],
      "name": "decodeArrayElemMajorType",
      "outputs": [
        {
          "internalType": "uint8",
          "name": "",
          "type": "uint8"
        }
      ],
      "stateMutability": "pure",
      "type": "function"
    },
    {
      "inputs": [
        {
          "internalType": "bytes",
          "name": "data",
          "type": "bytes"
        }
      ],
      "name": "decodeArrayLength",
      "outputs": [
        {
          "internalType": "uint256",
          "name": "",
          "type": "uint256"
        }
      ],
      "stateMutability": "pure",
      "type": "function"
    },
    {
      "inputs": [
        {
          "internalType": "bytes",
          "name": "data",
          "type": "bytes"
        }
      ],
      "name": "decodeData",
      "outputs": [
        {
          "internalType": "bytes",
          "name": "",
          "type": "bytes"
        }
      ],
      "stateMutability": "pure",
      "type": "function"
    },
    {
      "inputs": [
        {
          "internalType": "bytes",
          "name": "data",
          "type": "bytes"
        }
      ],
      "name": "decodeIntValue",
      "outputs": [
        {
          "internalType": "uint256",
          "name": "",
          "type": "uint256"
        }
      ],
      "stateMutability": "pure",
      "type": "function"
    },
    {
      "inputs": [
        {
          "internalType": "bytes",
          "name": "data",
          "type": "bytes"
        }
      ],
      "name": "decodeMajorType",
      "outputs": [
        {
          "internalType": "uint8",
          "name": "",
          "type": "uint8"
        }
      ],
      "stateMutability": "pure",
      "type": "function"
    },
    {
      "inputs": [
        {
          "internalType": "bytes",
          "name": "data",
          "type": "bytes"
        }
      ],
      "name": "decodeTagNumber",
      "outputs": [
        {
          "internalType": "uint256",
          "name": "",
          "type": "uint256"
        }
      ],
      "stateMutability": "pure",
      "type": "function"
    },
    {
      "inputs": [
        {
          "internalType": "bytes",
          "name": "data",
          "type": "bytes"
        }
      ],
      "name": "decodeTaggedItemArrayLength",
      "outputs": [
        {
          "internalType": "uint256",
          "name": "",
          "type": "uint256"
        }
      ],
      "stateMutability": "pure",
      "type": "function"
    },
    {
      "inputs": [
        {
          "internalType": "bytes",
          "name": "data",
          "type": "bytes"
        }
      ],
      "name": "decodeTaggedItemMajorType",
      "outputs": [
        {
          "internalType": "uint8",
          "name": "",
          "type": "uint8"
        }
      ],
      "stateMutability": "pure",
      "type": "function"
    }
  ],
  "bytecode": "0x608060405234801561001057600080fd5b50611057806100206000396000f3fe608060405234801561001057600080fd5b50600436106100935760003560e01c80638b7e68cc116100665780638b7e68cc14610116578063ae59880314610129578063afa545d61461013c578063c73224db1461014f578063caf322e61461016257600080fd5b806320b32d5e14610098578063447a06f5146100c25780636a168cbd146100e25780637cdf4a87146100f5575b600080fd5b6100ab6100a6366004610eb4565b610175565b60405160ff90911681526020015b60405180910390f35b6100d56100d0366004610eb4565b61019e565b6040516100b99190610ee8565b6100ab6100f0366004610f36565b6101b6565b610108610103366004610eb4565b610201565b6040519081526020016100b9565b610108610124366004610eb4565b610219565b610108610137366004610eb4565b610230565b61010861014a366004610f36565b610247565b6100ab61015d366004610eb4565b610280565b610108610170366004610eb4565b6102c2565b600080610181836102fc565b8051909150600781111561019757610197610f7a565b9392505050565b606060006101ab836102fc565b602001519392505050565b6000806101c2846102fc565b9050806060015183815181106101da576101da610f90565b60200260200101516000015160078111156101f7576101f7610f7a565b9150505b92915050565b60008061020d836102fc565b60600151519392505050565b600080610225836102fc565b608001519392505050565b60008061023c836102fc565b604001519392505050565b600080610253846102fc565b90508060600151838151811061026b5761026b610f90565b60200260200101516040015191505092915050565b60008061028c836102fc565b905080606001516000815181106102a5576102a5610f90565b602002602001015160000151600781111561019757610197610f7a565b6000806102ce836102fc565b905080606001516000815181106102e7576102e7610f90565b60200260200101516060015151915050919050565b610304610de2565b6040805180820190915282815260006020820152610197815b610325610de2565b8151516020830151106103735760405162461bcd60e51b8152602060048201526011602482015270496e73756666696369656e74206461746160781b60448201526064015b60405180910390fd5b6000826000015183602001518151811061038f5761038f610f90565b01602090810151908401805160f89290921c92506103ac82610fbc565b90525060006007600583901c8116908111156103ca576103ca610f7a565b9050601f821660008260078111156103e4576103e4610f7a565b1480610401575060018260078111156103ff576103ff610f7a565b145b1561041a576104118583836104c9565b95945050505050565b600282600781111561042e5761042e610f7a565b148061044b5750600382600781111561044957610449610f7a565b145b1561045b5761041185838361055b565b600482600781111561046f5761046f610f7a565b148061048c5750600582600781111561048a5761048a610f7a565b145b1561049c57610411858383610719565b60068260078111156104b0576104b0610f7a565b036104bf5761041185826108d1565b6104118582610921565b6104d1610de2565b60006104dd858461093c565b90506001600160401b0381166104f1610de2565b8086600781111561050457610504610f7a565b9081600781111561051757610517610f7a565b905250600186600781111561052e5761052e610f7a565b036105495761053f82600019610fd5565b6040820152610551565b604081018290525b9695505050505050565b610563610de2565b600061056f858461093c565b9050846000015151816001600160401b031686602001516105909190610fe8565b11156105d35760405162461bcd60e51b815260206004820152601260248201527144617461206f7574206f6620626f756e647360701b604482015260640161036a565b6105db610de2565b808560078111156105ee576105ee610f7a565b9081600781111561060157610601610f7a565b815250506000826001600160401b03166001600160401b0381111561062857610628610e12565b6040519080825280601f01601f191660200182016040528015610652576020820181803683370190505b50905060005b836001600160401b0316816001600160401b031610156106ec578751602089015161068d906001600160401b03841690610fe8565b8151811061069d5761069d610f90565b602001015160f81c60f81b82826001600160401b0316815181106106c3576106c3610f90565b60200101906001600160f81b031916908160001a905350806106e481610ffb565b915050610658565b50826001600160401b0316876020018181516107089190610fe8565b905250602082015295945050505050565b610721610de2565b600061072d858461093c565b9050610737610de2565b8085600781111561074a5761074a610f7a565b9081600781111561075d5761075d610f7a565b905250600485600781111561077457610774610f7a565b036104115767fffffffffffffffe196001600160401b03831601610804575b85515160208701511080156107c7575085516020870151815181106107ba576107ba610f90565b60209101015160f81c60ff145b156107e457602086018051906107dc82610fbc565b905250610411565b6107fa81606001516107f58861031d565b610d00565b6060820152610793565b816001600160401b03166001600160401b0381111561082557610825610e12565b60405190808252806020026020018201604052801561085e57816020015b61084b610de2565b8152602001906001900390816108435790505b50606082015260005b826001600160401b0316816001600160401b031610156108c75761088a8761031d565b8260600151826001600160401b0316815181106108a9576108a9610f90565b602002602001018190525080806108bf90610ffb565b915050610867565b5095945050505050565b6108d9610de2565b60006108e5848461093c565b90506108ef610de2565b600681526001600160401b03821660808201526060810151610914906107f58761031d565b6060820152949350505050565b610929610de2565b610931610de2565b600781529392505050565b600060188260ff161015610954575060ff81166101fb565b8160ff166018036109925782516020840180519061097182610fbc565b90528151811061098357610983610f90565b016020015160f81c90506101fb565b8160ff16601903610a2657825160208401516109af906001610fe8565b815181106109bf576109bf610f90565b602001015160f81c60f81b60f81c60ff16600884600001518560200151815181106109ec576109ec610f90565b602001015160f81c60f81b60f81c60ff166001600160401b0316901b179050600283602001818151610a1e9190610fe8565b9052506101fb565b8160ff16601a03610b1a5782516020840151610a43906003610fe8565b81518110610a5357610a53610f90565b0160209081015184519185015160f89190911c91600891610a75906002610fe8565b81518110610a8557610a85610f90565b0160209081015186519187015160f89190911c90921b9160109190610aab906001610fe8565b81518110610abb57610abb610f90565b01602090810151875191880151825160f89290921c90931b92601892918110610ae657610ae6610f90565b602001015160f81c60f81b60f81c60ff166001600160401b0316901b1717179050600483602001818151610a1e9190610fe8565b8160ff16601b03610ce75782516020840151610b37906007610fe8565b81518110610b4757610b47610f90565b0160209081015184519185015160f89190911c91600891610b69906006610fe8565b81518110610b7957610b79610f90565b0160209081015186519187015160f89190911c90921b9160109190610b9f906005610fe8565b81518110610baf57610baf610f90565b0160209081015187519188015160f89190911c90921b9160189190610bd5906004610fe8565b81518110610be557610be5610f90565b0160209081015188518983015160f89290921c90931b9290610c08906003610fe8565b81518110610c1857610c18610f90565b016020908101518951918a015160f89190911c90921b9160289190610c3e906002610fe8565b81518110610c4e57610c4e610f90565b016020908101518a51918b015160f89190911c90921b9160309190610c74906001610fe8565b81518110610c8457610c84610f90565b016020908101518b51918c0151825160f89290921c90931b92603892918110610caf57610caf610f90565b602001015160f81c60f81b60f81c60ff166001600160401b0316901b171717171717179050600883602001818151610a1e9190610fe8565b8160ff16601f036101fb57506001600160401b036101fb565b6060600083516001610d129190610fe8565b6001600160401b03811115610d2957610d29610e12565b604051908082528060200260200182016040528015610d6257816020015b610d4f610de2565b815260200190600190039081610d475790505b50905060005b8451811015610dbb57848181518110610d8357610d83610f90565b6020026020010151828281518110610d9d57610d9d610f90565b60200260200101819052508080610db390610fbc565b915050610d68565b508281855181518110610dd057610dd0610f90565b60209081029190910101529392505050565b6040805160a081019091528060008152602001606081526020016000815260200160608152602001600081525090565b634e487b7160e01b600052604160045260246000fd5b600082601f830112610e3957600080fd5b81356001600160401b0380821115610e5357610e53610e12565b604051601f8301601f19908116603f01168101908282118183101715610e7b57610e7b610e12565b81604052838152866020858801011115610e9457600080fd5b836020870160208301376000602085830101528094505050505092915050565b600060208284031215610ec657600080fd5b81356001600160401b03811115610edc57600080fd5b6101f784828501610e28565b600060208083528351808285015260005b81811015610f1557858101830151858201604001528201610ef9565b506000604082860101526040601f19601f8301168501019250505092915050565b60008060408385031215610f4957600080fd5b82356001600160401b03811115610f5f57600080fd5b610f6b85828601610e28565b95602094909401359450505050565b634e487b7160e01b600052602160045260246000fd5b634e487b7160e01b600052603260045260246000fd5b634e487b7160e01b600052601160045260246000fd5b600060018201610fce57610fce610fa6565b5060010190565b818103818111156101fb576101fb610fa6565b808201808211156101fb576101fb610fa6565b60006001600160401b0380831681810361101757611017610fa6565b600101939250505056fea2646970667358221220499fbf05c7a36acfbcb40eeb8d78d7f47a6252889f04f0a24b721c22839213e164736f6c63430008140033",
  "linkReferences": {},
  "deployedLinkReferences": {}
}