{
  "_format": "hh-sol-artifact-1",
  "contractName": "TestWmbApp",
  "sourceName": "contracts/test/TestWmbApp.sol",
  "abi": [
    {
      "inputs": [
        {
          "internalType": "address",
          "name": "_gateway",
          "type": "address"
        }
      ],
      "stateMutability": "nonpayable",
      "type": "constructor"
    },
    {
      "anonymous": false,
      "inputs": [
        {
          "indexed": true,
          "internalType": "address",
          "name": "previousOwner",
          "type": "address"
        },
        {
          "indexed": true,
          "internalType": "address",
          "name": "newOwner",
          "type": "address"
        }
      ],
      "name": "OwnershipTransferred",
      "type": "event"
    },
    {
      "anonymous": false,
      "inputs": [
        {
          "indexed": false,
          "internalType": "uint256",
          "name": "fromChainId",
          "type": "uint256"
        },
        {
          "indexed": false,
          "internalType": "bytes",
          "name": "from",
          "type": "bytes"
        },
        {
          "indexed": false,
          "internalType": "bool",
          "name": "trusted",
          "type": "bool"
        }
      ],
      "name": "SetTrustedRemote",
      "type": "event"
    },
    {
      "inputs": [],
      "name": "lastData",
      "outputs": [
        {
          "internalType": "bytes",
          "name": "",
          "type": "bytes"
        }
      ],
      "stateMutability": "view",
      "type": "function"
    },
    {
      "inputs": [],
      "name": "lastFrom",
      "outputs": [
        {
          "internalType": "bytes",
          "name": "",
          "type": "bytes"
        }
      ],
      "stateMutability": "view",
      "type": "function"
    },
    {
      "inputs": [],
      "name": "lastFromChainId",
      "outputs": [
        {
          "internalType": "uint256",
          "name": "",
          "type": "uint256"
        }
      ],
      "stateMutability": "view",
      "type": "function"
    },
    {
      "inputs": [],
      "name": "lastMessageId",
      "outputs": [
        {
          "internalType": "bytes32",
          "name": "",
          "type": "bytes32"
        }
      ],
      "stateMutability": "view",
      "type": "function"
    },
    {
      "inputs": [],
      "name": "owner",
      "outputs": [
        {
          "internalType": "address",
          "name": "",
          "type": "address"
        }
      ],
      "stateMutability": "view",
      "type": "function"
    },
    {
      "inputs": [],
      "name": "renounceOwnership",
      "outputs": [],
      "stateMutability": "nonpayable",
      "type": "function"
    },
    {
      "inputs": [
        {
          "internalType": "uint256",
          "name": "toChainId",
          "type": "uint256"
        },
        {
          "internalType": "bytes",
          "name": "to",
          "type": "bytes"
        },
        {
          "internalType": "uint256",
          "name": "gasLimit",
          "type": "uint256"
        },
        {
          "internalType": "bytes",
          "name": "data",
          "type": "bytes"
        }
      ],
      "name": "sendNonEvm",
      "outputs": [
        {
          "internalType": "bytes32",
          "name": "",
          "type": "bytes32"
        }
      ],
      "stateMutability": "payable",
      "type": "function"
    },
    {
      "inputs": [
        {
          "internalType": "uint256",
          "name": "fromChainId",
          "type": "uint256"
        },
        {
          "internalType": "bytes",
          "name": "from",
          "type": "bytes"
        },
        {
          "internalType": "bool",
          "name": "trusted",
          "type": "bool"
        }
      ],
      "name": "setTrustedRemote",
      "outputs": [],
      "stateMutability": "nonpayable",
      "type": "function"
    },
    {
      "inputs": [
        {
          "internalType": "address",
          "name": "newOwner",
          "type": "address"
        }
      ],
      "name": "transferOwnership",
      "outputs": [],
      "stateMutability": "nonpayable",
      "type": "function"
    },
    {
      "inputs": [
        {
          "internalType": "uint256",
          "name": "",
          "type": "uint256"
        },
        {
          "internalType": "bytes",
          "name": "",
          "type": "bytes"
        }
      ],
      "name": "trustedRemotes",
      "outputs": [
        {
          "internalType": "bool",
          "name": "",
          "type": "bool"
        }
      ],
      "stateMutability": "view",
      "type": "function"
    },
    {
      "inputs": [],
      "name": "wmbGateway",
      "outputs": [
        {
          "internalType": "address",
          "name": "",
          "type": "address"
        }
      ],
      "stateMutability": "view",
      "type": "function"
    },
    {
      "inputs": [
        {
          "internalType": "bytes",
          "name": "data",
          "type": "bytes"
        },
        {
          "internalType": "bytes32",
          "name": "messageId",
          "type": "bytes32"
        },
        {
          "internalType": "uint256",
          "name": "fromChainId",
          "type": "uint256"
        },
        {
          "internalType": "bytes",
          "name": "from",
          "type": "bytes"
        }
      ],
      "name": "wmbReceiveNonEvm",
      "outputs": [],
      "stateMutability": "nonpayable",
      "type": "function"
    }
  ],
  "bytecode": "0x608060405234801561001057600080fd5b50604051610d4c380380610d4c83398101604081905261002f916100af565b806100393361005f565b600180546001600160a01b0319166001600160a01b0392909216919091179055506100df565b600080546001600160a01b038381166001600160a01b0319831681178455604051919092169283917f8be0079c531659141344cd1fd0a4f28419497f9722a3daafe3b4186f6b6457e09190a35050565b6000602082840312156100c157600080fd5b81516001600160a01b03811681146100d857600080fd5b9392505050565b610c5e806100ee6000396000f3fe6080604052600436106100a65760003560e01c8063804433781161006457806380443378146101bb5780638da5cb5b146101d0578063a6553f1c146101ee578063b32c23401461020e578063c1264e2e14610221578063f2fde38b1461024157600080fd5b80626e75ec146100ab578063245488b7146100d65780633088a5f91461013257806360206aab1461016a578063715018a61461018e5780637e0f13df146101a5575b600080fd5b3480156100b757600080fd5b506100c0610261565b6040516100cd91906106e0565b60405180910390f35b3480156100e257600080fd5b506101226100f136600461079d565b6002602090815260009283526040909220815180830184018051928152908401929093019190912091525460ff1681565b60405190151581526020016100cd565b34801561013e57600080fd5b50600154610152906001600160a01b031681565b6040516001600160a01b0390911681526020016100cd565b34801561017657600080fd5b5061018060045481565b6040519081526020016100cd565b34801561019a57600080fd5b506101a36102ef565b005b3480156101b157600080fd5b5061018060055481565b3480156101c757600080fd5b506100c0610303565b3480156101dc57600080fd5b506000546001600160a01b0316610152565b3480156101fa57600080fd5b506101a36102093660046107e4565b610310565b61018061021c366004610844565b610328565b34801561022d57600080fd5b506101a361023c3660046108bb565b61033f565b34801561024d57600080fd5b506101a361025c366004610963565b610446565b6003805461026e9061098c565b80601f016020809104026020016040519081016040528092919081815260200182805461029a9061098c565b80156102e75780601f106102bc576101008083540402835291602001916102e7565b820191906000526020600020905b8154815290600101906020018083116102ca57829003601f168201915b505050505081565b6102f76104bf565b6103016000610519565b565b6006805461026e9061098c565b6103186104bf565b610323838383610569565b505050565b6000610336858585856105ea565b95945050505050565b6001546001600160a01b031633146103b65760405162461bcd60e51b815260206004820152602f60248201527f576d624170703a204f6e6c7920574d4220676174657761792063616e2063616c60448201526e36103a3434b990333ab731ba34b7b760891b60648201526084015b60405180910390fd5b6000828152600260205260409081902090516103d39083906109c6565b9081526040519081900360200190205460ff166104325760405162461bcd60e51b815260206004820152601d60248201527f576d624170703a2052656d6f7465206973206e6f74207472757374656400000060448201526064016103ad565b61043f8585858585610664565b5050505050565b61044e6104bf565b6001600160a01b0381166104b35760405162461bcd60e51b815260206004820152602660248201527f4f776e61626c653a206e6577206f776e657220697320746865207a65726f206160448201526564647265737360d01b60648201526084016103ad565b6104bc81610519565b50565b6000546001600160a01b031633146103015760405162461bcd60e51b815260206004820181905260248201527f4f776e61626c653a2063616c6c6572206973206e6f7420746865206f776e657260448201526064016103ad565b600080546001600160a01b038381166001600160a01b0319831681178455604051919092169283917f8be0079c531659141344cd1fd0a4f28419497f9722a3daafe3b4186f6b6457e09190a35050565b80600260008581526020019081526020016000208360405161058b91906109c6565b908152604051908190036020018120805492151560ff19909316929092179091557f38524fadd14ddab834bd25bb68ab7b81540e7f020acba13d8392c07934e934d2906105dd908590859085906109e2565b60405180910390a1505050565b600154604051637ea6842760e11b81526000916001600160a01b03169063fd4d084e90610621908890889088908890600401610a0d565b6020604051808303816000875af1158015610640573d6000803e3d6000fd5b505050506040513d601f19601f820116820180604052508101906103369190610a49565b6003610671858783610aa8565b506004839055600582905560066106888282610b68565b505050505050565b60005b838110156106ab578181015183820152602001610693565b50506000910152565b600081518084526106cc816020860160208601610690565b601f01601f19169290920160200192915050565b6020815260006106f360208301846106b4565b9392505050565b634e487b7160e01b600052604160045260246000fd5b600082601f83011261072157600080fd5b813567ffffffffffffffff8082111561073c5761073c6106fa565b604051601f8301601f19908116603f01168101908282118183101715610764576107646106fa565b8160405283815286602085880101111561077d57600080fd5b836020870160208301376000602085830101528094505050505092915050565b600080604083850312156107b057600080fd5b82359150602083013567ffffffffffffffff8111156107ce57600080fd5b6107da85828601610710565b9150509250929050565b6000806000606084860312156107f957600080fd5b83359250602084013567ffffffffffffffff81111561081757600080fd5b61082386828701610710565b9250506040840135801515811461083957600080fd5b809150509250925092565b6000806000806080858703121561085a57600080fd5b84359350602085013567ffffffffffffffff8082111561087957600080fd5b61088588838901610710565b94506040870135935060608701359150808211156108a257600080fd5b506108af87828801610710565b91505092959194509250565b6000806000806000608086880312156108d357600080fd5b853567ffffffffffffffff808211156108eb57600080fd5b818801915088601f8301126108ff57600080fd5b81358181111561090e57600080fd5b89602082850101111561092057600080fd5b602092830197509550908701359350604087013592506060870135908082111561094957600080fd5b5061095688828901610710565b9150509295509295909350565b60006020828403121561097557600080fd5b81356001600160a01b03811681146106f357600080fd5b600181811c908216806109a057607f821691505b6020821081036109c057634e487b7160e01b600052602260045260246000fd5b50919050565b600082516109d8818460208701610690565b9190910192915050565b8381526060602082015260006109fb60608301856106b4565b90508215156040830152949350505050565b848152608060208201526000610a2660808301866106b4565b8460408401528281036060840152610a3e81856106b4565b979650505050505050565b600060208284031215610a5b57600080fd5b5051919050565b601f82111561032357600081815260208120601f850160051c81016020861015610a895750805b601f850160051c820191505b8181101561068857828155600101610a95565b67ffffffffffffffff831115610ac057610ac06106fa565b610ad483610ace835461098c565b83610a62565b6000601f841160018114610b085760008515610af05750838201355b600019600387901b1c1916600186901b17835561043f565b600083815260209020601f19861690835b82811015610b395786850135825560209485019460019092019101610b19565b5086821015610b565760001960f88860031b161c19848701351681555b505060018560011b0183555050505050565b815167ffffffffffffffff811115610b8257610b826106fa565b610b9681610b90845461098c565b84610a62565b602080601f831160018114610bcb5760008415610bb35750858301515b600019600386901b1c1916600185901b178555610688565b600085815260208120601f198616915b82811015610bfa57888601518255948401946001909101908401610bdb565b5085821015610c185787850151600019600388901b60f8161c191681555b5050505050600190811b0190555056fea26469706673582212206601137a5ce15f0c208c7bd01b4646cd69c7c3faeeefc63e9613167f604bd0c364736f6c63430008140033",
  "linkReferences": {},
  "deployedLinkReferences": {}
}