{
  "_format": "hh-sol-artifact-1",
  "contractName": "MockWanchainMPC",
  "sourceName": "contracts/test/MockWanchainMPC.sol",
  "abi": [
    {
      "inputs": [
        {
          "internalType": "uint256",
          "name": "_chainId",
          "type": "uint256"
        },
        {
          "internalType": "address",
          "name": "_smgAdminProxy",
          "type": "address"
        },
        {
          "internalType": "address",
          "name": "_sigVerifier",
          "type": "address"
        }
      ],
      "stateMutability": "nonpayable",
      "type": "constructor"
    },
    {
      "inputs": [],
      "name": "chainId",
      "outputs": [
        {
          "internalType": "uint256",
          "name": "",
          "type": "uint256"
        }
      ],
      "stateMutability": "view",
      "type": "function"
    },
    {
      "inputs": [],
      "name": "currentChainID",
      "outputs": [
        {
          "internalType": "uint256",
          "name": "",
          "type": "uint256"
        }
      ],
      "stateMutability": "view",
      "type": "function"
    },
    {
      "inputs": [],
      "name": "getPartners",
      "outputs": [
        {
          "internalType": "address",
          "name": "_tokenManager",
          "type": "address"
        },
        {
          "internalType": "address",
          "name": "_smgAdminProxy",
          "type": "address"
        },
        {
          "internalType": "address",
          "name": "_smgFeeProxy",
          "type": "address"
        },
        {
          "internalType": "address",
          "name": "_quota",
          "type": "address"
        },
        {
          "internalType": "address",
          "name": "_sigVerifier",
          "type": "address"
        }
      ],
      "stateMutability": "view",
      "type": "function"
    },
    {
      "inputs": [
        {
          "internalType": "bytes32",
          "name": "",
          "type": "bytes32"
        }
      ],
      "name": "getStoremanGroupConfig",
      "outputs": [
        {
          "internalType": "bytes32",
          "name": "groupId",
          "type": "bytes32"
        },
        {
          "internalType": "uint8",
          "name": "status",
          "type": "uint8"
        },
        {
          "internalType": "uint256",
          "name": "deposit",
          "type": "uint256"
        },
        {
          "internalType": "uint256",
          "name": "chain1",
          "type": "uint256"
        },
        {
          "internalType": "uint256",
          "name": "chain2",
          "type": "uint256"
        },
        {
          "internalType": "uint256",
          "name": "curve1",
          "type": "uint256"
        },
        {
          "internalType": "uint256",
          "name": "curve2",
          "type": "uint256"
        },
        {
          "internalType": "bytes",
          "name": "gpk1",
          "type": "bytes"
        },
        {
          "internalType": "bytes",
          "name": "gpk2",
          "type": "bytes"
        },
        {
          "internalType": "uint256",
          "name": "startTime",
          "type": "uint256"
        },
        {
          "internalType": "uint256",
          "name": "endTime",
          "type": "uint256"
        }
      ],
      "stateMutability": "view",
      "type": "function"
    },
    {
      "inputs": [],
      "name": "quota",
      "outputs": [
        {
          "internalType": "address",
          "name": "",
          "type": "address"
        }
      ],
      "stateMutability": "view",
      "type": "function"
    },
    {
      "inputs": [
        {
          "internalType": "uint256",
          "name": "_chainId",
          "type": "uint256"
        }
      ],
      "name": "setChainId",
      "outputs": [],
      "stateMutability": "nonpayable",
      "type": "function"
    },
    {
      "inputs": [
        {
          "internalType": "uint8",
          "name": "_status",
          "type": "uint8"
        }
      ],
      "name": "setSmgStatus",
      "outputs": [],
      "stateMutability": "nonpayable",
      "type": "function"
    },
    {
      "inputs": [
        {
          "internalType": "uint256",
          "name": "_startTime",
          "type": "uint256"
        },
        {
          "internalType": "uint256",
          "name": "_endTime",
          "type": "uint256"
        }
      ],
      "name": "setSmgTimes",
      "outputs": [],
      "stateMutability": "nonpayable",
      "type": "function"
    },
    {
      "inputs": [
        {
          "internalType": "bool",
          "name": "_result",
          "type": "bool"
        }
      ],
      "name": "setVerifyResult",
      "outputs": [],
      "stateMutability": "nonpayable",
      "type": "function"
    },
    {
      "inputs": [],
      "name": "sigVerifier",
      "outputs": [
        {
          "internalType": "address",
          "name": "",
          "type": "address"
        }
      ],
      "stateMutability": "view",
      "type": "function"
    },
    {
      "inputs": [],
      "name": "smgAdminProxy",
      "outputs": [
        {
          "internalType": "address",
          "name": "",
          "type": "address"
        }
      ],
      "stateMutability": "view",
      "type": "function"
    },
    {
      "inputs": [],
      "name": "smgChain1",
      "outputs": [
        {
          "internalType": "uint256",
          "name": "",
          "type": "uint256"
        }
      ],
      "stateMutability": "view",
      "type": "function"
    },
    {
      "inputs": [],
      "name": "smgChain2",
      "outputs": [
        {
          "internalType": "uint256",
          "name": "",
          "type": "uint256"
        }
      ],
      "stateMutability": "view",
      "type": "function"
    },
    {
      "inputs": [],
      "name": "smgCurve1",
      "outputs": [
        {
          "internalType": "uint256",
          "name": "",
          "type": "uint256"
        }
      ],
      "stateMutability": "view",
      "type": "function"
    },
    {
      "inputs": [],
      "name": "smgCurve2",
      "outputs": [
        {
          "internalType": "uint256",
          "name": "",
          "type": "uint256"
        }
      ],
      "stateMutability": "view",
      "type": "function"
    },
    {
      "inputs": [],
      "name": "smgDeposit",
      "outputs": [
        {
          "internalType": "uint256",
          "name": "",
          "type": "uint256"
        }
      ],
      "stateMutability": "view",
      "type": "function"
    },
    {
      "inputs": [],
      "name": "smgEndTime",
      "outputs": [
        {
          "internalType": "uint256",
          "name": "",
          "type": "uint256"
        }
      ],
      "stateMutability": "view",
      "type": "function"
    },
    {
      "inputs": [],
      "name": "smgFeeProxy",
      "outputs": [
        {
          "internalType": "address",
          "name": "",
          "type": "address"
        }
      ],
      "stateMutability": "view",
      "type": "function"
    },
    {
      "inputs": [],
      "name": "smgGpk1",
      "outputs": [
        {
          "internalType": "bytes",
          "name": "",
          "type": "bytes"
        }
      ],
      "stateMutability": "view",
      "type": "function"
    },
    {
      "inputs": [],
      "name": "smgGpk2",
      "outputs": [
        {
          "internalType": "bytes",
          "name": "",
          "type": "bytes"
        }
      ],
      "stateMutability": "view",
      "type": "function"
    },
    {
      "inputs": [],
      "name": "smgGroupId",
      "outputs": [
        {
          "internalType": "bytes32",
          "name": "",
          "type": "bytes32"
        }
      ],
      "stateMutability": "view",
      "type": "function"
    },
    {
      "inputs": [],
      "name": "smgStartTime",
      "outputs": [
        {
          "internalType": "uint256",
          "name": "",
          "type": "uint256"
        }
      ],
      "stateMutability": "view",
      "type": "function"
    },
    {
      "inputs": [],
      "name": "smgStatus",
      "outputs": [
        {
          "internalType": "uint8",
          "name": "",
          "type": "uint8"
        }
      ],
      "stateMutability": "view",
      "type": "function"
    },
    {
      "inputs": [],
      "name": "tokenManager",
      "outputs": [
        {
          "internalType": "address",
          "name": "",
          "type": "address"
        }
      ],
      "stateMutability": "view",
      "type": "function"
    },
    {
      "inputs": [
        {
          "internalType": "uint256",
          "name": "",
          "type": "uint256"
        },
        {
          "internalType": "bytes32",
          "name": "",
          "type": "bytes32"
        },
        {
          "internalType": "bytes32",
          "name": "",
          "type": "bytes32"
        },
        {
          "internalType": "bytes32",
          "name": "",
          "type": "bytes32"
        },
        {
          "internalType": "bytes32",
          "name": "",
          "type": "bytes32"
        },
        {
          "internalType": "bytes32",
          "name": "",
          "type": "bytes32"
        },
        {
          "internalType": "bytes32",
          "name": "",
          "type": "bytes32"
        }
      ],
      "name": "verify",
      "outputs": [
        {
          "internalType": "bool",
          "name": "",
          "type": "bool"
        }
      ],
      "stateMutability": "view",
      "type": "function"
    },
    {
      "inputs": [],
      "name": "verifyResult",
      "outputs": [
        {
          "internalType": "bool",
          "name": "",
          "type": "bool"
        }
      ],
      "stateMutability": "view",
      "type": "function"
    }
  ],
  "bytecode": "0x60806040523480156200001157600080fd5b5060405162000b0438038062000b04833981016040819052620000349162000141565b600083815560018054621111016001600160a81b0319909116178155600280546001600160a01b038681166001600160a01b03199283161790925560038054821661333317905560048054821661444417905560058054928616929091169190911781556007805460ff1916909117905560088290556009859055600a829055600b55600c55604080518181526060810182529060208201818036833701905050600d90620000e4908262000227565b50604080518181526060810182529060208201818036833701905050600e906200010f908262000227565b50506000600f555050600019601055620002f3565b80516001600160a01b03811681146200013c57600080fd5b919050565b6000806000606084860312156200015757600080fd5b83519250620001696020850162000124565b9150620001796040850162000124565b90509250925092565b634e487b7160e01b600052604160045260246000fd5b600181811c90821680620001ad57607f821691505b602082108103620001ce57634e487b7160e01b600052602260045260246000fd5b50919050565b601f8211156200022257600081815260208120601f850160051c81016020861015620001fd5750805b601f850160051c820191505b818110156200021e5782815560010162000209565b5050505b505050565b81516001600160401b0381111562000243576200024362000182565b6200025b8162000254845462000198565b84620001d4565b602080601f8311600181146200029357600084156200027a5750858301515b600019600386901b1c1916600185901b1785556200021e565b600085815260208120601f198616915b82811015620002c457888601518255948401946001909101908401620002a3565b5085821015620002e35787850151600019600388901b60f8161c191681555b5050505050600190811b01905550565b61080180620003036000396000f3fe608060405234801561001057600080fd5b506004361061018e5760003560e01c80635afd26db116100de5780639a8a059211610097578063c7b6b08011610071578063c7b6b08014610383578063cebe09c9146103a4578063ef0e2ff4146103b7578063f7abf556146103ca57600080fd5b80639a8a05921461036a578063b0f2b8f914610373578063b179e1e71461037b57600080fd5b80635afd26db146102c95780636a3b024f146102d2578063721ef437146102db57806373e29b0d146102e457806376be7e8214610331578063963bccd01461034657600080fd5b8063373455f51161014b578063457c056311610125578063457c05631461027d5780634587b7b414610286578063472c4155146102a557806348ae793d146102ae57600080fd5b8063373455f514610241578063439458841461024a57806344cefb691461025357600080fd5b80630e514c72146101935780631cad38e9146101b55780631dd35ab8146101d4578063290f3233146101eb5780632a709b14146102165780632bd7f69f1461022e575b600080fd5b6001546101a09060ff1681565b60405190151581526020015b60405180910390f35b6007546101c29060ff1681565b60405160ff90911681526020016101ac565b6101dd600c5481565b6040519081526020016101ac565b6005546101fe906001600160a01b031681565b6040516001600160a01b0390911681526020016101ac565b6001546101fe9061010090046001600160a01b031681565b6002546101fe906001600160a01b031681565b6101dd60105481565b6101dd60065481565b6102666102613660046105f2565b6103dd565b6040516101ac9b9a99989796959493929190610651565b6101dd600a5481565b6101a06102943660046106c4565b60015460ff16979650505050505050565b6101dd600f5481565b6102c76102bc366004610710565b600f91909155601055565b005b6101dd60095481565b6101dd600b5481565b6101dd60085481565b600154600254600354600454600554604080516101009096046001600160a01b0390811687529485166020870152928416928501929092528216606084015216608082015260a0016101ac565b610339610557565b6040516101ac9190610732565b6102c761035436600461074c565b6007805460ff191660ff92909216919091179055565b6101dd60005481565b6103396105e5565b6000546101dd565b6102c761039136600461076f565b6001805460ff1916911515919091179055565b6004546101fe906001600160a01b031681565b6102c76103c53660046105f2565b600055565b6003546101fe906001600160a01b031681565b6000806000806000806000606080600080600654600760009054906101000a900460ff16600854600954600a54600b54600c54600d600e600f5460105483805461042690610791565b80601f016020809104026020016040519081016040528092919081815260200182805461045290610791565b801561049f5780601f106104745761010080835404028352916020019161049f565b820191906000526020600020905b81548152906001019060200180831161048257829003601f168201915b505050505093508280546104b290610791565b80601f01602080910402602001604051908101604052809291908181526020018280546104de90610791565b801561052b5780601f106105005761010080835404028352916020019161052b565b820191906000526020600020905b81548152906001019060200180831161050e57829003601f168201915b505050505092509a509a509a509a509a509a509a509a509a509a509a5091939597999b90929496989a50565b600d805461056490610791565b80601f016020809104026020016040519081016040528092919081815260200182805461059090610791565b80156105dd5780601f106105b2576101008083540402835291602001916105dd565b820191906000526020600020905b8154815290600101906020018083116105c057829003601f168201915b505050505081565b600e805461056490610791565b60006020828403121561060457600080fd5b5035919050565b6000815180845260005b8181101561063157602081850181015186830182015201610615565b506000602082860101526020601f19601f83011685010191505092915050565b60006101608d835260ff8d1660208401528b60408401528a60608401528960808401528860a08401528760c08401528060e08401526106928184018861060b565b90508281036101008401526106a7818761060b565b610120840195909552505061014001529998505050505050505050565b600080600080600080600060e0888a0312156106df57600080fd5b505085359760208701359750604087013596606081013596506080810135955060a0810135945060c0013592509050565b6000806040838503121561072357600080fd5b50508035926020909101359150565b602081526000610745602083018461060b565b9392505050565b60006020828403121561075e57600080fd5b813560ff8116811461074557600080fd5b60006020828403121561078157600080fd5b8135801515811461074557600080fd5b600181811c908216806107a557607f821691505b6020821081036107c557634e487b7160e01b600052602260045260246000fd5b5091905056fea2646970667358221220833373dd11ce92175a3fb308b40379ce01c9eece3f477cacc31ef153bf367c9d64736f6c63430008120033",
  "linkReferences": {},
  "deployedLinkReferences": {}
}