{
  "_format": "hh-sol-artifact-1",
  "contractName": "CardanoAddressExample",
  "sourceName": "contracts/cardano-utils/CardanoAddressTest.sol",
  "abi": [
    {
      "inputs": [
        {
          "internalType": "string",
          "name": "bech32Addr",
          "type": "string"
        },
        {
          "internalType": "bool",
          "name": "f",
          "type": "bool"
        }
      ],
      "name": "decodeAddressExample",
      "outputs": [
        {
          "internalType": "bool",
          "name": "isTestnet",
          "type": "bool"
        },
        {
          "internalType": "uint8",
          "name": "addressType",
          "type": "uint8"
        },
        {
          "internalType": "bytes28",
          "name": "paymentKeyHash",
          "type": "bytes28"
        },
        {
          "internalType": "bool",
          "name": "paymentIsScript",
          "type": "bool"
        },
        {
          "internalType": "bytes28",
          "name": "stakeKeyHash",
          "type": "bytes28"
        },
        {
          "internalType": "bool",
          "name": "stakeIsScript",
          "type": "bool"
        },
        {
          "internalType": "string",
          "name": "addr",
          "type": "string"
        }
      ],
      "stateMutability": "pure",
      "type": "function"
    },
    {
      "inputs": [
        {
          "internalType": "string",
          "name": "addr",
          "type": "string"
        }
      ],
      "name": "extractAddressInfo",
      "outputs": [
        {
          "internalType": "string",
          "name": "network",
          "type": "string"
        },
        {
          "internalType": "string",
          "name": "typeStr",
          "type": "string"
        },
        {
          "internalType": "bytes",
          "name": "keyHash",
          "type": "bytes"
        }
      ],
      "stateMutability": "pure",
      "type": "function"
    },
    {
      "inputs": [
        {
          "internalType": "bytes28",
          "name": "stakeKeyHash",
          "type": "bytes28"
        },
        {
          "internalType": "bool",
          "name": "isTestnet",
          "type": "bool"
        },
        {
          "internalType": "bool",
          "name": "stakeIsScript",
          "type": "bool"
        }
      ],
      "name": "generateRewardAddress",
      "outputs": [
        {
          "internalType": "string",
          "name": "",
          "type": "string"
        }
      ],
      "stateMutability": "pure",
      "type": "function"
    }
  ],
  "bytecode": "0x608060405234801561001057600080fd5b50612424806100206000396000f3fe608060405234801561001057600080fd5b50600436106100415760003560e01c80631e5a06ac14610046578063303a5ffd1461006f578063535f4fd414610091575b600080fd5b610059610054366004611fc6565b6100b7565b6040516100669190612065565b60405180910390f35b61008261007d366004612121565b61011e565b6040516100669392919061215d565b6100a461009f3660046121a0565b610303565b60405161006697969594939291906121ed565b60606100c1611f6b565b8315158152600e602080830191909152600060408084019190915284151560608401525163ffffffff19871691810191909152603c0160408051601f1981840301815291905260a082015261011581610376565b95945050505050565b6060806060600061012e85610693565b805190915061015c576040518060400160405280600781526020016613585a5b9b995d60ca1b81525061017d565b6040518060400160405280600781526020016615195cdd1b995d60ca1b8152505b9350806020015160ff166001036101e6576040518060400160405280600c81526020016b42617365204164647265737360a01b815250925080608001518160a001516040516020016101d0929190612238565b60405160208183030381529060405291506102fb565b806020015160ff166006036102375760405180604001604052806012815260200171456e7465727072697365204164647265737360701b815250925080608001516040516020016101d09190612267565b806020015160ff16600e03610284576040518060400160405280600e81526020016d526577617264204164647265737360901b81525092508060a001516040516020016101d09190612267565b806020015160ff166004036102c9576040518060400160405280600f81526020016e506f696e746572204164647265737360881b81525092508060c0015191506102fb565b60408051808201825260078152662ab735b737bbb760c91b602080830191909152825160008152908101909252935091505b509193909250565b600080600080600080606060006103198a610693565b90508060000151975080602001519650806080015161033790612283565b9550806040015194508060a0015161034e90612283565b93508060600151925088156103695761036681610376565b91505b5092959891949750929550565b6060806060600061038685610927565b602086015190915060ff1661048f57846080015151601c1480156103af57508460a0015151601c145b61040c5760405162461bcd60e51b8152602060048201526024808201527f496e76616c69642068617368206c656e67746820666f722062617365206164646044820152637265737360e01b60648201526084015b60405180910390fd5b8085608001518660a00151604051602001610429939291906122b7565b60405160208183030381529060405291508460000151610465576040518060400160405280600481526020016330b2323960e11b815250610488565b604051806040016040528060098152602001681859191c97dd195cdd60ba1b8152505b9250610689565b600660ff16856020015160ff160361051f57846080015151601c146105095760405162461bcd60e51b815260206004820152602a60248201527f496e76616c69642068617368206c656e67746820666f7220656e7465727072696044820152697365206164647265737360b01b6064820152608401610403565b60808501516040516104299183916020016122fc565b600e60ff16856020015160ff1603610612578460a0015151601c146105955760405162461bcd60e51b815260206004820152602660248201527f496e76616c69642068617368206c656e67746820666f7220726577617264206160448201526564647265737360d01b6064820152608401610403565b60a08501516040516105ab9183916020016122fc565b604051602081830303815290604052915084600001516105e857604051806040016040528060058152602001647374616b6560d81b815250610488565b6040518060400160405280600a8152602001691cdd185ad957dd195cdd60b21b8152509250610689565b600460ff16856020015160ff1603610641578085608001518660c00151604051602001610429939291906122b7565b60405162461bcd60e51b815260206004820152601860248201527f556e737570706f727465642061646472657373207479706500000000000000006044820152606401610403565b6101158383610979565b61069b611f6b565b8160001960005b82518110156106f0578281815181106106bd576106bd61232b565b01602001516001600160f81b031916603160f81b036106de578091506106f0565b806106e881612357565b9150506106a2565b5060008112156107375760405162461bcd60e51b8152602060048201526012602482015271139bc81cd95c185c985d1bdc88199bdd5b9960721b6044820152606401610403565b6000816001600160401b038111156107515761075161207f565b6040519080825280601f01601f19166020018201604052801561077b576020820181803683370190505b50905060005b828110156107e15783818151811061079b5761079b61232b565b602001015160f81c60f81b8282815181106107b8576107b861232b565b60200101906001600160f81b031916908160001a905350806107d981612357565b915050610781565b50600060018385516107f39190612370565b6107fd9190612370565b90506000816001600160401b038111156108195761081961207f565b6040519080825280601f01601f191660200182016040528015610843576020820181803683370190505b50905060005b828110156108be57858161085e876001612383565b6108689190612383565b815181106108785761087861232b565b602001015160f81c60f81b8282815181106108955761089561232b565b60200101906001600160f81b031916908160001a905350806108b681612357565b915050610849565b506000806108cc8584610cdd565b91509150816109105760405162461bcd60e51b815260206004820152601060248201526f496e76616c696420636865636b73756d60801b6044820152606401610403565b61091a8186610f7c565b9998505050505050505050565b600080826000015161093a57600161093d565b60005b6020840151610ff0600482901b16909117915060ff1661096557826060015115610965576020175b826040015115610973576010175b92915050565b6060600061098683611703565b90506000610994858361188e565b90506000825160066109a69190612383565b6001600160401b038111156109bd576109bd61207f565b6040519080825280602002602001820160405280156109e6578160200160208202803683370190505b50905060005b8351811015610a4c57838181518110610a0757610a0761232b565b6020026020010151828281518110610a2157610a2161232b565b6001600160d81b03199092166020928302919091019091015280610a4481612357565b9150506109ec565b5060005b6006811015610abc57828181518110610a6b57610a6b61232b565b602002602001015182828651610a819190612383565b81518110610a9157610a9161232b565b6001600160d81b03199092166020928302919091019091015280610ab481612357565b915050610a50565b506040805180820190915260208082527f71707a7279397838676632747664773073336a6e35346b686365366d7561376c908201528151875160009190610b04906001612383565b610b0e9190612383565b6001600160401b03811115610b2557610b2561207f565b6040519080825280601f01601f191660200182016040528015610b4f576020820181803683370190505b50905060005b8851811015610bb657888181518110610b7057610b7061232b565b602001015160f81c60f81b828281518110610b8d57610b8d61232b565b60200101906001600160f81b031916908160001a90535080610bae81612357565b915050610b55565b50603160f81b81895181518110610bcf57610bcf61232b565b60200101906001600160f81b031916908160001a90535060005b8351811015610cd1576000848281518110610c0657610c0661232b565b602002602001015160f81c905060208160ff1610610c5c5760405162461bcd60e51b8152602060048201526013602482015272496e76616c696420352d6269742076616c756560681b6044820152606401610403565b838160ff1681518110610c7157610c7161232b565b602001015160f81c60f81b83838c516001610c8c9190612383565b610c969190612383565b81518110610ca657610ca661232b565b60200101906001600160f81b031916908160001a905350508080610cc990612357565b915050610be9565b50979650505050505050565b60006060600083516001600160401b03811115610cfc57610cfc61207f565b604051908082528060200260200182016040528015610d25578160200160208202803683370190505b506040805180820190915260208082527f71707a7279397838676632747664773073336a6e35346b686365366d7561376c9082015290915060005b8551811015610e7e576000805b60208160ff161015610e1d57838160ff1681518110610d8e57610d8e61232b565b602001015160f81c60f81b6001600160f81b031916888481518110610db557610db561232b565b01602001516001600160f81b03191603610e0b578060f81b6001600160f81b031916858481518110610de957610de961232b565b6001600160d81b03199092166020928302919091019091015260019150610e1d565b80610e1581612396565b915050610d6d565b5080610e6b5760405162461bcd60e51b815260206004820152601e60248201527f496e76616c69642063686172616374657220696e2064617461207061727400006044820152606401610403565b5080610e7681612357565b915050610d60565b50610e898683611bfc565b935083610eab5760408051600080825260208201909252935093505050610f75565b600060068351610ebb9190612370565b6001600160401b03811115610ed257610ed261207f565b604051908082528060200260200182016040528015610efb578160200160208202803683370190505b50905060005b8151811015610f6157838181518110610f1c57610f1c61232b565b6020026020010151828281518110610f3657610f3661232b565b6001600160d81b03199092166020928302919091019091015280610f5981612357565b915050610f01565b50610f6b81611e2f565b9350600194505050505b9250929050565b610f84611f6b565b601d83511015610fca5760405162461bcd60e51b81526020600482015260116024820152701059191c995cdcc81d1bdbc81cda1bdc9d607a1b6044820152606401610403565b610fd2611f6b565b60408051808201909152600481526330b2323960e11b60209182015283519084012083907fe5e14487b78f85faa6e1808e89246cf57dd34831548ff2e6097380d98db2504a148061106457506040805180820190915260058152647374616b6560d81b6020918201528151908201207fc3a04795accb4b73d12f13b05a1e0e240cefeb9a89d008676730867a819d2f79145b156110725760008252611150565b6040805180820190915260098152681859191c97dd195cdd60ba1b6020918201528151908201207fd1392e889fc01eed092920a32893774162e7daa9869e839a6759b607f9b948ed148061110c575060408051808201909152600a8152691cdd185ad957dd195cdd60b21b6020918201528151908201207f6a5316640008ed91ef36add9e74b078217dbe91a7c62ee2c0bf8e85bb4d0525b145b1561111a5760018252611150565b60405162461bcd60e51b815260206004820152600b60248201526a0556e6b6e6f776e204852560ac1b6044820152606401610403565b6000856000815181106111655761116561232b565b0160200151835160f89190911c9150600f8216908015611186575060ff8116155b8061119e5750835115801561119e575060ff81166001145b6111e05760405162461bcd60e51b815260206004820152601360248201527209ccae8eedee4d640928840dad2e6dac2e8c6d606b1b6044820152606401610403565b600482901c600e8116602086018190526001918216909114604086015261138e5786516039146112525760405162461bcd60e51b815260206004820152601b60248201527f496e76616c696420426173652061646472657373206c656e67746800000000006044820152606401610403565b6001600383901c811614606085015260408051601c80825281830190925290602082018180368337505050608085015260005b601c8110156112f4578761129a826001612383565b815181106112aa576112aa61232b565b602001015160f81c60f81b856080015182815181106112cb576112cb61232b565b60200101906001600160f81b031916908160001a905350806112ec81612357565b915050611285565b5060408051601c8082528183019092529060208201818036833750505060a085015260005b601c811015611388578761132e82601d612383565b8151811061133e5761133e61232b565b602001015160f81c60f81b8560a00151828151811061135f5761135f61232b565b60200101906001600160f81b031916908160001a9053508061138081612357565b915050611319565b506116f8565b600660ff16846020015160ff160361148e578651601d146113fb5760405162461bcd60e51b815260206004820152602160248201527f496e76616c696420456e74657270726973652061646472657373206c656e67746044820152600d60fb1b6064820152608401610403565b60408051601c80825281830190925290602082018180368337505050608085015260005b601c8110156113885787611434826001612383565b815181106114445761144461232b565b602001015160f81c60f81b856080015182815181106114655761146561232b565b60200101906001600160f81b031916908160001a9053508061148681612357565b91505061141f565b600e60ff16846020015160ff1603611584578651601d146114f15760405162461bcd60e51b815260206004820152601d60248201527f496e76616c6964205265776172642061646472657373206c656e6774680000006044820152606401610403565b60408051601c8082528183019092529060208201818036833750505060a085015260005b601c811015611388578761152a826001612383565b8151811061153a5761153a61232b565b602001015160f81c60f81b8560a00151828151811061155b5761155b61232b565b60200101906001600160f81b031916908160001a9053508061157c81612357565b915050611515565b600460ff16846020015160ff1603610641576000601d88516115a69190612370565b60408051601c808252818301909252919250602082018180368337505050608086015260005b601c81101561163b57886115e1826001612383565b815181106115f1576115f161232b565b602001015160f81c60f81b866080015182815181106116125761161261232b565b60200101906001600160f81b031916908160001a9053508061163381612357565b9150506115cc565b50806001600160401b038111156116545761165461207f565b6040519080825280601f01601f19166020018201604052801561167e576020820181803683370190505b5060c086015260005b818110156116f5578861169b82601d612383565b815181106116ab576116ab61232b565b602001015160f81c60f81b8660c0015182815181106116cc576116cc61232b565b60200101906001600160f81b031916908160001a905350806116ed81612357565b915050611687565b50505b509195945050505050565b60606000601f9050600060058451600861171d91906123b5565b611728906004612383565b61173291906123cc565b6001600160401b038111156117495761174961207f565b604051908082528060200260200182016040528015611772578160200160208202803683370190505b5090506000806000805b8751811015611828578781815181106117975761179761232b565b60209101015160f81c600893841b17926117b19083612383565b91505b60058210611816576117c7600583612370565b91506001600160f81b031983831c871660f81b1685856117e681612357565b9650815181106117f8576117f861232b565b6001600160d81b0319909216602092830291909101909101526117b4565b8061182081612357565b91505061177c565b5080156116f8578461183b826005612370565b83901b1660f81b6001600160f81b03191684848061185890612357565b95508151811061186a5761186a61232b565b6001600160d81b031990921660209283029190910190910152509195945050505050565b60606000835160026118a091906123b5565b83516118ac9190612383565b6118b7906007612383565b6001600160401b038111156118ce576118ce61207f565b6040519080825280602002602001820160405280156118f7578160200160208202803683370190505b5090506000805b855181101561195f57600586828151811061191b5761191b61232b565b016020015160f81c901c838361193081612357565b9450815181106119425761194261232b565b60209081029190910101528061195781612357565b9150506118fe565b506000828261196d81612357565b93508151811061197f5761197f61232b565b60200260200101818152505060005b85518110156119ef578581815181106119a9576119a961232b565b60209101015160f81c601f1683836119c081612357565b9450815181106119d2576119d261232b565b6020908102919091010152806119e781612357565b91505061198e565b5060005b8451811015611a5757848181518110611a0e57611a0e61232b565b602002602001015160f81c60ff16838380611a2890612357565b945081518110611a3a57611a3a61232b565b602090810291909101015280611a4f81612357565b9150506119f3565b5060005b6006811015611aa05760008383611a7181612357565b945081518110611a8357611a8361232b565b602090810291909101015280611a9881612357565b915050611a5b565b50600160005b8351811015611b54576000601983901c9050848281518110611aca57611aca61232b565b60200260200101516005846301ffffff16901b18925080600116600014611af557633b6a57b2831892505b6002811615611b08576326508e6d831892505b6004811615611b1b57631ea119fa831892505b6008811615611b2e57633d4233dd831892505b6010811615611b4157632a1462b3831892505b5080611b4c81612357565b915050611aa6565b5060408051600680825260e08201909252600192909218916000916020820160c08036833701905050905060005b6006811015611bf157611b96816005612370565b611ba19060056123b5565b83901c601f1660f81b6001600160f81b031916828281518110611bc657611bc661232b565b6001600160d81b03199092166020928302919091019091015280611be981612357565b915050611b82565b509695505050505050565b6000600682511015611c505760405162461bcd60e51b815260206004820152601b60248201527f4461746120746f6f2073686f727420666f7220636865636b73756d00000000006044820152606401610403565b600060068351611c609190612370565b6001600160401b03811115611c7757611c7761207f565b604051908082528060200260200182016040528015611ca0578160200160208202803683370190505b5060408051600680825260e08201909252919250600091906020820160c08036833701905050905060005b8251811015611d2b57848181518110611ce657611ce661232b565b6020026020010151838281518110611d0057611d0061232b565b6001600160d81b03199092166020928302919091019091015280611d2381612357565b915050611ccb565b5060005b6006811015611d9b5784818451611d469190612383565b81518110611d5657611d5661232b565b6020026020010151828281518110611d7057611d7061232b565b6001600160d81b03199092166020928302919091019091015280611d9381612357565b915050611d2f565b506000611da8868461188e565b905060005b6006811015611e2257818181518110611dc857611dc861232b565b60200260200101516001600160d81b031916838281518110611dec57611dec61232b565b60200260200101516001600160d81b03191614611e10576000945050505050610973565b80611e1a81612357565b915050611dad565b5060019695505050505050565b606060008060006001600886516005611e4891906123b5565b611e53906007612383565b611e5d91906123cc565b611e679190612370565b6001600160401b03811115611e7e57611e7e61207f565b6040519080825280601f01601f191660200182016040528015611ea8576020820181803683370190505b5090506000805b8651811015611f6057868181518110611eca57611eca61232b565b602002602001015160f81c60ff16600586901b179450600584611eed9190612383565b93505b60088410611f4e57611f03600885612370565b93506001600160f81b031985851c60f81b168383611f2081612357565b945081518110611f3257611f3261232b565b60200101906001600160f81b031916908160001a905350611ef0565b80611f5881612357565b915050611eaf565b509095945050505050565b6040518060e00160405280600015158152602001600060ff1681526020016000151581526020016000151581526020016060815260200160608152602001606081525090565b80358015158114611fc157600080fd5b919050565b600080600060608486031215611fdb57600080fd5b833563ffffffff1981168114611ff057600080fd5b9250611ffe60208501611fb1565b915061200c60408501611fb1565b90509250925092565b60005b83811015612030578181015183820152602001612018565b50506000910152565b60008151808452612051816020860160208601612015565b601f01601f19169290920160200192915050565b6020815260006120786020830184612039565b9392505050565b634e487b7160e01b600052604160045260246000fd5b600082601f8301126120a657600080fd5b81356001600160401b03808211156120c0576120c061207f565b604051601f8301601f19908116603f011681019082821181831017156120e8576120e861207f565b8160405283815286602085880101111561210157600080fd5b836020870160208301376000602085830101528094505050505092915050565b60006020828403121561213357600080fd5b81356001600160401b0381111561214957600080fd5b61215584828501612095565b949350505050565b6060815260006121706060830186612039565b82810360208401526121828186612039565b905082810360408401526121968185612039565b9695505050505050565b600080604083850312156121b357600080fd5b82356001600160401b038111156121c957600080fd5b6121d585828601612095565b9250506121e460208401611fb1565b90509250929050565b871515815260ff87166020820152600063ffffffff198088166040840152861515606084015280861660808401525083151560a083015260e060c083015261091a60e0830184612039565b6000835161224a818460208801612015565b83519083019061225e818360208801612015565b01949350505050565b60008251612279818460208701612015565b9190910192915050565b8051602082015163ffffffff19808216929190601c8310156122af57808184601c0360031b1b83161693505b505050919050565b60ff60f81b8460f81b168152600083516122d8816001850160208801612015565b8351908301906122ef816001840160208801612015565b0160010195945050505050565b60ff60f81b8360f81b1681526000825161231d816001850160208701612015565b919091016001019392505050565b634e487b7160e01b600052603260045260246000fd5b634e487b7160e01b600052601160045260246000fd5b60006001820161236957612369612341565b5060010190565b8181038181111561097357610973612341565b8082018082111561097357610973612341565b600060ff821660ff81036123ac576123ac612341565b60010192915050565b808202811582820484141761097357610973612341565b6000826123e957634e487b7160e01b600052601260045260246000fd5b50049056fea26469706673582212208dccb1c09113ee499f39d57dd8766511c49294e74a5fb2f1b019e80bd53ddb9264736f6c63430008140033",
  "linkReferences": {},
  "deployedLinkReferences": {}
}