{
  "_format": "hh-sol-artifact-1",
  "contractName": "PlutusDataTest",
  "sourceName": "contracts/test/PlutusDataTest.sol",
  "abi": [
    {
      "inputs": [
        {
          "internalType": "uint256",
          "name": "alternative",
          "type": "uint256"
        },
        {
          "internalType": "uint256",
          "name": "fieldsCount",
          "type": "uint256"
        }
      ],
      "name": "newConstrEncoded",
      "outputs": [
        {
          "internalType": "bytes",
          "name": "",
          "type": "bytes"
        }
      ],
      "stateMutability": "pure",
      "type": "function"
    },
    {
      "inputs": [
        {
          "internalType": "uint256",
          "name": "alternative",
          "type": "uint256"
        },
        {
          "internalType": "uint256",
          "name": "fieldsCount",
          "type": "uint256"
        }
      ],
      "name": "newConstrInfo",
      "outputs": [
        {
          "internalType": "uint8",
          "name": "majorType",
          "type": "uint8"
        },
        {
          "internalType": "uint256",
          "name": "tagNumber",
          "type": "uint256"
        },
        {
          "internalType": "uint256",
          "name": "outerArrayLen",
          "type": "uint256"
        },
        {
          "internalType": "uint256",
          "name": "innerArrayLen",
          "type": "uint256"
        }
      ],
      "stateMutability": "pure",
      "type": "function"
    },
    {
      "inputs": [
        {
          "internalType": "uint256",
          "name": "alternative",
          "type": "uint256"
        },
        {
          "internalType": "bytes",
          "name": "fieldData",
          "type": "bytes"
        }
      ],
      "name": "testAddGetBytesField",
      "outputs": [
        {
          "internalType": "bytes",
          "name": "retrievedData",
          "type": "bytes"
        },
        {
          "internalType": "uint8",
          "name": "retrievedMajorType",
          "type": "uint8"
        }
      ],
      "stateMutability": "pure",
      "type": "function"
    },
    {
      "inputs": [
        {
          "internalType": "uint256",
          "name": "alternative",
          "type": "uint256"
        },
        {
          "internalType": "uint64",
          "name": "fieldValue",
          "type": "uint64"
        }
      ],
      "name": "testAddGetIntField",
      "outputs": [
        {
          "internalType": "uint256",
          "name": "retrievedIntValue",
          "type": "uint256"
        },
        {
          "internalType": "uint8",
          "name": "retrievedMajorType",
          "type": "uint8"
        }
      ],
      "stateMutability": "pure",
      "type": "function"
    },
    {
      "inputs": [
        {
          "internalType": "uint256",
          "name": "alternative",
          "type": "uint256"
        },
        {
          "internalType": "uint64",
          "name": "fieldValue",
          "type": "uint64"
        }
      ],
      "name": "testConstrRoundtrip",
      "outputs": [
        {
          "internalType": "bytes",
          "name": "encoded",
          "type": "bytes"
        },
        {
          "internalType": "uint256",
          "name": "decodedTagNumber",
          "type": "uint256"
        },
        {
          "internalType": "uint256",
          "name": "decodedFieldInt",
          "type": "uint256"
        }
      ],
      "stateMutability": "pure",
      "type": "function"
    },
    {
      "inputs": [
        {
          "internalType": "uint256",
          "name": "alternative",
          "type": "uint256"
        },
        {
          "internalType": "uint256",
          "name": "fieldsCount",
          "type": "uint256"
        }
      ],
      "name": "testFieldSize",
      "outputs": [
        {
          "internalType": "uint256",
          "name": "",
          "type": "uint256"
        }
      ],
      "stateMutability": "pure",
      "type": "function"
    },
    {
      "inputs": [
        {
          "internalType": "bytes",
          "name": "data",
          "type": "bytes"
        }
      ],
      "name": "testToPlutusDataBytes",
      "outputs": [
        {
          "internalType": "uint8",
          "name": "majorType",
          "type": "uint8"
        },
        {
          "internalType": "bytes",
          "name": "storedData",
          "type": "bytes"
        }
      ],
      "stateMutability": "pure",
      "type": "function"
    },
    {
      "inputs": [
        {
          "internalType": "bytes",
          "name": "pubKeyOrScriptHash",
          "type": "bytes"
        },
        {
          "internalType": "bool",
          "name": "isScriptHash",
          "type": "bool"
        }
      ],
      "name": "testToPlutusDataCredential",
      "outputs": [
        {
          "internalType": "uint256",
          "name": "tagNumber",
          "type": "uint256"
        },
        {
          "internalType": "uint8",
          "name": "fieldMajorType",
          "type": "uint8"
        },
        {
          "internalType": "bytes",
          "name": "fieldData",
          "type": "bytes"
        }
      ],
      "stateMutability": "pure",
      "type": "function"
    },
    {
      "inputs": [
        {
          "internalType": "uint64",
          "name": "n",
          "type": "uint64"
        }
      ],
      "name": "testToPlutusDataInteger",
      "outputs": [
        {
          "internalType": "uint8",
          "name": "majorType",
          "type": "uint8"
        },
        {
          "internalType": "uint256",
          "name": "intValue",
          "type": "uint256"
        }
      ],
      "stateMutability": "pure",
      "type": "function"
    }
  ],
  "bytecode": "0x608060405234801561001057600080fd5b50612ba3806100206000396000f3fe608060405234801561001057600080fd5b50600436106100935760003560e01c8063a0d88d4811610066578063a0d88d4814610130578063b0551a011461015a578063b780b4361461017a578063d3c95b261461019c578063de3a2bea146101d357600080fd5b8063388c55011461009857806380867138146100c257806380c0dd98146100e35780639220bd5e14610104575b600080fd5b6100ab6100a636600461279c565b6101f5565b6040516100b9929190612828565b60405180910390f35b6100d56100d036600461284d565b610258565b6040516100b9929190612881565b6100f66100f13660046128a5565b61028c565b6040519081526020016100b9565b6101176101123660046128e3565b6102ae565b6040805160ff90931683526020830191909152016100b9565b61014361013e3660046128fe565b6102e1565b6040805192835260ff9091166020830152016100b9565b61016d6101683660046128a5565b610338565b6040516100b9919061292a565b61018d61018836600461293d565b610351565b6040516100b993929190612993565b6101af6101aa3660046128a5565b6103a0565b6040805160ff909516855260208501939093529183015260608201526080016100b9565b6101e66101e13660046128fe565b610405565b6040516100b9939291906129b5565b6060600080610205856001610498565b9050600061021285610519565b905061022082826000610530565b600061022d8360006105db565b9050806020015194508060000151600781111561024c5761024c6129da565b93505050509250929050565b60006060600061026784610519565b8051909150600781111561027d5761027d6129da565b92508060200151915050915091565b6000806102998484610498565b90506102a4816106c6565b9150505b92915050565b60008060006102bc8461080e565b805190915060078111156102d2576102d26129da565b92508060400151915050915091565b60008060006102f1856001610498565b905060006102fe8561080e565b905061030c82826000610530565b60006103198360006105db565b9050806040015194508060000151600781111561024c5761024c6129da565b606060006103468484610498565b90506102a48161082e565b600080606060006103628686610896565b90508060800151935060006103788260006105db565b8051909150600781111561038e5761038e6129da565b93508060200151925050509250925092565b60008060008060006103b28787610498565b805190915060078111156103c8576103c86129da565b6080820151606083015180519297509095509093506000846103ec576103ec6129f0565b6020026020010151606001515191505092959194509250565b60606000806000610417866001610498565b905061042d816104268761080e565b6000610530565b6104368161082e565b93506000610443856108eb565b9050806080015193508060600151600081518110610463576104636129f0565b602002602001015160600151600081518110610481576104816129f0565b602002602001015160400151925050509250925092565b6104a06126ca565b600681526104af836079612a1c565b608082015260408051600180825281830190925290816020015b6104d16126ca565b8152602001906001900390816104c957505060608201526104f182610917565b8160600151600081518110610508576105086129f0565b602002602001018190525092915050565b6105216126ca565b60028152602081019190915290565b600683516007811115610545576105456129da565b1461056b5760405162461bcd60e51b815260040161056290612a2f565b60405180910390fd5b8260600151516001146105ad5760405162461bcd60e51b815260206004820152600a6024820152693130b21031b7b739ba3960b11b6044820152606401610562565b6105d683606001516000815181106105c7576105c76129f0565b6020026020010151838361097f565b505050565b6105e36126ca565b6006835160078111156105f8576105f86129da565b146106155760405162461bcd60e51b815260040161056290612a2f565b6000836060015160008151811061062e5761062e6129f0565b6020026020010151606001515190508083106106815760405162461bcd60e51b81526020600482015260126024820152711a5b99195e081bdd5d081bd988189bdd5b9960721b6044820152606401610562565b8360600151600081518110610698576106986129f0565b60200260200101516060015183815181106106b5576106b56129f0565b602002602001015191505092915050565b60006006825160078111156106dd576106dd6129da565b146106fa5760405162461bcd60e51b815260040161056290612a2f565b8160600151516001146107595760405162461bcd60e51b815260206004820152602160248201527f706c75747573446174612e617272617956616c75652e6c656e677468203d3d206044820152603160f81b6064820152608401610562565b60008260600151600081518110610772576107726129f0565b602002602001015190506004600781111561078f5761078f6129da565b815160078111156107a2576107a26129da565b146108035760405162461bcd60e51b815260206004820152602b60248201527f66696c6564732e6d616a6f7254797065203d3d20524643383934392e4d616a6f60448201526a72547970652e417272617960a81b6064820152608401610562565b606001515192915050565b6108166126ca565b600081526001600160401b0391909116604082015290565b60606000604051806020016040528060006001600160401b03811115610856576108566126fa565b6040519080825280601f01601f191660200182016040528015610880576020820181803683370190505b509052905061088f8184610a49565b5192915050565b61089e6126ca565b6000826108ac5760006108af565b60015b60ff16905060006108c1826001610498565b90506108cb6126ca565b60028152602081018690526108e282826000610530565b50949350505050565b6108f36126ca565b604080518082019091528281526000602082015261091081611164565b9392505050565b61091f6126ca565b60048152816001600160401b0381111561093b5761093b6126fa565b60405190808252806020026020018201604052801561097457816020015b6109616126ca565b8152602001906001900390816109595790505b506060820152919050565b600483516007811115610994576109946129da565b146109d95760405162461bcd60e51b81526020600482015260156024820152746e6f742061206172726179706c757475736461746160581b6044820152606401610562565b8083606001515111610a225760405162461bcd60e51b81526020600482015260126024820152711a5b99195e081bdd5d081bd988189bdd5b9960721b6044820152606401610562565b8183606001518281518110610a3957610a396129f0565b6020026020010181905250505050565b600081516007811115610a5e57610a5e6129da565b03610a7757610a73826000836040015161130b565b5050565b600181516007811115610a8c57610a8c6129da565b03610aa157610a73826001836040015161130b565b600281516007811115610ab657610ab66129da565b03610bc4576000600560025b60ff16901b9050600082602001515190506018816001600160401b03161015610af657610af184828417611590565b610bb0565b60ff816001600160401b031611610b1e57610b148483601817611590565b610af18482611590565b61ffff816001600160401b031611610b5557610b3d8483601917611590565b610af184610b508361ffff166002611685565b611751565b63ffffffff816001600160401b031611610b8b57610b768483601a17611590565b610af184610b508363ffffffff166004611685565b610b988483601b17611590565b610bb084610b50836001600160401b03166008611685565b610bbe848460200151611751565b50505050565b600381516007811115610bd957610bd96129da565b03610be957600060056003610ac2565b600481516007811115610bfe57610bfe6129da565b03610d345760608101515160809060186001600160401b0382161015610c2f57610c2a84828417611590565b610ce4565b60ff816001600160401b031611610c5757610c4d8483601817611590565b610c2a8482611590565b61ffff816001600160401b031611610c8957610c768483601917611590565b610c2a84610b508361ffff166002611685565b63ffffffff816001600160401b031611610cbf57610caa8483601a17611590565b610c2a84610b508363ffffffff166004611685565b610ccc8483601b17611590565b610ce484610b50836001600160401b03166008611685565b60005b836060015151811015610d2d57610d1b8585606001518381518110610d0e57610d0e6129f0565b6020026020010151610a49565b80610d2581612a53565b915050610ce7565b5050505050565b600581516007811115610d4957610d496129da565b03610ea25760608101515160a090600090610d6690600290612a6c565b90506018816001600160401b03161015610d8b57610d8684828417611590565b610e40565b60ff816001600160401b031611610db357610da98483601817611590565b610d868482611590565b61ffff816001600160401b031611610de557610dd28483601917611590565b610d8684610b508361ffff166002611685565b63ffffffff816001600160401b031611610e1b57610e068483601a17611590565b610d8684610b508363ffffffff166004611685565b610e288483601b17611590565b610e4084610b50836001600160401b03166008611685565b60005b836060015151811015610d2d57610e6a8585606001518381518110610d0e57610d0e6129f0565b610e90858560600151836001610e809190612a1c565b81518110610d0e57610d0e6129f0565b610e9b600282612a1c565b9050610e43565b600681516007811115610eb757610eb76129da565b03610feb57608081015160c0906018811015610ede57610ed984828417611590565b610fc5565b60ff8111610efd57610ef38483601817611590565b610ed98482611590565b61ffff8111610f2657610f138483601917611590565b610ed984610b508361ffff166002611685565b63ffffffff8111610f5357610f3e8483601a17611590565b610ed984610b508363ffffffff166004611685565b6001600160401b038111610f8657610f6e8483601b17611590565b610ed984610b50836001600160401b03166008611685565b60405162461bcd60e51b8152602060048201526014602482015273546167206e756d62657220746f6f206c6172676560601b6044820152606401610562565b60608301515115610bbe57610bbe848460600151600081518110610d0e57610d0e6129f0565b600781516007811115611000576110006129da565b03610a735760208101515160e0906000036110c457816040015160000361102e576105d68360148317611590565b8160400151600103611047576105d68360158317611590565b8160400151600003611060576105d68360168317611590565b60208260400151106110b45760405162461bcd60e51b815260206004820152601960248201527f53696d706c652076616c7565206f7574206f662072616e6765000000000000006044820152606401610562565b6105d68383604001518317611590565b8160200151516002036110e3576110de8360198317611590565b611156565b8160200151516004036110fd576110de83601a8317611590565b816020015151600803611117576110de83601b8317611590565b60405162461bcd60e51b8152602060048201526014602482015273092dcecc2d8d2c840ccd8dec2e840d8cadccee8d60631b6044820152606401610562565b6105d6838360200151611751565b61116c6126ca565b8151516020830151106111b55760405162461bcd60e51b8152602060048201526011602482015270496e73756666696369656e74206461746160781b6044820152606401610562565b600082600001518360200151815181106111d1576111d16129f0565b01602090810151908401805160f89290921c92506111ee82612a53565b90525060006007600583901c81169081111561120c5761120c6129da565b9050601f82166000826007811115611226576112266129da565b148061124357506001826007811115611241576112416129da565b145b1561125c57611253858383611889565b95945050505050565b6002826007811115611270576112706129da565b148061128d5750600382600781111561128b5761128b6129da565b145b1561129d5761125385838361192e565b60048260078111156112b1576112b16129da565b14806112ce575060058260078111156112cc576112cc6129da565b145b156112de57611253858383611aec565b60068260078111156112f2576112f26129da565b03611301576112538582611e6d565b6112538582611f06565b60006005836007811115611321576113216129da565b60ff16901b9050600183600781111561133c5761133c6129da565b0361146d576001600160401b038211156113a45760405162461bcd60e51b8152602060048201526024808201527f56616c756520746f6f206c6172676520666f72206e6567617469766520696e7460448201526332b3b2b960e11b6064820152608401610562565b60006113b1836001612a1c565b905060188110156113cd576113c885828417611590565b611467565b60ff81116113ec576113e28583601817611590565b6113c88582611590565b61ffff8111611415576114028583601917611590565b6113c885610b508361ffff166002611685565b63ffffffff81116114425761142d8583601a17611590565b6113c885610b508363ffffffff166004611685565b61144f8583601b17611590565b61146785610b50836001600160401b03166008611685565b50610bbe565b60188210156114875761148284838317611590565b610bbe565b60ff82116114a65761149c8482601817611590565b6114828483611590565b61ffff82116114cf576114bc8482601917611590565b61148284610b508461ffff166002611685565b63ffffffff82116114fc576114e78482601a17611590565b61148284610b508463ffffffff166004611685565b6001600160401b03821161152f576115178482601b17611590565b61148284610b50846001600160401b03166008611685565b60405162461bcd60e51b815260206004820152603060248201527f56616c756520746f6f206c6172676520666f722075696e7436342c207573652060448201526f546167203220666f72206269676e756d60801b6064820152608401610562565b8151516000906115a1906001612a1c565b6001600160401b038111156115b8576115b86126fa565b6040519080825280601f01601f1916602001820160405280156115e2576020820181803683370190505b50905060005b83515181101561164c578351805182908110611606576116066129f0565b602001015160f81c60f81b828281518110611623576116236129f0565b60200101906001600160f81b031916908160001a9053508061164481612a53565b9150506115e8565b508160f81b8184600001515181518110611668576116686129f0565b60200101906001600160f81b031916908160001a90535090915250565b606060008260ff166001600160401b038111156116a4576116a46126fa565b6040519080825280601f01601f1916602001820160405280156116ce576020820181803683370190505b50905060005b8360ff168160ff161015611749576116ed816008612a8e565b60ff1685901c60f81b8282611703600188612ab1565b61170d9190612ab1565b60ff1681518110611720576117206129f0565b60200101906001600160f81b031916908160001a9053508061174181612aca565b9150506116d4565b509392505050565b805182515160009161176291612a1c565b6001600160401b03811115611779576117796126fa565b6040519080825280601f01601f1916602001820160405280156117a3576020820181803683370190505b50905060005b83515181101561180d5783518051829081106117c7576117c76129f0565b602001015160f81c60f81b8282815181106117e4576117e46129f0565b60200101906001600160f81b031916908160001a9053508061180581612a53565b9150506117a9565b5060005b82518110156118825782818151811061182c5761182c6129f0565b602001015160f81c60f81b82828660000151516118499190612a1c565b81518110611859576118596129f0565b60200101906001600160f81b031916908160001a9053508061187a81612a53565b915050611811565b5090915250565b6118916126ca565b600061189d8584612224565b90506001600160401b0381166118b16126ca565b808660078111156118c4576118c46129da565b908160078111156118d7576118d76129da565b90525060018660078111156118ee576118ee6129da565b0361191c57816000036119075760006040820152611924565b611912600183612ae9565b6040820152611924565b604081018290525b9695505050505050565b6119366126ca565b60006119428584612224565b9050846000015151816001600160401b031686602001516119639190612a1c565b11156119a65760405162461bcd60e51b815260206004820152601260248201527144617461206f7574206f6620626f756e647360701b6044820152606401610562565b6119ae6126ca565b808560078111156119c1576119c16129da565b908160078111156119d4576119d46129da565b815250506000826001600160401b03166001600160401b038111156119fb576119fb6126fa565b6040519080825280601f01601f191660200182016040528015611a25576020820181803683370190505b50905060005b836001600160401b0316816001600160401b03161015611abf5787516020890151611a60906001600160401b03841690612a1c565b81518110611a7057611a706129f0565b602001015160f81c60f81b82826001600160401b031681518110611a9657611a966129f0565b60200101906001600160f81b031916908160001a90535080611ab781612afc565b915050611a2b565b50826001600160401b031687602001818151611adb9190612a1c565b905250602082015295945050505050565b611af46126ca565b6000611b008584612224565b9050611b0a6126ca565b80856007811115611b1d57611b1d6129da565b90816007811115611b3057611b306129da565b9052506004856007811115611b4757611b476129da565b03611ca05767fffffffffffffffe196001600160401b03831601611bd7575b85515160208701511015611bd2578551602087015181518110611b8b57611b8b6129f0565b016020015160f81c60ff03611bb25760208601805190611baa82612a53565b905250611253565b611bc88160600151611bc388611164565b6125e8565b6060820152611b66565b611253565b816001600160401b03166001600160401b03811115611bf857611bf86126fa565b604051908082528060200260200182016040528015611c3157816020015b611c1e6126ca565b815260200190600190039081611c165790505b50606082015260005b826001600160401b0316816001600160401b03161015611c9a57611c5d87611164565b8260600151826001600160401b031681518110611c7c57611c7c6129f0565b60200260200101819052508080611c9290612afc565b915050611c3a565b50611253565b67fffffffffffffffe196001600160401b03831601611d44575b85515160208701511015611253578551602087015181518110611cdf57611cdf6129f0565b016020015160f81c60ff03611cfe5760208601805190611baa82612a53565b6000611d0987611164565b90506000611d1688611164565b9050611d268360600151836125e8565b60608401819052611d3790826125e8565b606084015250611cba9050565b611d4f826002612b22565b6001600160401b03166001600160401b03811115611d6f57611d6f6126fa565b604051908082528060200260200182016040528015611da857816020015b611d956126ca565b815260200190600190039081611d8d5790505b50606082015260005b826001600160401b0316816001600160401b03161015611e6357611dd487611164565b6060830151611de4836002612b22565b6001600160401b031681518110611dfd57611dfd6129f0565b6020026020010181905250611e1187611164565b6060830151611e21836002612b22565b611e2c906001612b4d565b6001600160401b031681518110611e4557611e456129f0565b60200260200101819052508080611e5b90612afc565b915050611db1565b5095945050505050565b611e756126ca565b6000611e818484612224565b9050611e8b6126ca565b600681526001600160401b0382166080820152604080516001808252818301909252600091602082015b611ebd6126ca565b815260200190600190039081611eb5579050509050611edb86611164565b81600081518110611eee57611eee6129f0565b60209081029190910101526060820152949350505050565b611f0e6126ca565b611f166126ca565b6007815260ff831660131901611f325760006040820152610910565b60141960ff841601611f4a5760016040820152610910565b60151960ff841601611f625760006040820152610910565b60161960ff841601611f7a5760006040820152610910565b60171960ff841601611fc057835160208501805160009291611f9b82612a53565b905281518110611fad57611fad6129f0565b016020015160f81c604083015250610910565b60181960ff8416016120ab57604080516002808252818301909252600091602082018180368337505086516020880180519394509092915061200182612a53565b905281518110612013576120136129f0565b602001015160f81c60f81b81600081518110612031576120316129f0565b60200101906001600160f81b031916908160001a90535084516020860180519061205a82612a53565b90528151811061206c5761206c6129f0565b602001015160f81c60f81b8160018151811061208a5761208a6129f0565b60200101906001600160f81b031916908160001a9053506020820152610910565b60191960ff8416016121595760408051600480825281830190925260009160208201818036833701905050905060005b600481101561214e578551602087018051906120f682612a53565b905281518110612108576121086129f0565b602001015160f81c60f81b828281518110612125576121256129f0565b60200101906001600160f81b031916908160001a9053508061214681612a53565b9150506120db565b506020820152610910565b601a1960ff8416016121fc5760408051600880825281830190925260009160208201818036833701905050905060005b600881101561214e578551602087018051906121a482612a53565b9052815181106121b6576121b66129f0565b602001015160f81c60f81b8282815181106121d3576121d36129f0565b60200101906001600160f81b031916908160001a905350806121f481612a53565b915050612189565b601e1960ff8416016122145760006040820152610910565b60ff831660408201529392505050565b600060188260ff16101561223c575060ff81166102a8565b8160ff1660180361227a5782516020840180519061225982612a53565b90528151811061226b5761226b6129f0565b016020015160f81c90506102a8565b8160ff1660190361230e5782516020840151612297906001612a1c565b815181106122a7576122a76129f0565b602001015160f81c60f81b60f81c60ff16600884600001518560200151815181106122d4576122d46129f0565b602001015160f81c60f81b60f81c60ff166001600160401b0316901b1790506002836020018181516123069190612a1c565b9052506102a8565b8160ff16601a03612402578251602084015161232b906003612a1c565b8151811061233b5761233b6129f0565b0160209081015184519185015160f89190911c9160089161235d906002612a1c565b8151811061236d5761236d6129f0565b0160209081015186519187015160f89190911c90921b9160109190612393906001612a1c565b815181106123a3576123a36129f0565b01602090810151875191880151825160f89290921c90931b926018929181106123ce576123ce6129f0565b602001015160f81c60f81b60f81c60ff166001600160401b0316901b17171790506004836020018181516123069190612a1c565b8160ff16601b036125cf578251602084015161241f906007612a1c565b8151811061242f5761242f6129f0565b0160209081015184519185015160f89190911c91600891612451906006612a1c565b81518110612461576124616129f0565b0160209081015186519187015160f89190911c90921b9160109190612487906005612a1c565b81518110612497576124976129f0565b0160209081015187519188015160f89190911c90921b91601891906124bd906004612a1c565b815181106124cd576124cd6129f0565b0160209081015188518983015160f89290921c90931b92906124f0906003612a1c565b81518110612500576125006129f0565b016020908101518951918a015160f89190911c90921b9160289190612526906002612a1c565b81518110612536576125366129f0565b016020908101518a51918b015160f89190911c90921b916030919061255c906001612a1c565b8151811061256c5761256c6129f0565b016020908101518b51918c0151825160f89290921c90931b92603892918110612597576125976129f0565b602001015160f81c60f81b60f81c60ff166001600160401b0316901b1717171717171790506008836020018181516123069190612a1c565b8160ff16601f036102a857506001600160401b036102a8565b60606000835160016125fa9190612a1c565b6001600160401b03811115612611576126116126fa565b60405190808252806020026020018201604052801561264a57816020015b6126376126ca565b81526020019060019003908161262f5790505b50905060005b84518110156126a35784818151811061266b5761266b6129f0565b6020026020010151828281518110612685576126856129f0565b6020026020010181905250808061269b90612a53565b915050612650565b5082818551815181106126b8576126b86129f0565b60209081029190910101529392505050565b6040805160a081019091528060008152602001606081526020016000815260200160608152602001600081525090565b634e487b7160e01b600052604160045260246000fd5b600082601f83011261272157600080fd5b81356001600160401b038082111561273b5761273b6126fa565b604051601f8301601f19908116603f01168101908282118183101715612763576127636126fa565b8160405283815286602085880101111561277c57600080fd5b836020870160208301376000602085830101528094505050505092915050565b600080604083850312156127af57600080fd5b8235915060208301356001600160401b038111156127cc57600080fd5b6127d885828601612710565b9150509250929050565b6000815180845260005b81811015612808576020818501810151868301820152016127ec565b506000602082860101526020601f19601f83011685010191505092915050565b60408152600061283b60408301856127e2565b905060ff831660208301529392505050565b60006020828403121561285f57600080fd5b81356001600160401b0381111561287557600080fd5b6102a484828501612710565b60ff8316815260406020820152600061289d60408301846127e2565b949350505050565b600080604083850312156128b857600080fd5b50508035926020909101359150565b80356001600160401b03811681146128de57600080fd5b919050565b6000602082840312156128f557600080fd5b610910826128c7565b6000806040838503121561291157600080fd5b82359150612921602084016128c7565b90509250929050565b60208152600061091060208301846127e2565b6000806040838503121561295057600080fd5b82356001600160401b0381111561296657600080fd5b61297285828601612710565b9250506020830135801515811461298857600080fd5b809150509250929050565b83815260ff8316602082015260606040820152600061125360608301846127e2565b6060815260006129c860608301866127e2565b60208301949094525060400152919050565b634e487b7160e01b600052602160045260246000fd5b634e487b7160e01b600052603260045260246000fd5b634e487b7160e01b600052601160045260246000fd5b808201808211156102a8576102a8612a06565b6020808252600a90820152693737ba1031b7b739ba3960b11b604082015260600190565b600060018201612a6557612a65612a06565b5060010190565b600082612a8957634e487b7160e01b600052601260045260246000fd5b500490565b60ff8181168382160290811690818114612aaa57612aaa612a06565b5092915050565b60ff82811682821603908111156102a8576102a8612a06565b600060ff821660ff8103612ae057612ae0612a06565b60010192915050565b818103818111156102a8576102a8612a06565b60006001600160401b03808316818103612b1857612b18612a06565b6001019392505050565b6001600160401b03818116838216028082169190828114612b4557612b45612a06565b505092915050565b6001600160401b03818116838216019080821115612aaa57612aaa612a0656fea26469706673582212203abb2cb72c74d085723ecd3a8986de61930df8c6d58fe87591e6fab541ebc87964736f6c63430008140033",
  "linkReferences": {},
  "deployedLinkReferences": {}
}