{
  "_format": "hh-sol-artifact-1",
  "contractName": "CborExample",
  "sourceName": "contracts/cardano-utils/CBORCodec.sol",
  "abi": [
    {
      "inputs": [
        {
          "internalType": "uint256",
          "name": "n",
          "type": "uint256"
        }
      ],
      "name": "encodeUintTest",
      "outputs": [
        {
          "internalType": "bytes",
          "name": "",
          "type": "bytes"
        }
      ],
      "stateMutability": "pure",
      "type": "function"
    },
    {
      "inputs": [
        {
          "internalType": "bytes",
          "name": "cbor",
          "type": "bytes"
        }
      ],
      "name": "sampleTest",
      "outputs": [
        {
          "internalType": "bool",
          "name": "",
          "type": "bool"
        }
      ],
      "stateMutability": "pure",
      "type": "function"
    },
    {
      "inputs": [
        {
          "internalType": "bytes",
          "name": "cbor",
          "type": "bytes"
        }
      ],
      "name": "test",
      "outputs": [
        {
          "internalType": "bool",
          "name": "",
          "type": "bool"
        }
      ],
      "stateMutability": "pure",
      "type": "function"
    },
    {
      "inputs": [
        {
          "internalType": "bytes",
          "name": "cbor1",
          "type": "bytes"
        },
        {
          "internalType": "bytes",
          "name": "cbor2",
          "type": "bytes"
        }
      ],
      "name": "test2",
      "outputs": [
        {
          "internalType": "bool",
          "name": "",
          "type": "bool"
        }
      ],
      "stateMutability": "pure",
      "type": "function"
    },
    {
      "inputs": [
        {
          "internalType": "bytes",
          "name": "cbor",
          "type": "bytes"
        }
      ],
      "name": "test3",
      "outputs": [
        {
          "internalType": "bytes",
          "name": "",
          "type": "bytes"
        }
      ],
      "stateMutability": "pure",
      "type": "function"
    },
    {
      "inputs": [],
      "name": "testComplexStructure",
      "outputs": [
        {
          "internalType": "bytes",
          "name": "",
          "type": "bytes"
        }
      ],
      "stateMutability": "pure",
      "type": "function"
    },
    {
      "inputs": [
        {
          "internalType": "uint256[]",
          "name": "numbers",
          "type": "uint256[]"
        }
      ],
      "name": "testEncodeDecodeArray",
      "outputs": [
        {
          "internalType": "uint256[]",
          "name": "",
          "type": "uint256[]"
        }
      ],
      "stateMutability": "pure",
      "type": "function"
    },
    {
      "inputs": [
        {
          "internalType": "string",
          "name": "str",
          "type": "string"
        }
      ],
      "name": "testEncodeDecodeString",
      "outputs": [
        {
          "internalType": "string",
          "name": "",
          "type": "string"
        }
      ],
      "stateMutability": "pure",
      "type": "function"
    },
    {
      "inputs": [
        {
          "internalType": "uint256",
          "name": "num",
          "type": "uint256"
        }
      ],
      "name": "testEncodeDecodeUint",
      "outputs": [
        {
          "internalType": "uint256",
          "name": "",
          "type": "uint256"
        }
      ],
      "stateMutability": "pure",
      "type": "function"
    }
  ],
  "bytecode": "0x608060405234801561001057600080fd5b50612c22806100206000396000f3fe608060405234801561001057600080fd5b50600436106100935760003560e01c80634e7df807116100665780634e7df80714610117578063b8438e191461011f578063ca8abba814610140578063d0b072b914610153578063df3a875e1461016657600080fd5b8063152246d7146100985780631c9e1321146100c15780632f570a23146100e157806348792e1314610104575b600080fd5b6100ab6100a63660046127fc565b610179565b6040516100b8919061289c565b60405180910390f35b6100d46100cf3660046128af565b6101f8565b6040516100b89190612954565b6100f46100ef3660046129b8565b610417565b60405190151581526020016100b8565b6100ab6101123660046129ec565b610452565b6100ab610513565b61013261012d3660046129ec565b61072e565b6040519081526020016100b8565b6100f461014e366004612a05565b6107f3565b6100f46101613660046129b8565b610823565b6100ab6101743660046129b8565b610858565b6060600061018683610877565b9050600061019382610895565b90506003815160078111156101aa576101aa612a68565b146101ed5760405162461bcd60e51b815260206004820152600e60248201526d14da1bdd5b19081899481d195e1d60921b60448201526064015b60405180910390fd5b602001519392505050565b6060600082516001600160401b038111156102155761021561275f565b60405190808252806020026020018201604052801561024e57816020015b61023b61272f565b8152602001906001900390816102335790505b50905060005b83518110156102f257600082828151811061027157610271612a7e565b602002602001015160000190600781111561028e5761028e612a68565b908160078111156102a1576102a1612a68565b815250508381815181106102b7576102b7612a7e565b60200260200101518282815181106102d1576102d1612a7e565b602090810291909101015160400152806102ea81612aaa565b915050610254565b5060006102fe826108ba565b9050600061030b82610895565b905060048151600781111561032257610322612a68565b146103615760405162461bcd60e51b815260206004820152600f60248201526e53686f756c6420626520617272617960881b60448201526064016101e4565b60008160600151516001600160401b038111156103805761038061275f565b6040519080825280602002602001820160405280156103a9578160200160208202803683370190505b50905060005b82606001515181101561040d57826060015181815181106103d2576103d2612a7e565b6020026020010151604001518282815181106103f0576103f0612a7e565b60209081029190910101528061040581612aaa565b9150506103af565b5095945050505050565b60008061042383610895565b90506000610430826108d4565b9050600061043d82610895565b9050610449838261093c565b95945050505050565b6060600061045f83610a9e565b9050600061046c82610895565b905060008151600781111561048357610483612a68565b146104c85760405162461bcd60e51b815260206004820152601560248201527414da1bdd5b1908189948155b9cda59db9959125b9d605a1b60448201526064016101e4565b8381604001511461050c5760405162461bcd60e51b815260206004820152600e60248201526d0acc2d8eaca40dad2e6dac2e8c6d60931b60448201526064016101e4565b5092915050565b60408051600480825260a0820190925260609160009190816020015b61053761272f565b81526020019060019003908161052f57905050905060008160008151811061056157610561612a7e565b602002602001015160000190600781111561057e5761057e612a68565b9081600781111561059157610591612a68565b815250506001816000815181106105aa576105aa612a7e565b602002602001015160400181815250506003816001815181106105cf576105cf612a7e565b60200260200101516000019060078111156105ec576105ec612a68565b908160078111156105ff576105ff612a68565b815250506040518060400160405280600581526020016468656c6c6f60d81b8152508160018151811061063457610634612a7e565b60200260200101516020018190525060078160028151811061065857610658612a7e565b602002602001015160000190600781111561067557610675612a68565b9081600781111561068857610688612a68565b815250506001816002815181106106a1576106a1612a7e565b602002602001015160400181815250506007816003815181106106c6576106c6612a7e565b60200260200101516000019060078111156106e3576106e3612a68565b908160078111156106f6576106f6612a68565b8152505060008160038151811061070f5761070f612a7e565b60200260200101516040018181525050610728816108ba565b91505090565b60008061073a83610a9e565b9050600061074782610895565b905060008151600781111561075e5761075e612a68565b146107a45760405162461bcd60e51b815260206004820152601660248201527514da1bdd5b19081899481d5b9cda59db9959081a5b9d60521b60448201526064016101e4565b838160400151146107e85760405162461bcd60e51b815260206004820152600e60248201526d0acc2d8eaca40dad2e6dac2e8c6d60931b60448201526064016101e4565b604001519392505050565b6000806107ff84610895565b9050600061080c84610895565b9050610818828261093c565b925050505b92915050565b60008061082f83610895565b9050600061083c826108d4565b9050808051906020012084805190602001201492505050919050565b6060600061086583610895565b9050610870816108d4565b9392505050565b606061088161272f565b6003815260208101839052610870816108d4565b61089d61272f565b604080518082019091528281526000602082015261087081610abc565b60606108c461272f565b6004815260608101839052610870815b60606000604051806020016040528060006001600160401b038111156108fc576108fc61275f565b6040519080825280601f01601f191660200182016040528015610926576020820181803683370190505b50905290506109358184610c5a565b5192915050565b6000808260000151600781111561095557610955612a68565b8451600781111561096857610968612a68565b14801561097c575082604001518460400151145b80156109d957506020808401516040516109969201612ac3565b6040516020818303038152906040528051906020012084602001516040516020016109c19190612ac3565b60405160208183030381529060405280519060200120145b80156109ec575082608001518460800151145b8015610a015750826060015151846060015151145b905080610a1257600091505061081d565b60608401515115610a945760005b846060015151811015610a9257610a7185606001518281518110610a4657610a46612a7e565b602002602001015185606001518381518110610a6457610a64612a7e565b602002602001015161093c565b610a805760009250505061081d565b80610a8a81612aaa565b915050610a20565b505b5060019392505050565b6060610aa861272f565b6000815260408101839052610870816108d4565b610ac461272f565b815151602083015110610b0d5760405162461bcd60e51b8152602060048201526011602482015270496e73756666696369656e74206461746160781b60448201526064016101e4565b60008260000151836020015181518110610b2957610b29612a7e565b01602090810151908401805160f89290921c9250610b4682612aaa565b90525060006007600583901c811690811115610b6457610b64612a68565b9050601f82166000826007811115610b7e57610b7e612a68565b1480610b9b57506001826007811115610b9957610b99612a68565b145b15610bab5761044985838361137a565b6002826007811115610bbf57610bbf612a68565b1480610bdc57506003826007811115610bda57610bda612a68565b145b15610bec5761044985838361141f565b6004826007811115610c0057610c00612a68565b1480610c1d57506005826007811115610c1b57610c1b612a68565b145b15610c2d576104498583836115dd565b6006826007811115610c4157610c41612a68565b03610c50576104498582611954565b61044985826119ed565b600081516007811115610c6f57610c6f612a68565b03610c8857610c848260008360400151611d0b565b5050565b600181516007811115610c9d57610c9d612a68565b03610cb257610c848260018360400151611d0b565b600281516007811115610cc757610cc7612a68565b03610dd5576000600560025b60ff16901b9050600082602001515190506018816001600160401b03161015610d0757610d0284828417611f90565b610dc1565b60ff816001600160401b031611610d2f57610d258483601817611f90565b610d028482611f90565b61ffff816001600160401b031611610d6657610d4e8483601917611f90565b610d0284610d618361ffff166002612085565b612151565b63ffffffff816001600160401b031611610d9c57610d878483601a17611f90565b610d0284610d618363ffffffff166004612085565b610da98483601b17611f90565b610dc184610d61836001600160401b03166008612085565b610dcf848460200151612151565b50505050565b600381516007811115610dea57610dea612a68565b03610dfa57600060056003610cd3565b600481516007811115610e0f57610e0f612a68565b03610f455760608101515160809060186001600160401b0382161015610e4057610e3b84828417611f90565b610ef5565b60ff816001600160401b031611610e6857610e5e8483601817611f90565b610e3b8482611f90565b61ffff816001600160401b031611610e9a57610e878483601917611f90565b610e3b84610d618361ffff166002612085565b63ffffffff816001600160401b031611610ed057610ebb8483601a17611f90565b610e3b84610d618363ffffffff166004612085565b610edd8483601b17611f90565b610ef584610d61836001600160401b03166008612085565b60005b836060015151811015610f3e57610f2c8585606001518381518110610f1f57610f1f612a7e565b6020026020010151610c5a565b80610f3681612aaa565b915050610ef8565b5050505050565b600581516007811115610f5a57610f5a612a68565b036110b35760608101515160a090600090610f7790600290612adf565b90506018816001600160401b03161015610f9c57610f9784828417611f90565b611051565b60ff816001600160401b031611610fc457610fba8483601817611f90565b610f978482611f90565b61ffff816001600160401b031611610ff657610fe38483601917611f90565b610f9784610d618361ffff166002612085565b63ffffffff816001600160401b03161161102c576110178483601a17611f90565b610f9784610d618363ffffffff166004612085565b6110398483601b17611f90565b61105184610d61836001600160401b03166008612085565b60005b836060015151811015610f3e5761107b8585606001518381518110610f1f57610f1f612a7e565b6110a18585606001518360016110919190612b01565b81518110610f1f57610f1f612a7e565b6110ac600282612b01565b9050611054565b6006815160078111156110c8576110c8612a68565b036111fc57608081015160c09060188110156110ef576110ea84828417611f90565b6111d6565b60ff811161110e576111048483601817611f90565b6110ea8482611f90565b61ffff8111611137576111248483601917611f90565b6110ea84610d618361ffff166002612085565b63ffffffff81116111645761114f8483601a17611f90565b6110ea84610d618363ffffffff166004612085565b6001600160401b0381116111975761117f8483601b17611f90565b6110ea84610d61836001600160401b03166008612085565b60405162461bcd60e51b8152602060048201526014602482015273546167206e756d62657220746f6f206c6172676560601b60448201526064016101e4565b60608301515115610dcf57610dcf848460600151600081518110610f1f57610f1f612a7e565b60078151600781111561121157611211612a68565b03610c845760208101515160e0906000036112da5781604001516000036112445761123f8360148317611f90565b505050565b816040015160010361125d5761123f8360158317611f90565b81604001516000036112765761123f8360168317611f90565b60208260400151106112ca5760405162461bcd60e51b815260206004820152601960248201527f53696d706c652076616c7565206f7574206f662072616e67650000000000000060448201526064016101e4565b61123f8383604001518317611f90565b8160200151516002036112f9576112f48360198317611f90565b61136c565b816020015151600403611313576112f483601a8317611f90565b81602001515160080361132d576112f483601b8317611f90565b60405162461bcd60e51b8152602060048201526014602482015273092dcecc2d8d2c840ccd8dec2e840d8cadccee8d60631b60448201526064016101e4565b61123f838360200151612151565b61138261272f565b600061138e8584612289565b90506001600160401b0381166113a261272f565b808660078111156113b5576113b5612a68565b908160078111156113c8576113c8612a68565b90525060018660078111156113df576113df612a68565b0361140d57816000036113f85760006040820152611415565b611403600183612b14565b6040820152611415565b604081018290525b9695505050505050565b61142761272f565b60006114338584612289565b9050846000015151816001600160401b031686602001516114549190612b01565b11156114975760405162461bcd60e51b815260206004820152601260248201527144617461206f7574206f6620626f756e647360701b60448201526064016101e4565b61149f61272f565b808560078111156114b2576114b2612a68565b908160078111156114c5576114c5612a68565b815250506000826001600160401b03166001600160401b038111156114ec576114ec61275f565b6040519080825280601f01601f191660200182016040528015611516576020820181803683370190505b50905060005b836001600160401b0316816001600160401b031610156115b05787516020890151611551906001600160401b03841690612b01565b8151811061156157611561612a7e565b602001015160f81c60f81b82826001600160401b03168151811061158757611587612a7e565b60200101906001600160f81b031916908160001a905350806115a881612b27565b91505061151c565b50826001600160401b0316876020018181516115cc9190612b01565b905250602082015295945050505050565b6115e561272f565b60006115f18584612289565b90506115fb61272f565b8085600781111561160e5761160e612a68565b9081600781111561162157611621612a68565b905250600485600781111561163857611638612a68565b036117915767fffffffffffffffe196001600160401b038316016116c8575b855151602087015110156116c357855160208701518151811061167c5761167c612a7e565b016020015160f81c60ff036116a3576020860180519061169b82612aaa565b905250610449565b6116b981606001516116b488610abc565b61264d565b6060820152611657565b610449565b816001600160401b03166001600160401b038111156116e9576116e961275f565b60405190808252806020026020018201604052801561172257816020015b61170f61272f565b8152602001906001900390816117075790505b50606082015260005b826001600160401b0316816001600160401b0316101561178b5761174e87610abc565b8260600151826001600160401b03168151811061176d5761176d612a7e565b6020026020010181905250808061178390612b27565b91505061172b565b50610449565b67fffffffffffffffe196001600160401b03831601611835575b855151602087015110156104495785516020870151815181106117d0576117d0612a7e565b016020015160f81c60ff036117ef576020860180519061169b82612aaa565b60006117fa87610abc565b9050600061180788610abc565b905061181783606001518361264d565b60608401819052611828908261264d565b6060840152506117ab9050565b611840826002612b4d565b6001600160401b03166001600160401b038111156118605761186061275f565b60405190808252806020026020018201604052801561189957816020015b61188661272f565b81526020019060019003908161187e5790505b50606082015260005b826001600160401b0316816001600160401b0316101561040d576118c587610abc565b60608301516118d5836002612b4d565b6001600160401b0316815181106118ee576118ee612a7e565b602002602001018190525061190287610abc565b6060830151611912836002612b4d565b61191d906001612b78565b6001600160401b03168151811061193657611936612a7e565b6020026020010181905250808061194c90612b27565b9150506118a2565b61195c61272f565b60006119688484612289565b905061197261272f565b600681526001600160401b0382166080820152604080516001808252818301909252600091602082015b6119a461272f565b81526020019060019003908161199c5790505090506119c286610abc565b816000815181106119d5576119d5612a7e565b60209081029190910101526060820152949350505050565b6119f561272f565b6119fd61272f565b6007815260ff831660131901611a195760006040820152610870565b60141960ff841601611a315760016040820152610870565b60151960ff841601611a495760006040820152610870565b60161960ff841601611a615760006040820152610870565b60171960ff841601611aa757835160208501805160009291611a8282612aaa565b905281518110611a9457611a94612a7e565b016020015160f81c604083015250610870565b60181960ff841601611b92576040805160028082528183019092526000916020820181803683375050865160208801805193945090929150611ae882612aaa565b905281518110611afa57611afa612a7e565b602001015160f81c60f81b81600081518110611b1857611b18612a7e565b60200101906001600160f81b031916908160001a905350845160208601805190611b4182612aaa565b905281518110611b5357611b53612a7e565b602001015160f81c60f81b81600181518110611b7157611b71612a7e565b60200101906001600160f81b031916908160001a9053506020820152610870565b60191960ff841601611c405760408051600480825281830190925260009160208201818036833701905050905060005b6004811015611c3557855160208701805190611bdd82612aaa565b905281518110611bef57611bef612a7e565b602001015160f81c60f81b828281518110611c0c57611c0c612a7e565b60200101906001600160f81b031916908160001a90535080611c2d81612aaa565b915050611bc2565b506020820152610870565b601a1960ff841601611ce35760408051600880825281830190925260009160208201818036833701905050905060005b6008811015611c3557855160208701805190611c8b82612aaa565b905281518110611c9d57611c9d612a7e565b602001015160f81c60f81b828281518110611cba57611cba612a7e565b60200101906001600160f81b031916908160001a90535080611cdb81612aaa565b915050611c70565b601e1960ff841601611cfb5760006040820152610870565b60ff831660408201529392505050565b60006005836007811115611d2157611d21612a68565b60ff16901b90506001836007811115611d3c57611d3c612a68565b03611e6d576001600160401b03821115611da45760405162461bcd60e51b8152602060048201526024808201527f56616c756520746f6f206c6172676520666f72206e6567617469766520696e7460448201526332b3b2b960e11b60648201526084016101e4565b6000611db1836001612b01565b90506018811015611dcd57611dc885828417611f90565b611e67565b60ff8111611dec57611de28583601817611f90565b611dc88582611f90565b61ffff8111611e1557611e028583601917611f90565b611dc885610d618361ffff166002612085565b63ffffffff8111611e4257611e2d8583601a17611f90565b611dc885610d618363ffffffff166004612085565b611e4f8583601b17611f90565b611e6785610d61836001600160401b03166008612085565b50610dcf565b6018821015611e8757611e8284838317611f90565b610dcf565b60ff8211611ea657611e9c8482601817611f90565b611e828483611f90565b61ffff8211611ecf57611ebc8482601917611f90565b611e8284610d618461ffff166002612085565b63ffffffff8211611efc57611ee78482601a17611f90565b611e8284610d618463ffffffff166004612085565b6001600160401b038211611f2f57611f178482601b17611f90565b611e8284610d61846001600160401b03166008612085565b60405162461bcd60e51b815260206004820152603060248201527f56616c756520746f6f206c6172676520666f722075696e7436342c207573652060448201526f546167203220666f72206269676e756d60801b60648201526084016101e4565b815151600090611fa1906001612b01565b6001600160401b03811115611fb857611fb861275f565b6040519080825280601f01601f191660200182016040528015611fe2576020820181803683370190505b50905060005b83515181101561204c57835180518290811061200657612006612a7e565b602001015160f81c60f81b82828151811061202357612023612a7e565b60200101906001600160f81b031916908160001a9053508061204481612aaa565b915050611fe8565b508160f81b818460000151518151811061206857612068612a7e565b60200101906001600160f81b031916908160001a90535090915250565b606060008260ff166001600160401b038111156120a4576120a461275f565b6040519080825280601f01601f1916602001820160405280156120ce576020820181803683370190505b50905060005b8360ff168160ff161015612149576120ed816008612b98565b60ff1685901c60f81b8282612103600188612bb4565b61210d9190612bb4565b60ff168151811061212057612120612a7e565b60200101906001600160f81b031916908160001a9053508061214181612bcd565b9150506120d4565b509392505050565b805182515160009161216291612b01565b6001600160401b038111156121795761217961275f565b6040519080825280601f01601f1916602001820160405280156121a3576020820181803683370190505b50905060005b83515181101561220d5783518051829081106121c7576121c7612a7e565b602001015160f81c60f81b8282815181106121e4576121e4612a7e565b60200101906001600160f81b031916908160001a9053508061220581612aaa565b9150506121a9565b5060005b82518110156122825782818151811061222c5761222c612a7e565b602001015160f81c60f81b82828660000151516122499190612b01565b8151811061225957612259612a7e565b60200101906001600160f81b031916908160001a9053508061227a81612aaa565b915050612211565b5090915250565b600060188260ff1610156122a1575060ff811661081d565b8160ff166018036122df578251602084018051906122be82612aaa565b9052815181106122d0576122d0612a7e565b016020015160f81c905061081d565b8160ff1660190361237357825160208401516122fc906001612b01565b8151811061230c5761230c612a7e565b602001015160f81c60f81b60f81c60ff166008846000015185602001518151811061233957612339612a7e565b602001015160f81c60f81b60f81c60ff166001600160401b0316901b17905060028360200181815161236b9190612b01565b90525061081d565b8160ff16601a036124675782516020840151612390906003612b01565b815181106123a0576123a0612a7e565b0160209081015184519185015160f89190911c916008916123c2906002612b01565b815181106123d2576123d2612a7e565b0160209081015186519187015160f89190911c90921b91601091906123f8906001612b01565b8151811061240857612408612a7e565b01602090810151875191880151825160f89290921c90931b9260189291811061243357612433612a7e565b602001015160f81c60f81b60f81c60ff166001600160401b0316901b171717905060048360200181815161236b9190612b01565b8160ff16601b036126345782516020840151612484906007612b01565b8151811061249457612494612a7e565b0160209081015184519185015160f89190911c916008916124b6906006612b01565b815181106124c6576124c6612a7e565b0160209081015186519187015160f89190911c90921b91601091906124ec906005612b01565b815181106124fc576124fc612a7e565b0160209081015187519188015160f89190911c90921b9160189190612522906004612b01565b8151811061253257612532612a7e565b0160209081015188518983015160f89290921c90931b9290612555906003612b01565b8151811061256557612565612a7e565b016020908101518951918a015160f89190911c90921b916028919061258b906002612b01565b8151811061259b5761259b612a7e565b016020908101518a51918b015160f89190911c90921b91603091906125c1906001612b01565b815181106125d1576125d1612a7e565b016020908101518b51918c0151825160f89290921c90931b926038929181106125fc576125fc612a7e565b602001015160f81c60f81b60f81c60ff166001600160401b0316901b17171717171717905060088360200181815161236b9190612b01565b8160ff16601f0361081d57506001600160401b0361081d565b606060008351600161265f9190612b01565b6001600160401b038111156126765761267661275f565b6040519080825280602002602001820160405280156126af57816020015b61269c61272f565b8152602001906001900390816126945790505b50905060005b8451811015612708578481815181106126d0576126d0612a7e565b60200260200101518282815181106126ea576126ea612a7e565b6020026020010181905250808061270090612aaa565b9150506126b5565b50828185518151811061271d5761271d612a7e565b60209081029190910101529392505050565b6040805160a081019091528060008152602001606081526020016000815260200160608152602001600081525090565b634e487b7160e01b600052604160045260246000fd5b604051601f8201601f191681016001600160401b038111828210171561279d5761279d61275f565b604052919050565b60006001600160401b038311156127be576127be61275f565b6127d1601f8401601f1916602001612775565b90508281528383830111156127e557600080fd5b828260208301376000602084830101529392505050565b60006020828403121561280e57600080fd5b81356001600160401b0381111561282457600080fd5b8201601f8101841361283557600080fd5b612844848235602084016127a5565b949350505050565b60005b8381101561286757818101518382015260200161284f565b50506000910152565b6000815180845261288881602086016020860161284c565b601f01601f19169290920160200192915050565b6020815260006108706020830184612870565b600060208083850312156128c257600080fd5b82356001600160401b03808211156128d957600080fd5b818501915085601f8301126128ed57600080fd5b8135818111156128ff576128ff61275f565b8060051b9150612910848301612775565b818152918301840191848101908884111561292a57600080fd5b938501935b838510156129485784358252938501939085019061292f565b98975050505050505050565b6020808252825182820181905260009190848201906040850190845b8181101561298c57835183529284019291840191600101612970565b50909695505050505050565b600082601f8301126129a957600080fd5b610870838335602085016127a5565b6000602082840312156129ca57600080fd5b81356001600160401b038111156129e057600080fd5b61284484828501612998565b6000602082840312156129fe57600080fd5b5035919050565b60008060408385031215612a1857600080fd5b82356001600160401b0380821115612a2f57600080fd5b612a3b86838701612998565b93506020850135915080821115612a5157600080fd5b50612a5e85828601612998565b9150509250929050565b634e487b7160e01b600052602160045260246000fd5b634e487b7160e01b600052603260045260246000fd5b634e487b7160e01b600052601160045260246000fd5b600060018201612abc57612abc612a94565b5060010190565b60008251612ad581846020870161284c565b9190910192915050565b600082612afc57634e487b7160e01b600052601260045260246000fd5b500490565b8082018082111561081d5761081d612a94565b8181038181111561081d5761081d612a94565b60006001600160401b03808316818103612b4357612b43612a94565b6001019392505050565b6001600160401b03818116838216028082169190828114612b7057612b70612a94565b505092915050565b6001600160401b0381811683821601908082111561050c5761050c612a94565b60ff818116838216029081169081811461050c5761050c612a94565b60ff828116828216039081111561081d5761081d612a94565b600060ff821660ff8103612be357612be3612a94565b6001019291505056fea2646970667358221220c733eb751cd4c944d1f40a0bcf3da85f8e74507a2e168e4aa6b1cb1fa2af730f64736f6c63430008140033",
  "linkReferences": {},
  "deployedLinkReferences": {}
}